{
  "_format": "hh-sol-artifact-1",
  "contractName": "NFT",
  "sourceName": "contracts/NFT.sol",
  "abi": [
    {
      "inputs": [],
      "stateMutability": "nonpayable",
      "type": "constructor"
    },
    {
      "anonymous": false,
      "inputs": [
        {
          "indexed": true,
          "internalType": "address",
          "name": "owner",
          "type": "address"
        },
        {
          "indexed": true,
          "internalType": "address",
          "name": "approved",
          "type": "address"
        },
        {
          "indexed": true,
          "internalType": "uint256",
          "name": "tokenId",
          "type": "uint256"
        }
      ],
      "name": "Approval",
      "type": "event"
    },
    {
      "anonymous": false,
      "inputs": [
        {
          "indexed": true,
          "internalType": "address",
          "name": "owner",
          "type": "address"
        },
        {
          "indexed": true,
          "internalType": "address",
          "name": "operator",
          "type": "address"
        },
        {
          "indexed": false,
          "internalType": "bool",
          "name": "approved",
          "type": "bool"
        }
      ],
      "name": "ApprovalForAll",
      "type": "event"
    },
    {
      "anonymous": false,
      "inputs": [
        {
          "indexed": true,
          "internalType": "address",
          "name": "previousOwner",
          "type": "address"
        },
        {
          "indexed": true,
          "internalType": "address",
          "name": "newOwner",
          "type": "address"
        }
      ],
      "name": "OwnershipTransferred",
      "type": "event"
    },
    {
      "anonymous": false,
      "inputs": [
        {
          "indexed": true,
          "internalType": "address",
          "name": "from",
          "type": "address"
        },
        {
          "indexed": true,
          "internalType": "address",
          "name": "to",
          "type": "address"
        },
        {
          "indexed": true,
          "internalType": "uint256",
          "name": "tokenId",
          "type": "uint256"
        }
      ],
      "name": "Transfer",
      "type": "event"
    },
    {
      "inputs": [
        {
          "internalType": "address",
          "name": "to",
          "type": "address"
        },
        {
          "internalType": "uint256",
          "name": "tokenId",
          "type": "uint256"
        }
      ],
      "name": "approve",
      "outputs": [],
      "stateMutability": "nonpayable",
      "type": "function"
    },
    {
      "inputs": [
        {
          "internalType": "address",
          "name": "owner",
          "type": "address"
        }
      ],
      "name": "balanceOf",
      "outputs": [
        {
          "internalType": "uint256",
          "name": "",
          "type": "uint256"
        }
      ],
      "stateMutability": "view",
      "type": "function"
    },
    {
      "inputs": [
        {
          "internalType": "uint256",
          "name": "tokenId",
          "type": "uint256"
        }
      ],
      "name": "getApproved",
      "outputs": [
        {
          "internalType": "address",
          "name": "",
          "type": "address"
        }
      ],
      "stateMutability": "view",
      "type": "function"
    },
    {
      "inputs": [
        {
          "internalType": "address",
          "name": "owner",
          "type": "address"
        },
        {
          "internalType": "address",
          "name": "operator",
          "type": "address"
        }
      ],
      "name": "isApprovedForAll",
      "outputs": [
        {
          "internalType": "bool",
          "name": "",
          "type": "bool"
        }
      ],
      "stateMutability": "view",
      "type": "function"
    },
    {
      "inputs": [],
      "name": "name",
      "outputs": [
        {
          "internalType": "string",
          "name": "",
          "type": "string"
        }
      ],
      "stateMutability": "view",
      "type": "function"
    },
    {
      "inputs": [],
      "name": "owner",
      "outputs": [
        {
          "internalType": "address",
          "name": "",
          "type": "address"
        }
      ],
      "stateMutability": "view",
      "type": "function"
    },
    {
      "inputs": [
        {
          "internalType": "uint256",
          "name": "tokenId",
          "type": "uint256"
        }
      ],
      "name": "ownerOf",
      "outputs": [
        {
          "internalType": "address",
          "name": "",
          "type": "address"
        }
      ],
      "stateMutability": "view",
      "type": "function"
    },
    {
      "inputs": [],
      "name": "renounceOwnership",
      "outputs": [],
      "stateMutability": "nonpayable",
      "type": "function"
    },
    {
      "inputs": [
        {
          "internalType": "uint256",
          "name": "_tokenId",
          "type": "uint256"
        },
        {
          "internalType": "uint256",
          "name": "_salePrice",
          "type": "uint256"
        }
      ],
      "name": "royaltyInfo",
      "outputs": [
        {
          "internalType": "address",
          "name": "",
          "type": "address"
        },
        {
          "internalType": "uint256",
          "name": "",
          "type": "uint256"
        }
      ],
      "stateMutability": "view",
      "type": "function"
    },
    {
      "inputs": [
        {
          "internalType": "address",
          "name": "account",
          "type": "address"
        },
        {
          "internalType": "uint256",
          "name": "tokenId",
          "type": "uint256"
        }
      ],
      "name": "safeMint",
      "outputs": [],
      "stateMutability": "nonpayable",
      "type": "function"
    },
    {
      "inputs": [
        {
          "internalType": "address",
          "name": "from",
          "type": "address"
        },
        {
          "internalType": "address",
          "name": "to",
          "type": "address"
        },
        {
          "internalType": "uint256",
          "name": "tokenId",
          "type": "uint256"
        }
      ],
      "name": "safeTransferFrom",
      "outputs": [],
      "stateMutability": "nonpayable",
      "type": "function"
    },
    {
      "inputs": [
        {
          "internalType": "address",
          "name": "from",
          "type": "address"
        },
        {
          "internalType": "address",
          "name": "to",
          "type": "address"
        },
        {
          "internalType": "uint256",
          "name": "tokenId",
          "type": "uint256"
        },
        {
          "internalType": "bytes",
          "name": "data",
          "type": "bytes"
        }
      ],
      "name": "safeTransferFrom",
      "outputs": [],
      "stateMutability": "nonpayable",
      "type": "function"
    },
    {
      "inputs": [
        {
          "internalType": "address",
          "name": "operator",
          "type": "address"
        },
        {
          "internalType": "bool",
          "name": "approved",
          "type": "bool"
        }
      ],
      "name": "setApprovalForAll",
      "outputs": [],
      "stateMutability": "nonpayable",
      "type": "function"
    },
    {
      "inputs": [
        {
          "internalType": "bytes4",
          "name": "interfaceId",
          "type": "bytes4"
        }
      ],
      "name": "supportsInterface",
      "outputs": [
        {
          "internalType": "bool",
          "name": "",
          "type": "bool"
        }
      ],
      "stateMutability": "view",
      "type": "function"
    },
    {
      "inputs": [],
      "name": "symbol",
      "outputs": [
        {
          "internalType": "string",
          "name": "",
          "type": "string"
        }
      ],
      "stateMutability": "view",
      "type": "function"
    },
    {
      "inputs": [
        {
          "internalType": "uint256",
          "name": "tokenId",
          "type": "uint256"
        }
      ],
      "name": "tokenURI",
      "outputs": [
        {
          "internalType": "string",
          "name": "",
          "type": "string"
        }
      ],
      "stateMutability": "view",
      "type": "function"
    },
    {
      "inputs": [
        {
          "internalType": "address",
          "name": "from",
          "type": "address"
        },
        {
          "internalType": "address",
          "name": "to",
          "type": "address"
        },
        {
          "internalType": "uint256",
          "name": "tokenId",
          "type": "uint256"
        }
      ],
      "name": "transferFrom",
      "outputs": [],
      "stateMutability": "nonpayable",
      "type": "function"
    },
    {
      "inputs": [
        {
          "internalType": "address",
          "name": "newOwner",
          "type": "address"
        }
      ],
      "name": "transferOwnership",
      "outputs": [],
      "stateMutability": "nonpayable",
      "type": "function"
    }
  ],
  "bytecode": "0x60806040523480156200001157600080fd5b506040518060400160405280600981526020017f4552433732314e465400000000000000000000000000000000000000000000008152506040518060400160405280600381526020017f4e46540000000000000000000000000000000000000000000000000000000000815250816002908051906020019062000096929190620001c5565b508060039080519060200190620000af929190620001c5565b505050620000d2620000c6620000f460201b60201c565b620000fc60201b60201c565b620000ee67ac18f7d117a4ab8960c01b620001c260201b60201c565b620002da565b600033905090565b6000600860009054906101000a900473ffffffffffffffffffffffffffffffffffffffff16905081600860006101000a81548173ffffffffffffffffffffffffffffffffffffffff021916908373ffffffffffffffffffffffffffffffffffffffff1602179055508173ffffffffffffffffffffffffffffffffffffffff168173ffffffffffffffffffffffffffffffffffffffff167f8be0079c531659141344cd1fd0a4f28419497f9722a3daafe3b4186f6b6457e060405160405180910390a35050565b50565b828054620001d390620002a4565b90600052602060002090601f016020900481019282620001f7576000855562000243565b82601f106200021257805160ff191683800117855562000243565b8280016001018555821562000243579182015b828111156200024257825182559160200191906001019062000225565b5b50905062000252919062000256565b5090565b5b808211156200027157600081600090555060010162000257565b5090565b7f4e487b7100000000000000000000000000000000000000000000000000000000600052602260045260246000fd5b60006002820490506001821680620002bd57607f821691505b60208210811415620002d457620002d362000275565b5b50919050565b612cb580620002ea6000396000f3fe608060405234801561001057600080fd5b50600436106101165760003560e01c8063715018a6116100a2578063a22cb46511610071578063a22cb465146102e0578063b88d4fde146102fc578063c87b56dd14610318578063e985e9c514610348578063f2fde38b1461037857610116565b8063715018a61461027e5780638da5cb5b1461028857806395d89b41146102a6578063a1448194146102c457610116565b806323b872dd116100e957806323b872dd146101b55780632a55205a146101d157806342842e0e146102025780636352211e1461021e57806370a082311461024e57610116565b806301ffc9a71461011b57806306fdde031461014b578063081812fc14610169578063095ea7b314610199575b600080fd5b61013560048036038101906101309190611d86565b610394565b6040516101429190611dce565b60405180910390f35b6101536103a6565b6040516101609190611e82565b60405180910390f35b610183600480360381019061017e9190611eda565b610438565b6040516101909190611f48565b60405180910390f35b6101b360048036038101906101ae9190611f8f565b61047e565b005b6101cf60048036038101906101ca9190611fcf565b610596565b005b6101eb60048036038101906101e69190612022565b6105f6565b6040516101f9929190612071565b60405180910390f35b61021c60048036038101906102179190611fcf565b6107e1565b005b61023860048036038101906102339190611eda565b610801565b6040516102459190611f48565b60405180910390f35b6102686004803603810190610263919061209a565b610888565b60405161027591906120c7565b60405180910390f35b610286610940565b005b610290610954565b60405161029d9190611f48565b60405180910390f35b6102ae61097e565b6040516102bb9190611e82565b60405180910390f35b6102de60048036038101906102d99190611f8f565b610a10565b005b6102fa60048036038101906102f5919061210e565b610a8a565b005b61031660048036038101906103119190612283565b610aa0565b005b610332600480360381019061032d9190611eda565b610b02565b60405161033f9190611e82565b60405180910390f35b610362600480360381019061035d9190612306565b610b6a565b60405161036f9190611dce565b60405180910390f35b610392600480360381019061038d919061209a565b610bfe565b005b600061039f82610c82565b9050919050565b6060600280546103b590612375565b80601f01602080910402602001604051908101604052809291908181526020018280546103e190612375565b801561042e5780601f106104035761010080835404028352916020019161042e565b820191906000526020600020905b81548152906001019060200180831161041157829003601f168201915b5050505050905090565b600061044382610d64565b6006600083815260200190815260200160002060009054906101000a900473ffffffffffffffffffffffffffffffffffffffff169050919050565b600061048982610801565b90508073ffffffffffffffffffffffffffffffffffffffff168373ffffffffffffffffffffffffffffffffffffffff1614156104fa576040517f08c379a00000000000000000000000000000000000000000000000000000000081526004016104f190612419565b60405180910390fd5b8073ffffffffffffffffffffffffffffffffffffffff16610519610daf565b73ffffffffffffffffffffffffffffffffffffffff161480610548575061054781610542610daf565b610b6a565b5b610587576040517f08c379a000000000000000000000000000000000000000000000000000000000815260040161057e906124ab565b60405180910390fd5b6105918383610db7565b505050565b6105a76105a1610daf565b82610e70565b6105e6576040517f08c379a00000000000000000000000000000000000000000000000000000000081526004016105dd9061253d565b60405180910390fd5b6105f1838383610f05565b505050565b6000806000600160008681526020019081526020016000206040518060400160405290816000820160009054906101000a900473ffffffffffffffffffffffffffffffffffffffff1673ffffffffffffffffffffffffffffffffffffffff1673ffffffffffffffffffffffffffffffffffffffff1681526020016000820160149054906101000a90046bffffffffffffffffffffffff166bffffffffffffffffffffffff166bffffffffffffffffffffffff16815250509050600073ffffffffffffffffffffffffffffffffffffffff16816000015173ffffffffffffffffffffffffffffffffffffffff16141561078c5760006040518060400160405290816000820160009054906101000a900473ffffffffffffffffffffffffffffffffffffffff1673ffffffffffffffffffffffffffffffffffffffff1673ffffffffffffffffffffffffffffffffffffffff1681526020016000820160149054906101000a90046bffffffffffffffffffffffff166bffffffffffffffffffffffff166bffffffffffffffffffffffff168152505090505b60006107966111ff565b6bffffffffffffffffffffffff1682602001516bffffffffffffffffffffffff16866107c2919061258c565b6107cc9190612615565b90508160000151819350935050509250929050565b6107fc83838360405180602001604052806000815250610aa0565b505050565b60008061080d83611209565b9050600073ffffffffffffffffffffffffffffffffffffffff168173ffffffffffffffffffffffffffffffffffffffff16141561087f576040517f08c379a000000000000000000000000000000000000000000000000000000000815260040161087690612692565b60405180910390fd5b80915050919050565b60008073ffffffffffffffffffffffffffffffffffffffff168273ffffffffffffffffffffffffffffffffffffffff1614156108f9576040517f08c379a00000000000000000000000000000000000000000000000000000000081526004016108f090612724565b60405180910390fd5b600560008373ffffffffffffffffffffffffffffffffffffffff1673ffffffffffffffffffffffffffffffffffffffff168152602001908152602001600020549050919050565b610948611246565b61095260006112c4565b565b6000600860009054906101000a900473ffffffffffffffffffffffffffffffffffffffff16905090565b60606003805461098d90612375565b80601f01602080910402602001604051908101604052809291908181526020018280546109b990612375565b8015610a065780601f106109db57610100808354040283529160200191610a06565b820191906000526020600020905b8154815290600101906020018083116109e957829003601f168201915b5050505050905090565b610a2467b59e0c3679b1504460c01b61138a565b610a2c611246565b610a40678c4078c81d53a99c60c01b61138a565b610a546751a46e475cd33ce660c01b61138a565b610a6867d3e5008846918c7f60c01b61138a565b610a7c67b0ddbc8c8e8e1d8060c01b61138a565b610a86828261138d565b5050565b610a9c610a95610daf565b83836113ab565b5050565b610ab1610aab610daf565b83610e70565b610af0576040517f08c379a0000000000000000000000000000000000000000000000000000000008152600401610ae79061253d565b60405180910390fd5b610afc84848484611518565b50505050565b6060610b0d82610d64565b6000610b17611574565b90506000815111610b375760405180602001604052806000815250610b62565b80610b418461158b565b604051602001610b52929190612780565b6040516020818303038152906040525b915050919050565b6000600760008473ffffffffffffffffffffffffffffffffffffffff1673ffffffffffffffffffffffffffffffffffffffff16815260200190815260200160002060008373ffffffffffffffffffffffffffffffffffffffff1673ffffffffffffffffffffffffffffffffffffffff16815260200190815260200160002060009054906101000a900460ff16905092915050565b610c06611246565b600073ffffffffffffffffffffffffffffffffffffffff168173ffffffffffffffffffffffffffffffffffffffff161415610c76576040517f08c379a0000000000000000000000000000000000000000000000000000000008152600401610c6d90612816565b60405180910390fd5b610c7f816112c4565b50565b60007f80ac58cd000000000000000000000000000000000000000000000000000000007bffffffffffffffffffffffffffffffffffffffffffffffffffffffff1916827bffffffffffffffffffffffffffffffffffffffffffffffffffffffff19161480610d4d57507f5b5e139f000000000000000000000000000000000000000000000000000000007bffffffffffffffffffffffffffffffffffffffffffffffffffffffff1916827bffffffffffffffffffffffffffffffffffffffffffffffffffffffff1916145b80610d5d5750610d5c82611663565b5b9050919050565b610d6d816116dd565b610dac576040517f08c379a0000000000000000000000000000000000000000000000000000000008152600401610da390612692565b60405180910390fd5b50565b600033905090565b816006600083815260200190815260200160002060006101000a81548173ffffffffffffffffffffffffffffffffffffffff021916908373ffffffffffffffffffffffffffffffffffffffff160217905550808273ffffffffffffffffffffffffffffffffffffffff16610e2a83610801565b73ffffffffffffffffffffffffffffffffffffffff167f8c5be1e5ebec7d5bd14f71427d1e84f3dd0314c0f7b2291e5b200ac8c7c3b92560405160405180910390a45050565b600080610e7c83610801565b90508073ffffffffffffffffffffffffffffffffffffffff168473ffffffffffffffffffffffffffffffffffffffff161480610ebe5750610ebd8185610b6a565b5b80610efc57508373ffffffffffffffffffffffffffffffffffffffff16610ee484610438565b73ffffffffffffffffffffffffffffffffffffffff16145b91505092915050565b8273ffffffffffffffffffffffffffffffffffffffff16610f2582610801565b73ffffffffffffffffffffffffffffffffffffffff1614610f7b576040517f08c379a0000000000000000000000000000000000000000000000000000000008152600401610f72906128a8565b60405180910390fd5b600073ffffffffffffffffffffffffffffffffffffffff168273ffffffffffffffffffffffffffffffffffffffff161415610feb576040517f08c379a0000000000000000000000000000000000000000000000000000000008152600401610fe29061293a565b60405180910390fd5b610ff8838383600161171e565b8273ffffffffffffffffffffffffffffffffffffffff1661101882610801565b73ffffffffffffffffffffffffffffffffffffffff161461106e576040517f08c379a0000000000000000000000000000000000000000000000000000000008152600401611065906128a8565b60405180910390fd5b6006600082815260200190815260200160002060006101000a81549073ffffffffffffffffffffffffffffffffffffffff02191690556001600560008573ffffffffffffffffffffffffffffffffffffffff1673ffffffffffffffffffffffffffffffffffffffff168152602001908152602001600020600082825403925050819055506001600560008473ffffffffffffffffffffffffffffffffffffffff1673ffffffffffffffffffffffffffffffffffffffff16815260200190815260200160002060008282540192505081905550816004600083815260200190815260200160002060006101000a81548173ffffffffffffffffffffffffffffffffffffffff021916908373ffffffffffffffffffffffffffffffffffffffff160217905550808273ffffffffffffffffffffffffffffffffffffffff168473ffffffffffffffffffffffffffffffffffffffff167fddf252ad1be2c89b69c2b068fc378daa952ba7f163c4a11628f55a4df523b3ef60405160405180910390a46111fa8383836001611724565b505050565b6000612710905090565b60006004600083815260200190815260200160002060009054906101000a900473ffffffffffffffffffffffffffffffffffffffff169050919050565b61124e610daf565b73ffffffffffffffffffffffffffffffffffffffff1661126c610954565b73ffffffffffffffffffffffffffffffffffffffff16146112c2576040517f08c379a00000000000000000000000000000000000000000000000000000000081526004016112b9906129a6565b60405180910390fd5b565b6000600860009054906101000a900473ffffffffffffffffffffffffffffffffffffffff16905081600860006101000a81548173ffffffffffffffffffffffffffffffffffffffff021916908373ffffffffffffffffffffffffffffffffffffffff1602179055508173ffffffffffffffffffffffffffffffffffffffff168173ffffffffffffffffffffffffffffffffffffffff167f8be0079c531659141344cd1fd0a4f28419497f9722a3daafe3b4186f6b6457e060405160405180910390a35050565b50565b6113a782826040518060200160405280600081525061172a565b5050565b8173ffffffffffffffffffffffffffffffffffffffff168373ffffffffffffffffffffffffffffffffffffffff16141561141a576040517f08c379a000000000000000000000000000000000000000000000000000000000815260040161141190612a12565b60405180910390fd5b80600760008573ffffffffffffffffffffffffffffffffffffffff1673ffffffffffffffffffffffffffffffffffffffff16815260200190815260200160002060008473ffffffffffffffffffffffffffffffffffffffff1673ffffffffffffffffffffffffffffffffffffffff16815260200190815260200160002060006101000a81548160ff0219169083151502179055508173ffffffffffffffffffffffffffffffffffffffff168373ffffffffffffffffffffffffffffffffffffffff167f17307eab39ab6107e8899845ad3d59bd9653f200f220920489ca2b5937696c318360405161150b9190611dce565b60405180910390a3505050565b611523848484610f05565b61152f84848484611785565b61156e576040517f08c379a000000000000000000000000000000000000000000000000000000000815260040161156590612aa4565b60405180910390fd5b50505050565b606060405180602001604052806000815250905090565b60606000600161159a8461191c565b01905060008167ffffffffffffffff8111156115b9576115b8612158565b5b6040519080825280601f01601f1916602001820160405280156115eb5781602001600182028036833780820191505090505b509050600082602001820190505b600115611658578080600190039150507f3031323334353637383961626364656600000000000000000000000000000000600a86061a8153600a8581611642576116416125e6565b5b049450600085141561165357611658565b6115f9565b819350505050919050565b60007f2a55205a000000000000000000000000000000000000000000000000000000007bffffffffffffffffffffffffffffffffffffffffffffffffffffffff1916827bffffffffffffffffffffffffffffffffffffffffffffffffffffffff191614806116d657506116d582611a6f565b5b9050919050565b60008073ffffffffffffffffffffffffffffffffffffffff166116ff83611209565b73ffffffffffffffffffffffffffffffffffffffff1614159050919050565b50505050565b50505050565b6117348383611ad9565b6117416000848484611785565b611780576040517f08c379a000000000000000000000000000000000000000000000000000000000815260040161177790612aa4565b60405180910390fd5b505050565b60006117a68473ffffffffffffffffffffffffffffffffffffffff16611cf7565b1561190f578373ffffffffffffffffffffffffffffffffffffffff1663150b7a026117cf610daf565b8786866040518563ffffffff1660e01b81526004016117f19493929190612b19565b602060405180830381600087803b15801561180b57600080fd5b505af192505050801561183c57506040513d601f19601f820116820180604052508101906118399190612b7a565b60015b6118bf573d806000811461186c576040519150601f19603f3d011682016040523d82523d6000602084013e611871565b606091505b506000815114156118b7576040517f08c379a00000000000000000000000000000000000000000000000000000000081526004016118ae90612aa4565b60405180910390fd5b805181602001fd5b63150b7a0260e01b7bffffffffffffffffffffffffffffffffffffffffffffffffffffffff1916817bffffffffffffffffffffffffffffffffffffffffffffffffffffffff191614915050611914565b600190505b949350505050565b600080600090507a184f03e93ff9f4daa797ed6e38ed64bf6a1f010000000000000000831061197a577a184f03e93ff9f4daa797ed6e38ed64bf6a1f01000000000000000083816119705761196f6125e6565b5b0492506040810190505b6d04ee2d6d415b85acef810000000083106119b7576d04ee2d6d415b85acef810000000083816119ad576119ac6125e6565b5b0492506020810190505b662386f26fc1000083106119e657662386f26fc1000083816119dc576119db6125e6565b5b0492506010810190505b6305f5e1008310611a0f576305f5e1008381611a0557611a046125e6565b5b0492506008810190505b6127108310611a34576127108381611a2a57611a296125e6565b5b0492506004810190505b60648310611a575760648381611a4d57611a4c6125e6565b5b0492506002810190505b600a8310611a66576001810190505b80915050919050565b60007f01ffc9a7000000000000000000000000000000000000000000000000000000007bffffffffffffffffffffffffffffffffffffffffffffffffffffffff1916827bffffffffffffffffffffffffffffffffffffffffffffffffffffffff1916149050919050565b600073ffffffffffffffffffffffffffffffffffffffff168273ffffffffffffffffffffffffffffffffffffffff161415611b49576040517f08c379a0000000000000000000000000000000000000000000000000000000008152600401611b4090612bf3565b60405180910390fd5b611b52816116dd565b15611b92576040517f08c379a0000000000000000000000000000000000000000000000000000000008152600401611b8990612c5f565b60405180910390fd5b611ba060008383600161171e565b611ba9816116dd565b15611be9576040517f08c379a0000000000000000000000000000000000000000000000000000000008152600401611be090612c5f565b60405180910390fd5b6001600560008473ffffffffffffffffffffffffffffffffffffffff1673ffffffffffffffffffffffffffffffffffffffff16815260200190815260200160002060008282540192505081905550816004600083815260200190815260200160002060006101000a81548173ffffffffffffffffffffffffffffffffffffffff021916908373ffffffffffffffffffffffffffffffffffffffff160217905550808273ffffffffffffffffffffffffffffffffffffffff16600073ffffffffffffffffffffffffffffffffffffffff167fddf252ad1be2c89b69c2b068fc378daa952ba7f163c4a11628f55a4df523b3ef60405160405180910390a4611cf3600083836001611724565b5050565b6000808273ffffffffffffffffffffffffffffffffffffffff163b119050919050565b6000604051905090565b600080fd5b600080fd5b60007fffffffff0000000000000000000000000000000000000000000000000000000082169050919050565b611d6381611d2e565b8114611d6e57600080fd5b50565b600081359050611d8081611d5a565b92915050565b600060208284031215611d9c57611d9b611d24565b5b6000611daa84828501611d71565b91505092915050565b60008115159050919050565b611dc881611db3565b82525050565b6000602082019050611de36000830184611dbf565b92915050565b600081519050919050565b600082825260208201905092915050565b60005b83811015611e23578082015181840152602081019050611e08565b83811115611e32576000848401525b50505050565b6000601f19601f8301169050919050565b6000611e5482611de9565b611e5e8185611df4565b9350611e6e818560208601611e05565b611e7781611e38565b840191505092915050565b60006020820190508181036000830152611e9c8184611e49565b905092915050565b6000819050919050565b611eb781611ea4565b8114611ec257600080fd5b50565b600081359050611ed481611eae565b92915050565b600060208284031215611ef057611eef611d24565b5b6000611efe84828501611ec5565b91505092915050565b600073ffffffffffffffffffffffffffffffffffffffff82169050919050565b6000611f3282611f07565b9050919050565b611f4281611f27565b82525050565b6000602082019050611f5d6000830184611f39565b92915050565b611f6c81611f27565b8114611f7757600080fd5b50565b600081359050611f8981611f63565b92915050565b60008060408385031215611fa657611fa5611d24565b5b6000611fb485828601611f7a565b9250506020611fc585828601611ec5565b9150509250929050565b600080600060608486031215611fe857611fe7611d24565b5b6000611ff686828701611f7a565b935050602061200786828701611f7a565b925050604061201886828701611ec5565b9150509250925092565b6000806040838503121561203957612038611d24565b5b600061204785828601611ec5565b925050602061205885828601611ec5565b9150509250929050565b61206b81611ea4565b82525050565b60006040820190506120866000830185611f39565b6120936020830184612062565b9392505050565b6000602082840312156120b0576120af611d24565b5b60006120be84828501611f7a565b91505092915050565b60006020820190506120dc6000830184612062565b92915050565b6120eb81611db3565b81146120f657600080fd5b50565b600081359050612108816120e2565b92915050565b6000806040838503121561212557612124611d24565b5b600061213385828601611f7a565b9250506020612144858286016120f9565b9150509250929050565b600080fd5b600080fd5b7f4e487b7100000000000000000000000000000000000000000000000000000000600052604160045260246000fd5b61219082611e38565b810181811067ffffffffffffffff821117156121af576121ae612158565b5b80604052505050565b60006121c2611d1a565b90506121ce8282612187565b919050565b600067ffffffffffffffff8211156121ee576121ed612158565b5b6121f782611e38565b9050602081019050919050565b82818337600083830152505050565b6000612226612221846121d3565b6121b8565b90508281526020810184848401111561224257612241612153565b5b61224d848285612204565b509392505050565b600082601f83011261226a5761226961214e565b5b813561227a848260208601612213565b91505092915050565b6000806000806080858703121561229d5761229c611d24565b5b60006122ab87828801611f7a565b94505060206122bc87828801611f7a565b93505060406122cd87828801611ec5565b925050606085013567ffffffffffffffff8111156122ee576122ed611d29565b5b6122fa87828801612255565b91505092959194509250565b6000806040838503121561231d5761231c611d24565b5b600061232b85828601611f7a565b925050602061233c85828601611f7a565b9150509250929050565b7f4e487b7100000000000000000000000000000000000000000000000000000000600052602260045260246000fd5b6000600282049050600182168061238d57607f821691505b602082108114156123a1576123a0612346565b5b50919050565b7f4552433732313a20617070726f76616c20746f2063757272656e74206f776e6560008201527f7200000000000000000000000000000000000000000000000000000000000000602082015250565b6000612403602183611df4565b915061240e826123a7565b604082019050919050565b60006020820190508181036000830152612432816123f6565b9050919050565b7f4552433732313a20617070726f76652063616c6c6572206973206e6f7420746f60008201527f6b656e206f776e6572206f7220617070726f76656420666f7220616c6c000000602082015250565b6000612495603d83611df4565b91506124a082612439565b604082019050919050565b600060208201905081810360008301526124c481612488565b9050919050565b7f4552433732313a2063616c6c6572206973206e6f7420746f6b656e206f776e6560008201527f72206f7220617070726f76656400000000000000000000000000000000000000602082015250565b6000612527602d83611df4565b9150612532826124cb565b604082019050919050565b600060208201905081810360008301526125568161251a565b9050919050565b7f4e487b7100000000000000000000000000000000000000000000000000000000600052601160045260246000fd5b600061259782611ea4565b91506125a283611ea4565b9250817fffffffffffffffffffffffffffffffffffffffffffffffffffffffffffffffff04831182151516156125db576125da61255d565b5b828202905092915050565b7f4e487b7100000000000000000000000000000000000000000000000000000000600052601260045260246000fd5b600061262082611ea4565b915061262b83611ea4565b92508261263b5761263a6125e6565b5b828204905092915050565b7f4552433732313a20696e76616c696420746f6b656e2049440000000000000000600082015250565b600061267c601883611df4565b915061268782612646565b602082019050919050565b600060208201905081810360008301526126ab8161266f565b9050919050565b7f4552433732313a2061646472657373207a65726f206973206e6f74206120766160008201527f6c6964206f776e65720000000000000000000000000000000000000000000000602082015250565b600061270e602983611df4565b9150612719826126b2565b604082019050919050565b6000602082019050818103600083015261273d81612701565b9050919050565b600081905092915050565b600061275a82611de9565b6127648185612744565b9350612774818560208601611e05565b80840191505092915050565b600061278c828561274f565b9150612798828461274f565b91508190509392505050565b7f4f776e61626c653a206e6577206f776e657220697320746865207a65726f206160008201527f6464726573730000000000000000000000000000000000000000000000000000602082015250565b6000612800602683611df4565b915061280b826127a4565b604082019050919050565b6000602082019050818103600083015261282f816127f3565b9050919050565b7f4552433732313a207472616e736665722066726f6d20696e636f72726563742060008201527f6f776e6572000000000000000000000000000000000000000000000000000000602082015250565b6000612892602583611df4565b915061289d82612836565b604082019050919050565b600060208201905081810360008301526128c181612885565b9050919050565b7f4552433732313a207472616e7366657220746f20746865207a65726f2061646460008201527f7265737300000000000000000000000000000000000000000000000000000000602082015250565b6000612924602483611df4565b915061292f826128c8565b604082019050919050565b6000602082019050818103600083015261295381612917565b9050919050565b7f4f776e61626c653a2063616c6c6572206973206e6f7420746865206f776e6572600082015250565b6000612990602083611df4565b915061299b8261295a565b602082019050919050565b600060208201905081810360008301526129bf81612983565b9050919050565b7f4552433732313a20617070726f766520746f2063616c6c657200000000000000600082015250565b60006129fc601983611df4565b9150612a07826129c6565b602082019050919050565b60006020820190508181036000830152612a2b816129ef565b9050919050565b7f4552433732313a207472616e7366657220746f206e6f6e20455243373231526560008201527f63656976657220696d706c656d656e7465720000000000000000000000000000602082015250565b6000612a8e603283611df4565b9150612a9982612a32565b604082019050919050565b60006020820190508181036000830152612abd81612a81565b9050919050565b600081519050919050565b600082825260208201905092915050565b6000612aeb82612ac4565b612af58185612acf565b9350612b05818560208601611e05565b612b0e81611e38565b840191505092915050565b6000608082019050612b2e6000830187611f39565b612b3b6020830186611f39565b612b486040830185612062565b8181036060830152612b5a8184612ae0565b905095945050505050565b600081519050612b7481611d5a565b92915050565b600060208284031215612b9057612b8f611d24565b5b6000612b9e84828501612b65565b91505092915050565b7f4552433732313a206d696e7420746f20746865207a65726f2061646472657373600082015250565b6000612bdd602083611df4565b9150612be882612ba7565b602082019050919050565b60006020820190508181036000830152612c0c81612bd0565b9050919050565b7f4552433732313a20746f6b656e20616c7265616479206d696e74656400000000600082015250565b6000612c49601c83611df4565b9150612c5482612c13565b602082019050919050565b60006020820190508181036000830152612c7881612c3c565b905091905056fea2646970667358221220f9860961bc7de52ad02e4a61375e8e5ae898a100878dbc4de24d7a53d6cd141f64736f6c63430008080033",
  "linkReferences": {},
  "deployedLinkReferences": {}
}