{
  "_format": "hh-sol-artifact-1",
  "contractName": "NFT",
  "sourceName": "contracts/NFT.sol",
  "abi": [
    {
      "inputs": [],
      "stateMutability": "nonpayable",
      "type": "constructor"
    },
    {
      "anonymous": false,
      "inputs": [
        {
          "indexed": true,
          "internalType": "address",
          "name": "owner",
          "type": "address"
        },
        {
          "indexed": true,
          "internalType": "address",
          "name": "approved",
          "type": "address"
        },
        {
          "indexed": true,
          "internalType": "uint256",
          "name": "tokenId",
          "type": "uint256"
        }
      ],
      "name": "Approval",
      "type": "event"
    },
    {
      "anonymous": false,
      "inputs": [
        {
          "indexed": true,
          "internalType": "address",
          "name": "owner",
          "type": "address"
        },
        {
          "indexed": true,
          "internalType": "address",
          "name": "operator",
          "type": "address"
        },
        {
          "indexed": false,
          "internalType": "bool",
          "name": "approved",
          "type": "bool"
        }
      ],
      "name": "ApprovalForAll",
      "type": "event"
    },
    {
      "anonymous": false,
      "inputs": [
        {
          "indexed": true,
          "internalType": "address",
          "name": "previousOwner",
          "type": "address"
        },
        {
          "indexed": true,
          "internalType": "address",
          "name": "newOwner",
          "type": "address"
        }
      ],
      "name": "OwnershipTransferred",
      "type": "event"
    },
    {
      "anonymous": false,
      "inputs": [
        {
          "indexed": true,
          "internalType": "address",
          "name": "from",
          "type": "address"
        },
        {
          "indexed": true,
          "internalType": "address",
          "name": "to",
          "type": "address"
        },
        {
          "indexed": true,
          "internalType": "uint256",
          "name": "tokenId",
          "type": "uint256"
        }
      ],
      "name": "Transfer",
      "type": "event"
    },
    {
      "inputs": [
        {
          "internalType": "address",
          "name": "to",
          "type": "address"
        },
        {
          "internalType": "uint256",
          "name": "tokenId",
          "type": "uint256"
        }
      ],
      "name": "approve",
      "outputs": [],
      "stateMutability": "nonpayable",
      "type": "function"
    },
    {
      "inputs": [
        {
          "internalType": "address",
          "name": "owner",
          "type": "address"
        }
      ],
      "name": "balanceOf",
      "outputs": [
        {
          "internalType": "uint256",
          "name": "",
          "type": "uint256"
        }
      ],
      "stateMutability": "view",
      "type": "function"
    },
    {
      "inputs": [
        {
          "internalType": "uint256",
          "name": "tokenId",
          "type": "uint256"
        }
      ],
      "name": "getApproved",
      "outputs": [
        {
          "internalType": "address",
          "name": "",
          "type": "address"
        }
      ],
      "stateMutability": "view",
      "type": "function"
    },
    {
      "inputs": [
        {
          "internalType": "address",
          "name": "owner",
          "type": "address"
        },
        {
          "internalType": "address",
          "name": "operator",
          "type": "address"
        }
      ],
      "name": "isApprovedForAll",
      "outputs": [
        {
          "internalType": "bool",
          "name": "",
          "type": "bool"
        }
      ],
      "stateMutability": "view",
      "type": "function"
    },
    {
      "inputs": [],
      "name": "name",
      "outputs": [
        {
          "internalType": "string",
          "name": "",
          "type": "string"
        }
      ],
      "stateMutability": "view",
      "type": "function"
    },
    {
      "inputs": [],
      "name": "owner",
      "outputs": [
        {
          "internalType": "address",
          "name": "",
          "type": "address"
        }
      ],
      "stateMutability": "view",
      "type": "function"
    },
    {
      "inputs": [
        {
          "internalType": "uint256",
          "name": "tokenId",
          "type": "uint256"
        }
      ],
      "name": "ownerOf",
      "outputs": [
        {
          "internalType": "address",
          "name": "",
          "type": "address"
        }
      ],
      "stateMutability": "view",
      "type": "function"
    },
    {
      "inputs": [],
      "name": "renounceOwnership",
      "outputs": [],
      "stateMutability": "nonpayable",
      "type": "function"
    },
    {
      "inputs": [
        {
          "internalType": "uint256",
          "name": "_tokenId",
          "type": "uint256"
        },
        {
          "internalType": "uint256",
          "name": "_salePrice",
          "type": "uint256"
        }
      ],
      "name": "royaltyInfo",
      "outputs": [
        {
          "internalType": "address",
          "name": "",
          "type": "address"
        },
        {
          "internalType": "uint256",
          "name": "",
          "type": "uint256"
        }
      ],
      "stateMutability": "view",
      "type": "function"
    },
    {
      "inputs": [
        {
          "internalType": "address",
          "name": "account",
          "type": "address"
        },
        {
          "internalType": "uint256",
          "name": "tokenId",
          "type": "uint256"
        }
      ],
      "name": "safeMint",
      "outputs": [],
      "stateMutability": "nonpayable",
      "type": "function"
    },
    {
      "inputs": [
        {
          "internalType": "address",
          "name": "from",
          "type": "address"
        },
        {
          "internalType": "address",
          "name": "to",
          "type": "address"
        },
        {
          "internalType": "uint256",
          "name": "tokenId",
          "type": "uint256"
        }
      ],
      "name": "safeTransferFrom",
      "outputs": [],
      "stateMutability": "nonpayable",
      "type": "function"
    },
    {
      "inputs": [
        {
          "internalType": "address",
          "name": "from",
          "type": "address"
        },
        {
          "internalType": "address",
          "name": "to",
          "type": "address"
        },
        {
          "internalType": "uint256",
          "name": "tokenId",
          "type": "uint256"
        },
        {
          "internalType": "bytes",
          "name": "data",
          "type": "bytes"
        }
      ],
      "name": "safeTransferFrom",
      "outputs": [],
      "stateMutability": "nonpayable",
      "type": "function"
    },
    {
      "inputs": [
        {
          "internalType": "address",
          "name": "operator",
          "type": "address"
        },
        {
          "internalType": "bool",
          "name": "approved",
          "type": "bool"
        }
      ],
      "name": "setApprovalForAll",
      "outputs": [],
      "stateMutability": "nonpayable",
      "type": "function"
    },
    {
      "inputs": [
        {
          "internalType": "bytes4",
          "name": "interfaceId",
          "type": "bytes4"
        }
      ],
      "name": "supportsInterface",
      "outputs": [
        {
          "internalType": "bool",
          "name": "",
          "type": "bool"
        }
      ],
      "stateMutability": "view",
      "type": "function"
    },
    {
      "inputs": [],
      "name": "symbol",
      "outputs": [
        {
          "internalType": "string",
          "name": "",
          "type": "string"
        }
      ],
      "stateMutability": "view",
      "type": "function"
    },
    {
      "inputs": [
        {
          "internalType": "uint256",
          "name": "tokenId",
          "type": "uint256"
        }
      ],
      "name": "tokenURI",
      "outputs": [
        {
          "internalType": "string",
          "name": "",
          "type": "string"
        }
      ],
      "stateMutability": "view",
      "type": "function"
    },
    {
      "inputs": [
        {
          "internalType": "address",
          "name": "from",
          "type": "address"
        },
        {
          "internalType": "address",
          "name": "to",
          "type": "address"
        },
        {
          "internalType": "uint256",
          "name": "tokenId",
          "type": "uint256"
        }
      ],
      "name": "transferFrom",
      "outputs": [],
      "stateMutability": "nonpayable",
      "type": "function"
    },
    {
      "inputs": [
        {
          "internalType": "address",
          "name": "newOwner",
          "type": "address"
        }
      ],
      "name": "transferOwnership",
      "outputs": [],
      "stateMutability": "nonpayable",
      "type": "function"
    }
  ],
  "bytecode": "0x60806040523480156200001157600080fd5b506040805180820182526009815268115490cdcc8c53919560ba1b60208083019182528351808501909452600384526213919560ea1b9084015281519192916200005e91600291620000ed565b50805162000074906003906020840190620000ed565b505050620000916200008b6200009760201b60201c565b6200009b565b620001d0565b3390565b600880546001600160a01b038381166001600160a01b0319831681179093556040519116919082907f8be0079c531659141344cd1fd0a4f28419497f9722a3daafe3b4186f6b6457e090600090a35050565b828054620000fb9062000193565b90600052602060002090601f0160209004810192826200011f57600085556200016a565b82601f106200013a57805160ff19168380011785556200016a565b828001600101855582156200016a579182015b828111156200016a5782518255916020019190600101906200014d565b50620001789291506200017c565b5090565b5b808211156200017857600081556001016200017d565b600181811c90821680620001a857607f821691505b60208210811415620001ca57634e487b7160e01b600052602260045260246000fd5b50919050565b61163d80620001e06000396000f3fe608060405234801561001057600080fd5b50600436106101165760003560e01c8063715018a6116100a2578063a22cb46511610071578063a22cb46514610258578063b88d4fde1461026b578063c87b56dd1461027e578063e985e9c514610291578063f2fde38b146102cd57600080fd5b8063715018a6146102245780638da5cb5b1461022c57806395d89b411461023d578063a14481941461024557600080fd5b806323b872dd116100e957806323b872dd146101985780632a55205a146101ab57806342842e0e146101dd5780636352211e146101f057806370a082311461020357600080fd5b806301ffc9a71461011b57806306fdde0314610143578063081812fc14610158578063095ea7b314610183575b600080fd5b61012e61012936600461114f565b6102e0565b60405190151581526020015b60405180910390f35b61014b6102f1565b60405161013a91906111c4565b61016b6101663660046111d7565b610383565b6040516001600160a01b03909116815260200161013a565b61019661019136600461120c565b6103aa565b005b6101966101a6366004611236565b6104c5565b6101be6101b9366004611272565b6104f6565b604080516001600160a01b03909316835260208301919091520161013a565b6101966101eb366004611236565b6105a2565b61016b6101fe3660046111d7565b6105bd565b610216610211366004611294565b61061d565b60405190815260200161013a565b6101966106a3565b6008546001600160a01b031661016b565b61014b6106b7565b61019661025336600461120c565b6106c6565b6101966102663660046112af565b6106dc565b610196610279366004611301565b6106e7565b61014b61028c3660046111d7565b61071f565b61012e61029f3660046113dd565b6001600160a01b03918216600090815260076020908152604080832093909416825291909152205460ff1690565b6101966102db366004611294565b610793565b60006102eb8261080c565b92915050565b60606002805461030090611410565b80601f016020809104026020016040519081016040528092919081815260200182805461032c90611410565b80156103795780601f1061034e57610100808354040283529160200191610379565b820191906000526020600020905b81548152906001019060200180831161035c57829003601f168201915b5050505050905090565b600061038e8261084c565b506000908152600660205260409020546001600160a01b031690565b60006103b5826105bd565b9050806001600160a01b0316836001600160a01b031614156104285760405162461bcd60e51b815260206004820152602160248201527f4552433732313a20617070726f76616c20746f2063757272656e74206f776e656044820152603960f91b60648201526084015b60405180910390fd5b336001600160a01b03821614806104445750610444813361029f565b6104b65760405162461bcd60e51b815260206004820152603d60248201527f4552433732313a20617070726f76652063616c6c6572206973206e6f7420746f60448201527f6b656e206f776e6572206f7220617070726f76656420666f7220616c6c000000606482015260840161041f565b6104c083836108ab565b505050565b6104cf3382610919565b6104eb5760405162461bcd60e51b815260040161041f9061144b565b6104c0838383610998565b60008281526001602090815260408083208151808301909252546001600160a01b038116808352600160a01b9091046001600160601b031692820192909252829161056b5750604080518082019091526000546001600160a01b0381168252600160a01b90046001600160601b031660208201525b60208101516000906127109061058a906001600160601b031687611498565b61059491906114c5565b915196919550909350505050565b6104c0838383604051806020016040528060008152506106e7565b6000818152600460205260408120546001600160a01b0316806102eb5760405162461bcd60e51b8152602060048201526018602482015277115490cdcc8c4e881a5b9d985b1a59081d1bdad95b88125160421b604482015260640161041f565b60006001600160a01b0382166106875760405162461bcd60e51b815260206004820152602960248201527f4552433732313a2061646472657373207a65726f206973206e6f7420612076616044820152683634b21037bbb732b960b91b606482015260840161041f565b506001600160a01b031660009081526005602052604090205490565b6106ab610afc565b6106b56000610b56565b565b60606003805461030090611410565b6106ce610afc565b6106d88282610ba8565b5050565b6106d8338383610bc2565b6106f13383610919565b61070d5760405162461bcd60e51b815260040161041f9061144b565b61071984848484610c91565b50505050565b606061072a8261084c565b600061074160408051602081019091526000815290565b90506000815111610761576040518060200160405280600081525061078c565b8061076b84610cc4565b60405160200161077c9291906114e7565b6040516020818303038152906040525b9392505050565b61079b610afc565b6001600160a01b0381166108005760405162461bcd60e51b815260206004820152602660248201527f4f776e61626c653a206e6577206f776e657220697320746865207a65726f206160448201526564647265737360d01b606482015260840161041f565b61080981610b56565b50565b60006001600160e01b031982166380ac58cd60e01b148061083d57506001600160e01b03198216635b5e139f60e01b145b806102eb57506102eb82610d61565b6000818152600460205260409020546001600160a01b03166108095760405162461bcd60e51b8152602060048201526018602482015277115490cdcc8c4e881a5b9d985b1a59081d1bdad95b88125160421b604482015260640161041f565b600081815260066020526040902080546001600160a01b0319166001600160a01b03841690811790915581906108e0826105bd565b6001600160a01b03167f8c5be1e5ebec7d5bd14f71427d1e84f3dd0314c0f7b2291e5b200ac8c7c3b92560405160405180910390a45050565b600080610925836105bd565b9050806001600160a01b0316846001600160a01b0316148061096c57506001600160a01b0380821660009081526007602090815260408083209388168352929052205460ff165b806109905750836001600160a01b031661098584610383565b6001600160a01b0316145b949350505050565b826001600160a01b03166109ab826105bd565b6001600160a01b0316146109d15760405162461bcd60e51b815260040161041f90611516565b6001600160a01b038216610a335760405162461bcd60e51b8152602060048201526024808201527f4552433732313a207472616e7366657220746f20746865207a65726f206164646044820152637265737360e01b606482015260840161041f565b826001600160a01b0316610a46826105bd565b6001600160a01b031614610a6c5760405162461bcd60e51b815260040161041f90611516565b600081815260066020908152604080832080546001600160a01b03199081169091556001600160a01b0387811680865260058552838620805460001901905590871680865283862080546001019055868652600490945282852080549092168417909155905184937fddf252ad1be2c89b69c2b068fc378daa952ba7f163c4a11628f55a4df523b3ef91a4505050565b6008546001600160a01b031633146106b55760405162461bcd60e51b815260206004820181905260248201527f4f776e61626c653a2063616c6c6572206973206e6f7420746865206f776e6572604482015260640161041f565b600880546001600160a01b038381166001600160a01b0319831681179093556040519116919082907f8be0079c531659141344cd1fd0a4f28419497f9722a3daafe3b4186f6b6457e090600090a35050565b6106d8828260405180602001604052806000815250610d96565b816001600160a01b0316836001600160a01b03161415610c245760405162461bcd60e51b815260206004820152601960248201527f4552433732313a20617070726f766520746f2063616c6c657200000000000000604482015260640161041f565b6001600160a01b03838116600081815260076020908152604080832094871680845294825291829020805460ff191686151590811790915591519182527f17307eab39ab6107e8899845ad3d59bd9653f200f220920489ca2b5937696c31910160405180910390a3505050565b610c9c848484610998565b610ca884848484610dc9565b6107195760405162461bcd60e51b815260040161041f9061155b565b60606000610cd183610ed6565b600101905060008167ffffffffffffffff811115610cf157610cf16112eb565b6040519080825280601f01601f191660200182016040528015610d1b576020820181803683370190505b5090508181016020015b600019016f181899199a1a9b1b9c1cb0b131b232b360811b600a86061a8153600a8504945084610d5457610d59565b610d25565b509392505050565b60006001600160e01b0319821663152a902d60e11b14806102eb57506301ffc9a760e01b6001600160e01b03198316146102eb565b610da08383610fae565b610dad6000848484610dc9565b6104c05760405162461bcd60e51b815260040161041f9061155b565b60006001600160a01b0384163b15610ecb57604051630a85bd0160e11b81526001600160a01b0385169063150b7a0290610e0d9033908990889088906004016115ad565b602060405180830381600087803b158015610e2757600080fd5b505af1925050508015610e57575060408051601f3d908101601f19168201909252610e54918101906115ea565b60015b610eb1573d808015610e85576040519150601f19603f3d011682016040523d82523d6000602084013e610e8a565b606091505b508051610ea95760405162461bcd60e51b815260040161041f9061155b565b805181602001fd5b6001600160e01b031916630a85bd0160e11b149050610990565b506001949350505050565b60008072184f03e93ff9f4daa797ed6e38ed64bf6a1f0160401b8310610f155772184f03e93ff9f4daa797ed6e38ed64bf6a1f0160401b830492506040015b6d04ee2d6d415b85acef81000000008310610f41576d04ee2d6d415b85acef8100000000830492506020015b662386f26fc100008310610f5f57662386f26fc10000830492506010015b6305f5e1008310610f77576305f5e100830492506008015b6127108310610f8b57612710830492506004015b60648310610f9d576064830492506002015b600a83106102eb5760010192915050565b6001600160a01b0382166110045760405162461bcd60e51b815260206004820181905260248201527f4552433732313a206d696e7420746f20746865207a65726f2061646472657373604482015260640161041f565b6000818152600460205260409020546001600160a01b0316156110695760405162461bcd60e51b815260206004820152601c60248201527f4552433732313a20746f6b656e20616c7265616479206d696e74656400000000604482015260640161041f565b6000818152600460205260409020546001600160a01b0316156110ce5760405162461bcd60e51b815260206004820152601c60248201527f4552433732313a20746f6b656e20616c7265616479206d696e74656400000000604482015260640161041f565b6001600160a01b038216600081815260056020908152604080832080546001019055848352600490915280822080546001600160a01b0319168417905551839291907fddf252ad1be2c89b69c2b068fc378daa952ba7f163c4a11628f55a4df523b3ef908290a45050565b6001600160e01b03198116811461080957600080fd5b60006020828403121561116157600080fd5b813561078c81611139565b60005b8381101561118757818101518382015260200161116f565b838111156107195750506000910152565b600081518084526111b081602086016020860161116c565b601f01601f19169290920160200192915050565b60208152600061078c6020830184611198565b6000602082840312156111e957600080fd5b5035919050565b80356001600160a01b038116811461120757600080fd5b919050565b6000806040838503121561121f57600080fd5b611228836111f0565b946020939093013593505050565b60008060006060848603121561124b57600080fd5b611254846111f0565b9250611262602085016111f0565b9150604084013590509250925092565b6000806040838503121561128557600080fd5b50508035926020909101359150565b6000602082840312156112a657600080fd5b61078c826111f0565b600080604083850312156112c257600080fd5b6112cb836111f0565b9150602083013580151581146112e057600080fd5b809150509250929050565b634e487b7160e01b600052604160045260246000fd5b6000806000806080858703121561131757600080fd5b611320856111f0565b935061132e602086016111f0565b925060408501359150606085013567ffffffffffffffff8082111561135257600080fd5b818701915087601f83011261136657600080fd5b813581811115611378576113786112eb565b604051601f8201601f19908116603f011681019083821181831017156113a0576113a06112eb565b816040528281528a60208487010111156113b957600080fd5b82602086016020830137600060208483010152809550505050505092959194509250565b600080604083850312156113f057600080fd5b6113f9836111f0565b9150611407602084016111f0565b90509250929050565b600181811c9082168061142457607f821691505b6020821081141561144557634e487b7160e01b600052602260045260246000fd5b50919050565b6020808252602d908201527f4552433732313a2063616c6c6572206973206e6f7420746f6b656e206f776e6560408201526c1c881bdc88185c1c1c9bdd9959609a1b606082015260800190565b60008160001904831182151516156114c057634e487b7160e01b600052601160045260246000fd5b500290565b6000826114e257634e487b7160e01b600052601260045260246000fd5b500490565b600083516114f981846020880161116c565b83519083019061150d81836020880161116c565b01949350505050565b60208082526025908201527f4552433732313a207472616e736665722066726f6d20696e636f72726563742060408201526437bbb732b960d91b606082015260800190565b60208082526032908201527f4552433732313a207472616e7366657220746f206e6f6e20455243373231526560408201527131b2b4bb32b91034b6b83632b6b2b73a32b960711b606082015260800190565b6001600160a01b03858116825284166020820152604081018390526080606082018190526000906115e090830184611198565b9695505050505050565b6000602082840312156115fc57600080fd5b815161078c8161113956fea2646970667358221220ccd5110313e9282e1801370ec95fd5553bbb14e3c1fa497b6430dbceeeb6601364736f6c63430008080033",
  "linkReferences": {},
  "deployedLinkReferences": {}
}