{
  "_format": "hh-sol-artifact-1",
  "contractName": "MyNFT",
  "sourceName": "contracts/MyNFT.sol",
  "abi": [
    {
      "inputs": [],
      "stateMutability": "nonpayable",
      "type": "constructor"
    },
    {
      "anonymous": false,
      "inputs": [
        {
          "indexed": true,
          "internalType": "address",
          "name": "account",
          "type": "address"
        },
        {
          "indexed": true,
          "internalType": "address",
          "name": "operator",
          "type": "address"
        },
        {
          "indexed": false,
          "internalType": "bool",
          "name": "approved",
          "type": "bool"
        }
      ],
      "name": "ApprovalForAll",
      "type": "event"
    },
    {
      "anonymous": false,
      "inputs": [
        {
          "indexed": true,
          "internalType": "address",
          "name": "operator",
          "type": "address"
        },
        {
          "indexed": true,
          "internalType": "address",
          "name": "from",
          "type": "address"
        },
        {
          "indexed": true,
          "internalType": "address",
          "name": "to",
          "type": "address"
        },
        {
          "indexed": false,
          "internalType": "uint256[]",
          "name": "ids",
          "type": "uint256[]"
        },
        {
          "indexed": false,
          "internalType": "uint256[]",
          "name": "values",
          "type": "uint256[]"
        }
      ],
      "name": "TransferBatch",
      "type": "event"
    },
    {
      "anonymous": false,
      "inputs": [
        {
          "indexed": true,
          "internalType": "address",
          "name": "operator",
          "type": "address"
        },
        {
          "indexed": true,
          "internalType": "address",
          "name": "from",
          "type": "address"
        },
        {
          "indexed": true,
          "internalType": "address",
          "name": "to",
          "type": "address"
        },
        {
          "indexed": false,
          "internalType": "uint256",
          "name": "id",
          "type": "uint256"
        },
        {
          "indexed": false,
          "internalType": "uint256",
          "name": "value",
          "type": "uint256"
        }
      ],
      "name": "TransferSingle",
      "type": "event"
    },
    {
      "anonymous": false,
      "inputs": [
        {
          "indexed": false,
          "internalType": "string",
          "name": "value",
          "type": "string"
        },
        {
          "indexed": true,
          "internalType": "uint256",
          "name": "id",
          "type": "uint256"
        }
      ],
      "name": "URI",
      "type": "event"
    },
    {
      "inputs": [],
      "name": "Diamond",
      "outputs": [
        {
          "internalType": "uint256",
          "name": "",
          "type": "uint256"
        }
      ],
      "stateMutability": "view",
      "type": "function"
    },
    {
      "inputs": [],
      "name": "Gold",
      "outputs": [
        {
          "internalType": "uint256",
          "name": "",
          "type": "uint256"
        }
      ],
      "stateMutability": "view",
      "type": "function"
    },
    {
      "inputs": [],
      "name": "Silver",
      "outputs": [
        {
          "internalType": "uint256",
          "name": "",
          "type": "uint256"
        }
      ],
      "stateMutability": "view",
      "type": "function"
    },
    {
      "inputs": [
        {
          "internalType": "address",
          "name": "account",
          "type": "address"
        },
        {
          "internalType": "uint256",
          "name": "id",
          "type": "uint256"
        }
      ],
      "name": "balanceOf",
      "outputs": [
        {
          "internalType": "uint256",
          "name": "",
          "type": "uint256"
        }
      ],
      "stateMutability": "view",
      "type": "function"
    },
    {
      "inputs": [
        {
          "internalType": "address[]",
          "name": "accounts",
          "type": "address[]"
        },
        {
          "internalType": "uint256[]",
          "name": "ids",
          "type": "uint256[]"
        }
      ],
      "name": "balanceOfBatch",
      "outputs": [
        {
          "internalType": "uint256[]",
          "name": "",
          "type": "uint256[]"
        }
      ],
      "stateMutability": "view",
      "type": "function"
    },
    {
      "inputs": [
        {
          "internalType": "address",
          "name": "account",
          "type": "address"
        },
        {
          "internalType": "address",
          "name": "operator",
          "type": "address"
        }
      ],
      "name": "isApprovedForAll",
      "outputs": [
        {
          "internalType": "bool",
          "name": "",
          "type": "bool"
        }
      ],
      "stateMutability": "view",
      "type": "function"
    },
    {
      "inputs": [
        {
          "internalType": "address",
          "name": "from",
          "type": "address"
        },
        {
          "internalType": "address",
          "name": "to",
          "type": "address"
        },
        {
          "internalType": "uint256[]",
          "name": "ids",
          "type": "uint256[]"
        },
        {
          "internalType": "uint256[]",
          "name": "amounts",
          "type": "uint256[]"
        },
        {
          "internalType": "bytes",
          "name": "data",
          "type": "bytes"
        }
      ],
      "name": "safeBatchTransferFrom",
      "outputs": [],
      "stateMutability": "nonpayable",
      "type": "function"
    },
    {
      "inputs": [
        {
          "internalType": "address",
          "name": "from",
          "type": "address"
        },
        {
          "internalType": "address",
          "name": "to",
          "type": "address"
        },
        {
          "internalType": "uint256",
          "name": "id",
          "type": "uint256"
        },
        {
          "internalType": "uint256",
          "name": "amount",
          "type": "uint256"
        },
        {
          "internalType": "bytes",
          "name": "data",
          "type": "bytes"
        }
      ],
      "name": "safeTransferFrom",
      "outputs": [],
      "stateMutability": "nonpayable",
      "type": "function"
    },
    {
      "inputs": [
        {
          "internalType": "address",
          "name": "operator",
          "type": "address"
        },
        {
          "internalType": "bool",
          "name": "approved",
          "type": "bool"
        }
      ],
      "name": "setApprovalForAll",
      "outputs": [],
      "stateMutability": "nonpayable",
      "type": "function"
    },
    {
      "inputs": [
        {
          "internalType": "bytes4",
          "name": "interfaceId",
          "type": "bytes4"
        }
      ],
      "name": "supportsInterface",
      "outputs": [
        {
          "internalType": "bool",
          "name": "",
          "type": "bool"
        }
      ],
      "stateMutability": "view",
      "type": "function"
    },
    {
      "inputs": [
        {
          "internalType": "uint256",
          "name": "",
          "type": "uint256"
        }
      ],
      "name": "uri",
      "outputs": [
        {
          "internalType": "string",
          "name": "",
          "type": "string"
        }
      ],
      "stateMutability": "view",
      "type": "function"
    }
  ],
  "bytecode": "0x60806040523480156200001157600080fd5b506040518060400160405280600581526020017f4d794e465400000000000000000000000000000000000000000000000000000081525062000059816200019260201b60201c565b5062000076672604e9fbb8b87c7060c01b620001ae60201b60201c565b62000092677724a6346da8d60960c01b620001ae60201b60201c565b620000ae67428b8b77e24b892e60c01b620001ae60201b60201c565b620000d3336000600160405180602001604052806000815250620001b160201b60201c565b620000ef6706f95db52e45057660c01b620001ae60201b60201c565b6200010b67df78936dce83166160c01b620001ae60201b60201c565b6200012f3360018060405180602001604052806000815250620001b160201b60201c565b6200014b67da81afd32422128760c01b620001ae60201b60201c565b6200016767ae623aa51335153260c01b620001ae60201b60201c565b6200018c336002600160405180602001604052806000815250620001b160201b60201c565b62000de4565b8060029080519060200190620001aa9291906200065f565b5050565b50565b600073ffffffffffffffffffffffffffffffffffffffff168473ffffffffffffffffffffffffffffffffffffffff16141562000224576040517f08c379a00000000000000000000000000000000000000000000000000000000081526004016200021b9062000796565b60405180910390fd5b6000620002366200039960201b60201c565b905060006200024b85620003a160201b60201c565b905060006200026085620003a160201b60201c565b905062000279836000898585896200042260201b60201c565b8460008088815260200190815260200160002060008973ffffffffffffffffffffffffffffffffffffffff1673ffffffffffffffffffffffffffffffffffffffff1681526020019081526020016000206000828254620002da9190620007f1565b925050819055508673ffffffffffffffffffffffffffffffffffffffff16600073ffffffffffffffffffffffffffffffffffffffff168473ffffffffffffffffffffffffffffffffffffffff167fc3d58168c5ae7397731d063d5bbf3d657854427343f4c083240f7aacaa2d0f6289896040516200035a9291906200085f565b60405180910390a462000379836000898585896200042a60201b60201c565b62000390836000898989896200043260201b60201c565b50505050505050565b600033905090565b60606000600167ffffffffffffffff811115620003c357620003c26200088c565b5b604051908082528060200260200182016040528015620003f25781602001602082028036833780820191505090505b50905082816000815181106200040d576200040c620008bb565b5b60200260200101818152505080915050919050565b505050505050565b505050505050565b6200045e8473ffffffffffffffffffffffffffffffffffffffff166200063c60201b6200079e1760201c565b1562000634578373ffffffffffffffffffffffffffffffffffffffff1663f23a6e6187878686866040518663ffffffff1660e01b8152600401620004a7959493929190620009d3565b602060405180830381600087803b158015620004c257600080fd5b505af1925050508015620004f657506040513d601f19601f82011682018060405250810190620004f3919062000aa3565b60015b620005a8576200050562000ae2565b806308c379a014156200056957506200051d62000b3d565b806200052a57506200056b565b806040517f08c379a000000000000000000000000000000000000000000000000000000000815260040162000560919062000c2b565b60405180910390fd5b505b6040517f08c379a00000000000000000000000000000000000000000000000000000000081526004016200059f9062000cc5565b60405180910390fd5b63f23a6e6160e01b7bffffffffffffffffffffffffffffffffffffffffffffffffffffffff1916817bffffffffffffffffffffffffffffffffffffffffffffffffffffffff19161462000632576040517f08c379a0000000000000000000000000000000000000000000000000000000008152600401620006299062000d5d565b60405180910390fd5b505b505050505050565b6000808273ffffffffffffffffffffffffffffffffffffffff163b119050919050565b8280546200066d9062000dae565b90600052602060002090601f016020900481019282620006915760008555620006dd565b82601f10620006ac57805160ff1916838001178555620006dd565b82800160010185558215620006dd579182015b82811115620006dc578251825591602001919060010190620006bf565b5b509050620006ec9190620006f0565b5090565b5b808211156200070b576000816000905550600101620006f1565b5090565b600082825260208201905092915050565b7f455243313135353a206d696e7420746f20746865207a65726f2061646472657360008201527f7300000000000000000000000000000000000000000000000000000000000000602082015250565b60006200077e6021836200070f565b91506200078b8262000720565b604082019050919050565b60006020820190508181036000830152620007b1816200076f565b9050919050565b6000819050919050565b7f4e487b7100000000000000000000000000000000000000000000000000000000600052601160045260246000fd5b6000620007fe82620007b8565b91506200080b83620007b8565b9250827fffffffffffffffffffffffffffffffffffffffffffffffffffffffffffffffff03821115620008435762000842620007c2565b5b828201905092915050565b6200085981620007b8565b82525050565b60006040820190506200087660008301856200084e565b6200088560208301846200084e565b9392505050565b7f4e487b7100000000000000000000000000000000000000000000000000000000600052604160045260246000fd5b7f4e487b7100000000000000000000000000000000000000000000000000000000600052603260045260246000fd5b600073ffffffffffffffffffffffffffffffffffffffff82169050919050565b60006200091782620008ea565b9050919050565b62000929816200090a565b82525050565b600081519050919050565b600082825260208201905092915050565b60005b838110156200096b5780820151818401526020810190506200094e565b838111156200097b576000848401525b50505050565b6000601f19601f8301169050919050565b60006200099f826200092f565b620009ab81856200093a565b9350620009bd8185602086016200094b565b620009c88162000981565b840191505092915050565b600060a082019050620009ea60008301886200091e565b620009f960208301876200091e565b62000a0860408301866200084e565b62000a1760608301856200084e565b818103608083015262000a2b818462000992565b90509695505050505050565b6000604051905090565b600080fd5b60007fffffffff0000000000000000000000000000000000000000000000000000000082169050919050565b62000a7d8162000a46565b811462000a8957600080fd5b50565b60008151905062000a9d8162000a72565b92915050565b60006020828403121562000abc5762000abb62000a41565b5b600062000acc8482850162000a8c565b91505092915050565b60008160e01c9050919050565b600060033d111562000b045760046000803e62000b0160005162000ad5565b90505b90565b62000b128262000981565b810181811067ffffffffffffffff8211171562000b345762000b336200088c565b5b80604052505050565b600060443d101562000b4f5762000bdc565b62000b5962000a37565b60043d036004823e80513d602482011167ffffffffffffffff8211171562000b8357505062000bdc565b808201805167ffffffffffffffff81111562000ba3575050505062000bdc565b80602083010160043d03850181111562000bc257505050505062000bdc565b62000bd38260200185018662000b07565b82955050505050505b90565b600081519050919050565b600062000bf78262000bdf565b62000c0381856200070f565b935062000c158185602086016200094b565b62000c208162000981565b840191505092915050565b6000602082019050818103600083015262000c47818462000bea565b905092915050565b7f455243313135353a207472616e7366657220746f206e6f6e2d4552433131353560008201527f526563656976657220696d706c656d656e746572000000000000000000000000602082015250565b600062000cad6034836200070f565b915062000cba8262000c4f565b604082019050919050565b6000602082019050818103600083015262000ce08162000c9e565b9050919050565b7f455243313135353a204552433131353552656365697665722072656a6563746560008201527f6420746f6b656e73000000000000000000000000000000000000000000000000602082015250565b600062000d456028836200070f565b915062000d528262000ce7565b604082019050919050565b6000602082019050818103600083015262000d788162000d36565b9050919050565b7f4e487b7100000000000000000000000000000000000000000000000000000000600052602260045260246000fd5b6000600282049050600182168062000dc757607f821691505b6020821081141562000dde5762000ddd62000d7f565b5b50919050565b6125d88062000df46000396000f3fe608060405234801561001057600080fd5b50600436106100a85760003560e01c80636b7d5205116100715780636b7d520514610189578063a22cb465146101a7578063c8449b65146101c3578063e985e9c5146101e1578063f242432a14610211578063fe2752801461022d576100a8565b8062fdd58e146100ad57806301ffc9a7146100dd5780630e89341c1461010d5780632eb2c2d61461013d5780634e1273f414610159575b600080fd5b6100c760048036038101906100c2919061145e565b61024b565b6040516100d491906114ad565b60405180910390f35b6100f760048036038101906100f29190611520565b610314565b6040516101049190611568565b60405180910390f35b61012760048036038101906101229190611583565b6103f6565b6040516101349190611649565b60405180910390f35b61015760048036038101906101529190611868565b61048a565b005b610173600480360381019061016e91906119fa565b61052b565b6040516101809190611b30565b60405180910390f35b610191610644565b60405161019e91906114ad565b60405180910390f35b6101c160048036038101906101bc9190611b7e565b610649565b005b6101cb61065f565b6040516101d891906114ad565b60405180910390f35b6101fb60048036038101906101f69190611bbe565b610664565b6040516102089190611568565b60405180910390f35b61022b60048036038101906102269190611bfe565b6106f8565b005b610235610799565b60405161024291906114ad565b60405180910390f35b60008073ffffffffffffffffffffffffffffffffffffffff168373ffffffffffffffffffffffffffffffffffffffff1614156102bc576040517f08c379a00000000000000000000000000000000000000000000000000000000081526004016102b390611d07565b60405180910390fd5b60008083815260200190815260200160002060008473ffffffffffffffffffffffffffffffffffffffff1673ffffffffffffffffffffffffffffffffffffffff16815260200190815260200160002054905092915050565b60007fd9b67a26000000000000000000000000000000000000000000000000000000007bffffffffffffffffffffffffffffffffffffffffffffffffffffffff1916827bffffffffffffffffffffffffffffffffffffffffffffffffffffffff191614806103df57507f0e89341c000000000000000000000000000000000000000000000000000000007bffffffffffffffffffffffffffffffffffffffffffffffffffffffff1916827bffffffffffffffffffffffffffffffffffffffffffffffffffffffff1916145b806103ef57506103ee826107c1565b5b9050919050565b60606002805461040590611d56565b80601f016020809104026020016040519081016040528092919081815260200182805461043190611d56565b801561047e5780601f106104535761010080835404028352916020019161047e565b820191906000526020600020905b81548152906001019060200180831161046157829003601f168201915b50505050509050919050565b61049261082b565b73ffffffffffffffffffffffffffffffffffffffff168573ffffffffffffffffffffffffffffffffffffffff1614806104d857506104d7856104d261082b565b610664565b5b610517576040517f08c379a000000000000000000000000000000000000000000000000000000000815260040161050e90611dfa565b60405180910390fd5b6105248585858585610833565b5050505050565b60608151835114610571576040517f08c379a000000000000000000000000000000000000000000000000000000000815260040161056890611e8c565b60405180910390fd5b6000835167ffffffffffffffff81111561058e5761058d611670565b5b6040519080825280602002602001820160405280156105bc5781602001602082028036833780820191505090505b50905060005b8451811015610639576106098582815181106105e1576105e0611eac565b5b60200260200101518583815181106105fc576105fb611eac565b5b602002602001015161024b565b82828151811061061c5761061b611eac565b5b6020026020010181815250508061063290611f0a565b90506105c2565b508091505092915050565b600281565b61065b61065461082b565b8383610b55565b5050565b600081565b6000600160008473ffffffffffffffffffffffffffffffffffffffff1673ffffffffffffffffffffffffffffffffffffffff16815260200190815260200160002060008373ffffffffffffffffffffffffffffffffffffffff1673ffffffffffffffffffffffffffffffffffffffff16815260200190815260200160002060009054906101000a900460ff16905092915050565b61070061082b565b73ffffffffffffffffffffffffffffffffffffffff168573ffffffffffffffffffffffffffffffffffffffff16148061074657506107458561074061082b565b610664565b5b610785576040517f08c379a000000000000000000000000000000000000000000000000000000000815260040161077c90611dfa565b60405180910390fd5b6107928585858585610cc2565b5050505050565b600181565b6000808273ffffffffffffffffffffffffffffffffffffffff163b119050919050565b60007f01ffc9a7000000000000000000000000000000000000000000000000000000007bffffffffffffffffffffffffffffffffffffffffffffffffffffffff1916827bffffffffffffffffffffffffffffffffffffffffffffffffffffffff1916149050919050565b600033905090565b8151835114610877576040517f08c379a000000000000000000000000000000000000000000000000000000000815260040161086e90611fc5565b60405180910390fd5b600073ffffffffffffffffffffffffffffffffffffffff168473ffffffffffffffffffffffffffffffffffffffff1614156108e7576040517f08c379a00000000000000000000000000000000000000000000000000000000081526004016108de90612057565b60405180910390fd5b60006108f161082b565b9050610901818787878787610f5e565b60005b8451811015610ab257600085828151811061092257610921611eac565b5b60200260200101519050600085838151811061094157610940611eac565b5b60200260200101519050600080600084815260200190815260200160002060008b73ffffffffffffffffffffffffffffffffffffffff1673ffffffffffffffffffffffffffffffffffffffff168152602001908152602001600020549050818110156109e2576040517f08c379a00000000000000000000000000000000000000000000000000000000081526004016109d9906120e9565b60405180910390fd5b81810360008085815260200190815260200160002060008c73ffffffffffffffffffffffffffffffffffffffff1673ffffffffffffffffffffffffffffffffffffffff168152602001908152602001600020819055508160008085815260200190815260200160002060008b73ffffffffffffffffffffffffffffffffffffffff1673ffffffffffffffffffffffffffffffffffffffff1681526020019081526020016000206000828254610a979190612109565b9250508190555050505080610aab90611f0a565b9050610904565b508473ffffffffffffffffffffffffffffffffffffffff168673ffffffffffffffffffffffffffffffffffffffff168273ffffffffffffffffffffffffffffffffffffffff167f4a39dc06d4c0dbc64b70af90fd698a233a518aa5d07e595d983b8c0526c8f7fb8787604051610b2992919061215f565b60405180910390a4610b3f818787878787610f66565b610b4d818787878787610f6e565b505050505050565b8173ffffffffffffffffffffffffffffffffffffffff168373ffffffffffffffffffffffffffffffffffffffff161415610bc4576040517f08c379a0000000000000000000000000000000000000000000000000000000008152600401610bbb90612208565b60405180910390fd5b80600160008573ffffffffffffffffffffffffffffffffffffffff1673ffffffffffffffffffffffffffffffffffffffff16815260200190815260200160002060008473ffffffffffffffffffffffffffffffffffffffff1673ffffffffffffffffffffffffffffffffffffffff16815260200190815260200160002060006101000a81548160ff0219169083151502179055508173ffffffffffffffffffffffffffffffffffffffff168373ffffffffffffffffffffffffffffffffffffffff167f17307eab39ab6107e8899845ad3d59bd9653f200f220920489ca2b5937696c3183604051610cb59190611568565b60405180910390a3505050565b600073ffffffffffffffffffffffffffffffffffffffff168473ffffffffffffffffffffffffffffffffffffffff161415610d32576040517f08c379a0000000000000000000000000000000000000000000000000000000008152600401610d2990612057565b60405180910390fd5b6000610d3c61082b565b90506000610d4985611155565b90506000610d5685611155565b9050610d66838989858589610f5e565b600080600088815260200190815260200160002060008a73ffffffffffffffffffffffffffffffffffffffff1673ffffffffffffffffffffffffffffffffffffffff16815260200190815260200160002054905085811015610dfd576040517f08c379a0000000000000000000000000000000000000000000000000000000008152600401610df4906120e9565b60405180910390fd5b85810360008089815260200190815260200160002060008b73ffffffffffffffffffffffffffffffffffffffff1673ffffffffffffffffffffffffffffffffffffffff168152602001908152602001600020819055508560008089815260200190815260200160002060008a73ffffffffffffffffffffffffffffffffffffffff1673ffffffffffffffffffffffffffffffffffffffff1681526020019081526020016000206000828254610eb29190612109565b925050819055508773ffffffffffffffffffffffffffffffffffffffff168973ffffffffffffffffffffffffffffffffffffffff168573ffffffffffffffffffffffffffffffffffffffff167fc3d58168c5ae7397731d063d5bbf3d657854427343f4c083240f7aacaa2d0f628a8a604051610f2f929190612228565b60405180910390a4610f45848a8a86868a610f66565b610f53848a8a8a8a8a6111cf565b505050505050505050565b505050505050565b505050505050565b610f8d8473ffffffffffffffffffffffffffffffffffffffff1661079e565b1561114d578373ffffffffffffffffffffffffffffffffffffffff1663bc197c8187878686866040518663ffffffff1660e01b8152600401610fd39594939291906122b5565b602060405180830381600087803b158015610fed57600080fd5b505af192505050801561101e57506040513d601f19601f8201168201806040525081019061101b9190612332565b60015b6110c45761102a61236c565b806308c379a01415611087575061103f61238e565b8061104a5750611089565b806040517f08c379a000000000000000000000000000000000000000000000000000000000815260040161107e9190611649565b60405180910390fd5b505b6040517f08c379a00000000000000000000000000000000000000000000000000000000081526004016110bb90612496565b60405180910390fd5b63bc197c8160e01b7bffffffffffffffffffffffffffffffffffffffffffffffffffffffff1916817bffffffffffffffffffffffffffffffffffffffffffffffffffffffff19161461114b576040517f08c379a000000000000000000000000000000000000000000000000000000000815260040161114290612528565b60405180910390fd5b505b505050505050565b60606000600167ffffffffffffffff81111561117457611173611670565b5b6040519080825280602002602001820160405280156111a25781602001602082028036833780820191505090505b50905082816000815181106111ba576111b9611eac565b5b60200260200101818152505080915050919050565b6111ee8473ffffffffffffffffffffffffffffffffffffffff1661079e565b156113ae578373ffffffffffffffffffffffffffffffffffffffff1663f23a6e6187878686866040518663ffffffff1660e01b8152600401611234959493929190612548565b602060405180830381600087803b15801561124e57600080fd5b505af192505050801561127f57506040513d601f19601f8201168201806040525081019061127c9190612332565b60015b6113255761128b61236c565b806308c379a014156112e857506112a061238e565b806112ab57506112ea565b806040517f08c379a00000000000000000000000000000000000000000000000000000000081526004016112df9190611649565b60405180910390fd5b505b6040517f08c379a000000000000000000000000000000000000000000000000000000000815260040161131c90612496565b60405180910390fd5b63f23a6e6160e01b7bffffffffffffffffffffffffffffffffffffffffffffffffffffffff1916817bffffffffffffffffffffffffffffffffffffffffffffffffffffffff1916146113ac576040517f08c379a00000000000000000000000000000000000000000000000000000000081526004016113a390612528565b60405180910390fd5b505b505050505050565b6000604051905090565b600080fd5b600080fd5b600073ffffffffffffffffffffffffffffffffffffffff82169050919050565b60006113f5826113ca565b9050919050565b611405816113ea565b811461141057600080fd5b50565b600081359050611422816113fc565b92915050565b6000819050919050565b61143b81611428565b811461144657600080fd5b50565b60008135905061145881611432565b92915050565b60008060408385031215611475576114746113c0565b5b600061148385828601611413565b925050602061149485828601611449565b9150509250929050565b6114a781611428565b82525050565b60006020820190506114c2600083018461149e565b92915050565b60007fffffffff0000000000000000000000000000000000000000000000000000000082169050919050565b6114fd816114c8565b811461150857600080fd5b50565b60008135905061151a816114f4565b92915050565b600060208284031215611536576115356113c0565b5b60006115448482850161150b565b91505092915050565b60008115159050919050565b6115628161154d565b82525050565b600060208201905061157d6000830184611559565b92915050565b600060208284031215611599576115986113c0565b5b60006115a784828501611449565b91505092915050565b600081519050919050565b600082825260208201905092915050565b60005b838110156115ea5780820151818401526020810190506115cf565b838111156115f9576000848401525b50505050565b6000601f19601f8301169050919050565b600061161b826115b0565b61162581856115bb565b93506116358185602086016115cc565b61163e816115ff565b840191505092915050565b600060208201905081810360008301526116638184611610565b905092915050565b600080fd5b7f4e487b7100000000000000000000000000000000000000000000000000000000600052604160045260246000fd5b6116a8826115ff565b810181811067ffffffffffffffff821117156116c7576116c6611670565b5b80604052505050565b60006116da6113b6565b90506116e6828261169f565b919050565b600067ffffffffffffffff82111561170657611705611670565b5b602082029050602081019050919050565b600080fd5b600061172f61172a846116eb565b6116d0565b9050808382526020820190506020840283018581111561175257611751611717565b5b835b8181101561177b57806117678882611449565b845260208401935050602081019050611754565b5050509392505050565b600082601f83011261179a5761179961166b565b5b81356117aa84826020860161171c565b91505092915050565b600080fd5b600067ffffffffffffffff8211156117d3576117d2611670565b5b6117dc826115ff565b9050602081019050919050565b82818337600083830152505050565b600061180b611806846117b8565b6116d0565b905082815260208101848484011115611827576118266117b3565b5b6118328482856117e9565b509392505050565b600082601f83011261184f5761184e61166b565b5b813561185f8482602086016117f8565b91505092915050565b600080600080600060a08688031215611884576118836113c0565b5b600061189288828901611413565b95505060206118a388828901611413565b945050604086013567ffffffffffffffff8111156118c4576118c36113c5565b5b6118d088828901611785565b935050606086013567ffffffffffffffff8111156118f1576118f06113c5565b5b6118fd88828901611785565b925050608086013567ffffffffffffffff81111561191e5761191d6113c5565b5b61192a8882890161183a565b9150509295509295909350565b600067ffffffffffffffff82111561195257611951611670565b5b602082029050602081019050919050565b600061197661197184611937565b6116d0565b9050808382526020820190506020840283018581111561199957611998611717565b5b835b818110156119c257806119ae8882611413565b84526020840193505060208101905061199b565b5050509392505050565b600082601f8301126119e1576119e061166b565b5b81356119f1848260208601611963565b91505092915050565b60008060408385031215611a1157611a106113c0565b5b600083013567ffffffffffffffff811115611a2f57611a2e6113c5565b5b611a3b858286016119cc565b925050602083013567ffffffffffffffff811115611a5c57611a5b6113c5565b5b611a6885828601611785565b9150509250929050565b600081519050919050565b600082825260208201905092915050565b6000819050602082019050919050565b611aa781611428565b82525050565b6000611ab98383611a9e565b60208301905092915050565b6000602082019050919050565b6000611add82611a72565b611ae78185611a7d565b9350611af283611a8e565b8060005b83811015611b23578151611b0a8882611aad565b9750611b1583611ac5565b925050600181019050611af6565b5085935050505092915050565b60006020820190508181036000830152611b4a8184611ad2565b905092915050565b611b5b8161154d565b8114611b6657600080fd5b50565b600081359050611b7881611b52565b92915050565b60008060408385031215611b9557611b946113c0565b5b6000611ba385828601611413565b9250506020611bb485828601611b69565b9150509250929050565b60008060408385031215611bd557611bd46113c0565b5b6000611be385828601611413565b9250506020611bf485828601611413565b9150509250929050565b600080600080600060a08688031215611c1a57611c196113c0565b5b6000611c2888828901611413565b9550506020611c3988828901611413565b9450506040611c4a88828901611449565b9350506060611c5b88828901611449565b925050608086013567ffffffffffffffff811115611c7c57611c7b6113c5565b5b611c888882890161183a565b9150509295509295909350565b7f455243313135353a2061646472657373207a65726f206973206e6f742061207660008201527f616c6964206f776e657200000000000000000000000000000000000000000000602082015250565b6000611cf1602a836115bb565b9150611cfc82611c95565b604082019050919050565b60006020820190508181036000830152611d2081611ce4565b9050919050565b7f4e487b7100000000000000000000000000000000000000000000000000000000600052602260045260246000fd5b60006002820490506001821680611d6e57607f821691505b60208210811415611d8257611d81611d27565b5b50919050565b7f455243313135353a2063616c6c6572206973206e6f7420746f6b656e206f776e60008201527f6572206f7220617070726f766564000000000000000000000000000000000000602082015250565b6000611de4602e836115bb565b9150611def82611d88565b604082019050919050565b60006020820190508181036000830152611e1381611dd7565b9050919050565b7f455243313135353a206163636f756e747320616e6420696473206c656e67746860008201527f206d69736d617463680000000000000000000000000000000000000000000000602082015250565b6000611e766029836115bb565b9150611e8182611e1a565b604082019050919050565b60006020820190508181036000830152611ea581611e69565b9050919050565b7f4e487b7100000000000000000000000000000000000000000000000000000000600052603260045260246000fd5b7f4e487b7100000000000000000000000000000000000000000000000000000000600052601160045260246000fd5b6000611f1582611428565b91507fffffffffffffffffffffffffffffffffffffffffffffffffffffffffffffffff821415611f4857611f47611edb565b5b600182019050919050565b7f455243313135353a2069647320616e6420616d6f756e7473206c656e6774682060008201527f6d69736d61746368000000000000000000000000000000000000000000000000602082015250565b6000611faf6028836115bb565b9150611fba82611f53565b604082019050919050565b60006020820190508181036000830152611fde81611fa2565b9050919050565b7f455243313135353a207472616e7366657220746f20746865207a65726f20616460008201527f6472657373000000000000000000000000000000000000000000000000000000602082015250565b60006120416025836115bb565b915061204c82611fe5565b604082019050919050565b6000602082019050818103600083015261207081612034565b9050919050565b7f455243313135353a20696e73756666696369656e742062616c616e636520666f60008201527f72207472616e7366657200000000000000000000000000000000000000000000602082015250565b60006120d3602a836115bb565b91506120de82612077565b604082019050919050565b60006020820190508181036000830152612102816120c6565b9050919050565b600061211482611428565b915061211f83611428565b9250827fffffffffffffffffffffffffffffffffffffffffffffffffffffffffffffffff0382111561215457612153611edb565b5b828201905092915050565b600060408201905081810360008301526121798185611ad2565b9050818103602083015261218d8184611ad2565b90509392505050565b7f455243313135353a2073657474696e6720617070726f76616c2073746174757360008201527f20666f722073656c660000000000000000000000000000000000000000000000602082015250565b60006121f26029836115bb565b91506121fd82612196565b604082019050919050565b60006020820190508181036000830152612221816121e5565b9050919050565b600060408201905061223d600083018561149e565b61224a602083018461149e565b9392505050565b61225a816113ea565b82525050565b600081519050919050565b600082825260208201905092915050565b600061228782612260565b612291818561226b565b93506122a18185602086016115cc565b6122aa816115ff565b840191505092915050565b600060a0820190506122ca6000830188612251565b6122d76020830187612251565b81810360408301526122e98186611ad2565b905081810360608301526122fd8185611ad2565b90508181036080830152612311818461227c565b90509695505050505050565b60008151905061232c816114f4565b92915050565b600060208284031215612348576123476113c0565b5b60006123568482850161231d565b91505092915050565b60008160e01c9050919050565b600060033d111561238b5760046000803e61238860005161235f565b90505b90565b600060443d101561239e57612421565b6123a66113b6565b60043d036004823e80513d602482011167ffffffffffffffff821117156123ce575050612421565b808201805167ffffffffffffffff8111156123ec5750505050612421565b80602083010160043d038501811115612409575050505050612421565b6124188260200185018661169f565b82955050505050505b90565b7f455243313135353a207472616e7366657220746f206e6f6e2d4552433131353560008201527f526563656976657220696d706c656d656e746572000000000000000000000000602082015250565b60006124806034836115bb565b915061248b82612424565b604082019050919050565b600060208201905081810360008301526124af81612473565b9050919050565b7f455243313135353a204552433131353552656365697665722072656a6563746560008201527f6420746f6b656e73000000000000000000000000000000000000000000000000602082015250565b60006125126028836115bb565b915061251d826124b6565b604082019050919050565b6000602082019050818103600083015261254181612505565b9050919050565b600060a08201905061255d6000830188612251565b61256a6020830187612251565b612577604083018661149e565b612584606083018561149e565b8181036080830152612596818461227c565b9050969550505050505056fea264697066735822122044bd626f860eb66d688b8e154d3f466b79cd925a08423c7168983ab5a57d4cec64736f6c63430008080033",
  "linkReferences": {},
  "deployedLinkReferences": {}
}