{
  "_format": "hh-sol-artifact-1",
  "contractName": "MyNFT",
  "sourceName": "contracts/MyNFT.sol",
  "abi": [
    {
      "inputs": [],
      "stateMutability": "nonpayable",
      "type": "constructor"
    },
    {
      "anonymous": false,
      "inputs": [
        {
          "indexed": true,
          "internalType": "address",
          "name": "account",
          "type": "address"
        },
        {
          "indexed": true,
          "internalType": "address",
          "name": "operator",
          "type": "address"
        },
        {
          "indexed": false,
          "internalType": "bool",
          "name": "approved",
          "type": "bool"
        }
      ],
      "name": "ApprovalForAll",
      "type": "event"
    },
    {
      "anonymous": false,
      "inputs": [
        {
          "indexed": true,
          "internalType": "address",
          "name": "operator",
          "type": "address"
        },
        {
          "indexed": true,
          "internalType": "address",
          "name": "from",
          "type": "address"
        },
        {
          "indexed": true,
          "internalType": "address",
          "name": "to",
          "type": "address"
        },
        {
          "indexed": false,
          "internalType": "uint256[]",
          "name": "ids",
          "type": "uint256[]"
        },
        {
          "indexed": false,
          "internalType": "uint256[]",
          "name": "values",
          "type": "uint256[]"
        }
      ],
      "name": "TransferBatch",
      "type": "event"
    },
    {
      "anonymous": false,
      "inputs": [
        {
          "indexed": true,
          "internalType": "address",
          "name": "operator",
          "type": "address"
        },
        {
          "indexed": true,
          "internalType": "address",
          "name": "from",
          "type": "address"
        },
        {
          "indexed": true,
          "internalType": "address",
          "name": "to",
          "type": "address"
        },
        {
          "indexed": false,
          "internalType": "uint256",
          "name": "id",
          "type": "uint256"
        },
        {
          "indexed": false,
          "internalType": "uint256",
          "name": "value",
          "type": "uint256"
        }
      ],
      "name": "TransferSingle",
      "type": "event"
    },
    {
      "anonymous": false,
      "inputs": [
        {
          "indexed": false,
          "internalType": "string",
          "name": "value",
          "type": "string"
        },
        {
          "indexed": true,
          "internalType": "uint256",
          "name": "id",
          "type": "uint256"
        }
      ],
      "name": "URI",
      "type": "event"
    },
    {
      "inputs": [],
      "name": "Diamond",
      "outputs": [
        {
          "internalType": "uint256",
          "name": "",
          "type": "uint256"
        }
      ],
      "stateMutability": "view",
      "type": "function"
    },
    {
      "inputs": [],
      "name": "Gold",
      "outputs": [
        {
          "internalType": "uint256",
          "name": "",
          "type": "uint256"
        }
      ],
      "stateMutability": "view",
      "type": "function"
    },
    {
      "inputs": [],
      "name": "Silver",
      "outputs": [
        {
          "internalType": "uint256",
          "name": "",
          "type": "uint256"
        }
      ],
      "stateMutability": "view",
      "type": "function"
    },
    {
      "inputs": [
        {
          "internalType": "address",
          "name": "account",
          "type": "address"
        },
        {
          "internalType": "uint256",
          "name": "id",
          "type": "uint256"
        }
      ],
      "name": "balanceOf",
      "outputs": [
        {
          "internalType": "uint256",
          "name": "",
          "type": "uint256"
        }
      ],
      "stateMutability": "view",
      "type": "function"
    },
    {
      "inputs": [
        {
          "internalType": "address[]",
          "name": "accounts",
          "type": "address[]"
        },
        {
          "internalType": "uint256[]",
          "name": "ids",
          "type": "uint256[]"
        }
      ],
      "name": "balanceOfBatch",
      "outputs": [
        {
          "internalType": "uint256[]",
          "name": "",
          "type": "uint256[]"
        }
      ],
      "stateMutability": "view",
      "type": "function"
    },
    {
      "inputs": [
        {
          "internalType": "address",
          "name": "account",
          "type": "address"
        },
        {
          "internalType": "address",
          "name": "operator",
          "type": "address"
        }
      ],
      "name": "isApprovedForAll",
      "outputs": [
        {
          "internalType": "bool",
          "name": "",
          "type": "bool"
        }
      ],
      "stateMutability": "view",
      "type": "function"
    },
    {
      "inputs": [
        {
          "internalType": "address",
          "name": "from",
          "type": "address"
        },
        {
          "internalType": "address",
          "name": "to",
          "type": "address"
        },
        {
          "internalType": "uint256[]",
          "name": "ids",
          "type": "uint256[]"
        },
        {
          "internalType": "uint256[]",
          "name": "amounts",
          "type": "uint256[]"
        },
        {
          "internalType": "bytes",
          "name": "data",
          "type": "bytes"
        }
      ],
      "name": "safeBatchTransferFrom",
      "outputs": [],
      "stateMutability": "nonpayable",
      "type": "function"
    },
    {
      "inputs": [
        {
          "internalType": "address",
          "name": "from",
          "type": "address"
        },
        {
          "internalType": "address",
          "name": "to",
          "type": "address"
        },
        {
          "internalType": "uint256",
          "name": "id",
          "type": "uint256"
        },
        {
          "internalType": "uint256",
          "name": "amount",
          "type": "uint256"
        },
        {
          "internalType": "bytes",
          "name": "data",
          "type": "bytes"
        }
      ],
      "name": "safeTransferFrom",
      "outputs": [],
      "stateMutability": "nonpayable",
      "type": "function"
    },
    {
      "inputs": [
        {
          "internalType": "address",
          "name": "operator",
          "type": "address"
        },
        {
          "internalType": "bool",
          "name": "approved",
          "type": "bool"
        }
      ],
      "name": "setApprovalForAll",
      "outputs": [],
      "stateMutability": "nonpayable",
      "type": "function"
    },
    {
      "inputs": [
        {
          "internalType": "bytes4",
          "name": "interfaceId",
          "type": "bytes4"
        }
      ],
      "name": "supportsInterface",
      "outputs": [
        {
          "internalType": "bool",
          "name": "",
          "type": "bool"
        }
      ],
      "stateMutability": "view",
      "type": "function"
    },
    {
      "inputs": [
        {
          "internalType": "uint256",
          "name": "",
          "type": "uint256"
        }
      ],
      "name": "uri",
      "outputs": [
        {
          "internalType": "string",
          "name": "",
          "type": "string"
        }
      ],
      "stateMutability": "view",
      "type": "function"
    }
  ],
  "bytecode": "0x60806040523480156200001157600080fd5b50604080518082019091526005815264135e53919560da1b60208201526200003981620000ae565b506200005f336000600160405180602001604052806000815250620000c760201b60201c565b620000833360018060405180602001604052806000815250620000c760201b60201c565b620000a8336002600160405180602001604052806000815250620000c760201b60201c565b62000711565b8051620000c39060029060208401906200042b565b5050565b6001600160a01b0384166200012d5760405162461bcd60e51b815260206004820152602160248201527f455243313135353a206d696e7420746f20746865207a65726f206164647265736044820152607360f81b60648201526084015b60405180910390fd5b3360006200013b85620001e9565b905060006200014a85620001e9565b90506000868152602081815260408083206001600160a01b038b168452909152812080548792906200017e908490620004d1565b909155505060408051878152602081018790526001600160a01b03808a1692600092918716917fc3d58168c5ae7397731d063d5bbf3d657854427343f4c083240f7aacaa2d0f62910160405180910390a4620001e0836000898989896200023f565b50505050505050565b60408051600180825281830190925260609160009190602080830190803683370190505090508281600081518110620002265762000226620004f8565b602090810291909101015292915050565b505050505050565b6200025e846001600160a01b03166200041c60201b6200050b1760201c565b15620002375760405163f23a6e6160e01b81526001600160a01b0385169063f23a6e61906200029a90899089908890889088906004016200055e565b602060405180830381600087803b158015620002b557600080fd5b505af1925050508015620002e8575060408051601f3d908101601f19168201909252620002e591810190620005a5565b60015b620003a957620002f7620005d8565b806308c379a014156200033857506200030f62000630565b806200031c57506200033a565b8060405162461bcd60e51b8152600401620001249190620006bf565b505b60405162461bcd60e51b815260206004820152603460248201527f455243313135353a207472616e7366657220746f206e6f6e2d4552433131353560448201527f526563656976657220696d706c656d656e746572000000000000000000000000606482015260840162000124565b6001600160e01b0319811663f23a6e6160e01b14620001e05760405162461bcd60e51b815260206004820152602860248201527f455243313135353a204552433131353552656365697665722072656a656374656044820152676420746f6b656e7360c01b606482015260840162000124565b6001600160a01b03163b151590565b8280546200043990620006d4565b90600052602060002090601f0160209004810192826200045d5760008555620004a8565b82601f106200047857805160ff1916838001178555620004a8565b82800160010185558215620004a8579182015b82811115620004a85782518255916020019190600101906200048b565b50620004b6929150620004ba565b5090565b5b80821115620004b65760008155600101620004bb565b60008219821115620004f357634e487b7160e01b600052601160045260246000fd5b500190565b634e487b7160e01b600052603260045260246000fd5b6000815180845260005b81811015620005365760208185018101518683018201520162000518565b8181111562000549576000602083870101525b50601f01601f19169290920160200192915050565b6001600160a01b03868116825285166020820152604081018490526060810183905260a0608082018190526000906200059a908301846200050e565b979650505050505050565b600060208284031215620005b857600080fd5b81516001600160e01b031981168114620005d157600080fd5b9392505050565b600060033d1115620005f25760046000803e5060005160e01c5b90565b601f8201601f191681016001600160401b03811182821017156200062957634e487b7160e01b600052604160045260246000fd5b6040525050565b600060443d10156200063f5790565b6040516003193d81016004833e81513d6001600160401b0380831160248401831017156200066f57505050505090565b8285019150815181811115620006885750505050505090565b843d8701016020828501011115620006a35750505050505090565b620006b460208286010187620005f5565b509095945050505050565b602081526000620005d160208301846200050e565b600181811c90821680620006e957607f821691505b602082108114156200070b57634e487b7160e01b600052602260045260246000fd5b50919050565b6113f380620007216000396000f3fe608060405234801561001057600080fd5b50600436106100a85760003560e01c80636b7d5205116100715780636b7d52051461014b578063a22cb46514610153578063c8449b6514610166578063e985e9c51461016e578063f242432a146101aa578063fe275280146101bd57600080fd5b8062fdd58e146100ad57806301ffc9a7146100d35780630e89341c146100f65780632eb2c2d6146101165780634e1273f41461012b575b600080fd5b6100c06100bb366004610ba7565b6101c5565b6040519081526020015b60405180910390f35b6100e66100e1366004610bea565b61025b565b60405190151581526020016100ca565b610109610104366004610c0e565b6102ad565b6040516100ca9190610c74565b610129610124366004610dd3565b610341565b005b61013e610139366004610e7d565b61038d565b6040516100ca9190610f83565b6100c0600281565b610129610161366004610f96565b6104b7565b6100c0600081565b6100e661017c366004610fd2565b6001600160a01b03918216600090815260016020908152604080832093909416825291909152205460ff1690565b6101296101b8366004611005565b6104c6565b6100c0600181565b60006001600160a01b0383166102355760405162461bcd60e51b815260206004820152602a60248201527f455243313135353a2061646472657373207a65726f206973206e6f742061207660448201526930b634b21037bbb732b960b11b60648201526084015b60405180910390fd5b506000908152602081815260408083206001600160a01b03949094168352929052205490565b60006001600160e01b03198216636cdb3d1360e11b148061028c57506001600160e01b031982166303a24d0760e21b145b806102a757506301ffc9a760e01b6001600160e01b03198316145b92915050565b6060600280546102bc9061106a565b80601f01602080910402602001604051908101604052809291908181526020018280546102e89061106a565b80156103355780601f1061030a57610100808354040283529160200191610335565b820191906000526020600020905b81548152906001019060200180831161031857829003601f168201915b50505050509050919050565b6001600160a01b03851633148061035d575061035d853361017c565b6103795760405162461bcd60e51b815260040161022c906110a5565b610386858585858561051a565b5050505050565b606081518351146103f25760405162461bcd60e51b815260206004820152602960248201527f455243313135353a206163636f756e747320616e6420696473206c656e677468604482015268040dad2e6dac2e8c6d60bb1b606482015260840161022c565b6000835167ffffffffffffffff81111561040e5761040e610c87565b604051908082528060200260200182016040528015610437578160200160208202803683370190505b50905060005b84518110156104af5761048285828151811061045b5761045b6110f3565b6020026020010151858381518110610475576104756110f3565b60200260200101516101c5565b828281518110610494576104946110f3565b60209081029190910101526104a88161111f565b905061043d565b509392505050565b6104c23383836106f7565b5050565b6001600160a01b0385163314806104e257506104e2853361017c565b6104fe5760405162461bcd60e51b815260040161022c906110a5565b61038685858585856107d8565b6001600160a01b03163b151590565b815183511461057c5760405162461bcd60e51b815260206004820152602860248201527f455243313135353a2069647320616e6420616d6f756e7473206c656e677468206044820152670dad2e6dac2e8c6d60c31b606482015260840161022c565b6001600160a01b0384166105a25760405162461bcd60e51b815260040161022c9061113a565b3360005b84518110156106895760008582815181106105c3576105c36110f3565b6020026020010151905060008583815181106105e1576105e16110f3565b602090810291909101810151600084815280835260408082206001600160a01b038e1683529093529190912054909150818110156106315760405162461bcd60e51b815260040161022c9061117f565b6000838152602081815260408083206001600160a01b038e8116855292528083208585039055908b1682528120805484929061066e9084906111c9565b92505081905550505050806106829061111f565b90506105a6565b50846001600160a01b0316866001600160a01b0316826001600160a01b03167f4a39dc06d4c0dbc64b70af90fd698a233a518aa5d07e595d983b8c0526c8f7fb87876040516106d99291906111e1565b60405180910390a46106ef818787878787610902565b505050505050565b816001600160a01b0316836001600160a01b0316141561076b5760405162461bcd60e51b815260206004820152602960248201527f455243313135353a2073657474696e6720617070726f76616c20737461747573604482015268103337b91039b2b63360b91b606482015260840161022c565b6001600160a01b03838116600081815260016020908152604080832094871680845294825291829020805460ff191686151590811790915591519182527f17307eab39ab6107e8899845ad3d59bd9653f200f220920489ca2b5937696c31910160405180910390a3505050565b6001600160a01b0384166107fe5760405162461bcd60e51b815260040161022c9061113a565b33600061080a85610a76565b9050600061081785610a76565b90506000868152602081815260408083206001600160a01b038c1684529091529020548581101561085a5760405162461bcd60e51b815260040161022c9061117f565b6000878152602081815260408083206001600160a01b038d8116855292528083208985039055908a168252812080548892906108979084906111c9565b909155505060408051888152602081018890526001600160a01b03808b16928c821692918816917fc3d58168c5ae7397731d063d5bbf3d657854427343f4c083240f7aacaa2d0f62910160405180910390a46108f7848a8a8a8a8a610ac1565b505050505050505050565b6001600160a01b0384163b156106ef5760405163bc197c8160e01b81526001600160a01b0385169063bc197c8190610946908990899088908890889060040161120f565b602060405180830381600087803b15801561096057600080fd5b505af1925050508015610990575060408051601f3d908101601f1916820190925261098d9181019061126d565b60015b610a3d5761099c61128a565b806308c379a014156109d657506109b16112a6565b806109bc57506109d8565b8060405162461bcd60e51b815260040161022c9190610c74565b505b60405162461bcd60e51b815260206004820152603460248201527f455243313135353a207472616e7366657220746f206e6f6e2d455243313135356044820152732932b1b2b4bb32b91034b6b83632b6b2b73a32b960611b606482015260840161022c565b6001600160e01b0319811663bc197c8160e01b14610a6d5760405162461bcd60e51b815260040161022c90611330565b50505050505050565b60408051600180825281830190925260609160009190602080830190803683370190505090508281600081518110610ab057610ab06110f3565b602090810291909101015292915050565b6001600160a01b0384163b156106ef5760405163f23a6e6160e01b81526001600160a01b0385169063f23a6e6190610b059089908990889088908890600401611378565b602060405180830381600087803b158015610b1f57600080fd5b505af1925050508015610b4f575060408051601f3d908101601f19168201909252610b4c9181019061126d565b60015b610b5b5761099c61128a565b6001600160e01b0319811663f23a6e6160e01b14610a6d5760405162461bcd60e51b815260040161022c90611330565b80356001600160a01b0381168114610ba257600080fd5b919050565b60008060408385031215610bba57600080fd5b610bc383610b8b565b946020939093013593505050565b6001600160e01b031981168114610be757600080fd5b50565b600060208284031215610bfc57600080fd5b8135610c0781610bd1565b9392505050565b600060208284031215610c2057600080fd5b5035919050565b6000815180845260005b81811015610c4d57602081850181015186830182015201610c31565b81811115610c5f576000602083870101525b50601f01601f19169290920160200192915050565b602081526000610c076020830184610c27565b634e487b7160e01b600052604160045260246000fd5b601f8201601f1916810167ffffffffffffffff81118282101715610cc357610cc3610c87565b6040525050565b600067ffffffffffffffff821115610ce457610ce4610c87565b5060051b60200190565b600082601f830112610cff57600080fd5b81356020610d0c82610cca565b604051610d198282610c9d565b83815260059390931b8501820192828101915086841115610d3957600080fd5b8286015b84811015610d545780358352918301918301610d3d565b509695505050505050565b600082601f830112610d7057600080fd5b813567ffffffffffffffff811115610d8a57610d8a610c87565b604051610da1601f8301601f191660200182610c9d565b818152846020838601011115610db657600080fd5b816020850160208301376000918101602001919091529392505050565b600080600080600060a08688031215610deb57600080fd5b610df486610b8b565b9450610e0260208701610b8b565b9350604086013567ffffffffffffffff80821115610e1f57600080fd5b610e2b89838a01610cee565b94506060880135915080821115610e4157600080fd5b610e4d89838a01610cee565b93506080880135915080821115610e6357600080fd5b50610e7088828901610d5f565b9150509295509295909350565b60008060408385031215610e9057600080fd5b823567ffffffffffffffff80821115610ea857600080fd5b818501915085601f830112610ebc57600080fd5b81356020610ec982610cca565b604051610ed68282610c9d565b83815260059390931b8501820192828101915089841115610ef657600080fd5b948201945b83861015610f1b57610f0c86610b8b565b82529482019490820190610efb565b96505086013592505080821115610f3157600080fd5b50610f3e85828601610cee565b9150509250929050565b600081518084526020808501945080840160005b83811015610f7857815187529582019590820190600101610f5c565b509495945050505050565b602081526000610c076020830184610f48565b60008060408385031215610fa957600080fd5b610fb283610b8b565b915060208301358015158114610fc757600080fd5b809150509250929050565b60008060408385031215610fe557600080fd5b610fee83610b8b565b9150610ffc60208401610b8b565b90509250929050565b600080600080600060a0868803121561101d57600080fd5b61102686610b8b565b945061103460208701610b8b565b93506040860135925060608601359150608086013567ffffffffffffffff81111561105e57600080fd5b610e7088828901610d5f565b600181811c9082168061107e57607f821691505b6020821081141561109f57634e487b7160e01b600052602260045260246000fd5b50919050565b6020808252602e908201527f455243313135353a2063616c6c6572206973206e6f7420746f6b656e206f776e60408201526d195c881bdc88185c1c1c9bdd995960921b606082015260800190565b634e487b7160e01b600052603260045260246000fd5b634e487b7160e01b600052601160045260246000fd5b600060001982141561113357611133611109565b5060010190565b60208082526025908201527f455243313135353a207472616e7366657220746f20746865207a65726f206164604082015264647265737360d81b606082015260800190565b6020808252602a908201527f455243313135353a20696e73756666696369656e742062616c616e636520666f60408201526939103a3930b739b332b960b11b606082015260800190565b600082198211156111dc576111dc611109565b500190565b6040815260006111f46040830185610f48565b82810360208401526112068185610f48565b95945050505050565b6001600160a01b0386811682528516602082015260a06040820181905260009061123b90830186610f48565b828103606084015261124d8186610f48565b905082810360808401526112618185610c27565b98975050505050505050565b60006020828403121561127f57600080fd5b8151610c0781610bd1565b600060033d11156112a35760046000803e5060005160e01c5b90565b600060443d10156112b45790565b6040516003193d81016004833e81513d67ffffffffffffffff81602484011181841117156112e457505050505090565b82850191508151818111156112fc5750505050505090565b843d87010160208285010111156113165750505050505090565b61132560208286010187610c9d565b509095945050505050565b60208082526028908201527f455243313135353a204552433131353552656365697665722072656a656374656040820152676420746f6b656e7360c01b606082015260800190565b6001600160a01b03868116825285166020820152604081018490526060810183905260a0608082018190526000906113b290830184610c27565b97965050505050505056fea2646970667358221220be94a87ffbb7de54e71bd3db3944f15a922af8d34d067ef69880a4791048bc7f64736f6c63430008080033",
  "linkReferences": {},
  "deployedLinkReferences": {}
}