{
  "_format": "hh-sol-artifact-1",
  "contractName": "MarketplaceV2",
  "sourceName": "contracts/NftMarketplaceV2.sol",
  "abi": [
    {
      "anonymous": false,
      "inputs": [
        {
          "indexed": false,
          "internalType": "address",
          "name": "previousAdmin",
          "type": "address"
        },
        {
          "indexed": false,
          "internalType": "address",
          "name": "newAdmin",
          "type": "address"
        }
      ],
      "name": "AdminChanged",
      "type": "event"
    },
    {
      "anonymous": false,
      "inputs": [
        {
          "indexed": true,
          "internalType": "address",
          "name": "beacon",
          "type": "address"
        }
      ],
      "name": "BeaconUpgraded",
      "type": "event"
    },
    {
      "anonymous": false,
      "inputs": [
        {
          "indexed": false,
          "internalType": "uint8",
          "name": "version",
          "type": "uint8"
        }
      ],
      "name": "Initialized",
      "type": "event"
    },
    {
      "anonymous": false,
      "inputs": [
        {
          "indexed": false,
          "internalType": "address",
          "name": "nftAddress",
          "type": "address"
        },
        {
          "indexed": false,
          "internalType": "bool",
          "name": "isERC721",
          "type": "bool"
        },
        {
          "indexed": true,
          "internalType": "uint256",
          "name": "itemId",
          "type": "uint256"
        },
        {
          "indexed": true,
          "internalType": "uint256",
          "name": "tokenId",
          "type": "uint256"
        },
        {
          "indexed": false,
          "internalType": "address",
          "name": "seller",
          "type": "address"
        },
        {
          "indexed": false,
          "internalType": "address",
          "name": "nftOwner",
          "type": "address"
        },
        {
          "indexed": false,
          "internalType": "uint256",
          "name": "price",
          "type": "uint256"
        },
        {
          "indexed": false,
          "internalType": "uint256",
          "name": "platformFee",
          "type": "uint256"
        },
        {
          "indexed": false,
          "internalType": "uint256",
          "name": "feeAmount",
          "type": "uint256"
        },
        {
          "indexed": false,
          "internalType": "uint256",
          "name": "totalPrice",
          "type": "uint256"
        },
        {
          "indexed": false,
          "internalType": "bool",
          "name": "sold",
          "type": "bool"
        }
      ],
      "name": "MarketItemCreated",
      "type": "event"
    },
    {
      "anonymous": false,
      "inputs": [
        {
          "indexed": true,
          "internalType": "address",
          "name": "previousOwner",
          "type": "address"
        },
        {
          "indexed": true,
          "internalType": "address",
          "name": "newOwner",
          "type": "address"
        }
      ],
      "name": "OwnershipTransferred",
      "type": "event"
    },
    {
      "anonymous": false,
      "inputs": [
        {
          "indexed": true,
          "internalType": "address",
          "name": "implementation",
          "type": "address"
        }
      ],
      "name": "Upgraded",
      "type": "event"
    },
    {
      "inputs": [],
      "name": "NFTMarketplaceVersion",
      "outputs": [
        {
          "internalType": "uint256",
          "name": "",
          "type": "uint256"
        }
      ],
      "stateMutability": "pure",
      "type": "function"
    },
    {
      "inputs": [
        {
          "internalType": "uint256",
          "name": "itemId",
          "type": "uint256"
        }
      ],
      "name": "buyNFT",
      "outputs": [],
      "stateMutability": "payable",
      "type": "function"
    },
    {
      "inputs": [
        {
          "internalType": "uint256",
          "name": "itemId",
          "type": "uint256"
        }
      ],
      "name": "cancelMarketItem",
      "outputs": [],
      "stateMutability": "nonpayable",
      "type": "function"
    },
    {
      "inputs": [
        {
          "internalType": "uint256",
          "name": "tokenId",
          "type": "uint256"
        },
        {
          "internalType": "uint256",
          "name": "priceInWei",
          "type": "uint256"
        },
        {
          "internalType": "bool",
          "name": "isErc721",
          "type": "bool"
        }
      ],
      "name": "createMarketItem",
      "outputs": [],
      "stateMutability": "nonpayable",
      "type": "function"
    },
    {
      "inputs": [],
      "name": "fetchItemsCreated",
      "outputs": [
        {
          "components": [
            {
              "internalType": "address",
              "name": "nftAddress",
              "type": "address"
            },
            {
              "internalType": "bool",
              "name": "isERC721",
              "type": "bool"
            },
            {
              "internalType": "uint256",
              "name": "itemId",
              "type": "uint256"
            },
            {
              "internalType": "uint256",
              "name": "tokenId",
              "type": "uint256"
            },
            {
              "internalType": "address",
              "name": "seller",
              "type": "address"
            },
            {
              "internalType": "address",
              "name": "nftOwner",
              "type": "address"
            },
            {
              "internalType": "uint256",
              "name": "price",
              "type": "uint256"
            },
            {
              "internalType": "uint256",
              "name": "platformFee",
              "type": "uint256"
            },
            {
              "internalType": "uint256",
              "name": "feeAmount",
              "type": "uint256"
            },
            {
              "internalType": "uint256",
              "name": "totalPrice",
              "type": "uint256"
            },
            {
              "internalType": "bool",
              "name": "sold",
              "type": "bool"
            }
          ],
          "internalType": "struct Marketplace.MarketItem[]",
          "name": "",
          "type": "tuple[]"
        }
      ],
      "stateMutability": "view",
      "type": "function"
    },
    {
      "inputs": [],
      "name": "fetchMarketItems",
      "outputs": [
        {
          "components": [
            {
              "internalType": "address",
              "name": "nftAddress",
              "type": "address"
            },
            {
              "internalType": "bool",
              "name": "isERC721",
              "type": "bool"
            },
            {
              "internalType": "uint256",
              "name": "itemId",
              "type": "uint256"
            },
            {
              "internalType": "uint256",
              "name": "tokenId",
              "type": "uint256"
            },
            {
              "internalType": "address",
              "name": "seller",
              "type": "address"
            },
            {
              "internalType": "address",
              "name": "nftOwner",
              "type": "address"
            },
            {
              "internalType": "uint256",
              "name": "price",
              "type": "uint256"
            },
            {
              "internalType": "uint256",
              "name": "platformFee",
              "type": "uint256"
            },
            {
              "internalType": "uint256",
              "name": "feeAmount",
              "type": "uint256"
            },
            {
              "internalType": "uint256",
              "name": "totalPrice",
              "type": "uint256"
            },
            {
              "internalType": "bool",
              "name": "sold",
              "type": "bool"
            }
          ],
          "internalType": "struct Marketplace.MarketItem[]",
          "name": "",
          "type": "tuple[]"
        }
      ],
      "stateMutability": "view",
      "type": "function"
    },
    {
      "inputs": [],
      "name": "fetchMyNFTs",
      "outputs": [
        {
          "components": [
            {
              "internalType": "address",
              "name": "nftAddress",
              "type": "address"
            },
            {
              "internalType": "bool",
              "name": "isERC721",
              "type": "bool"
            },
            {
              "internalType": "uint256",
              "name": "itemId",
              "type": "uint256"
            },
            {
              "internalType": "uint256",
              "name": "tokenId",
              "type": "uint256"
            },
            {
              "internalType": "address",
              "name": "seller",
              "type": "address"
            },
            {
              "internalType": "address",
              "name": "nftOwner",
              "type": "address"
            },
            {
              "internalType": "uint256",
              "name": "price",
              "type": "uint256"
            },
            {
              "internalType": "uint256",
              "name": "platformFee",
              "type": "uint256"
            },
            {
              "internalType": "uint256",
              "name": "feeAmount",
              "type": "uint256"
            },
            {
              "internalType": "uint256",
              "name": "totalPrice",
              "type": "uint256"
            },
            {
              "internalType": "bool",
              "name": "sold",
              "type": "bool"
            }
          ],
          "internalType": "struct Marketplace.MarketItem[]",
          "name": "",
          "type": "tuple[]"
        }
      ],
      "stateMutability": "view",
      "type": "function"
    },
    {
      "inputs": [
        {
          "internalType": "address",
          "name": "userAddress",
          "type": "address"
        }
      ],
      "name": "fetchUserNFTs",
      "outputs": [
        {
          "components": [
            {
              "internalType": "address",
              "name": "nftAddress",
              "type": "address"
            },
            {
              "internalType": "bool",
              "name": "isERC721",
              "type": "bool"
            },
            {
              "internalType": "uint256",
              "name": "itemId",
              "type": "uint256"
            },
            {
              "internalType": "uint256",
              "name": "tokenId",
              "type": "uint256"
            },
            {
              "internalType": "address",
              "name": "seller",
              "type": "address"
            },
            {
              "internalType": "address",
              "name": "nftOwner",
              "type": "address"
            },
            {
              "internalType": "uint256",
              "name": "price",
              "type": "uint256"
            },
            {
              "internalType": "uint256",
              "name": "platformFee",
              "type": "uint256"
            },
            {
              "internalType": "uint256",
              "name": "feeAmount",
              "type": "uint256"
            },
            {
              "internalType": "uint256",
              "name": "totalPrice",
              "type": "uint256"
            },
            {
              "internalType": "bool",
              "name": "sold",
              "type": "bool"
            }
          ],
          "internalType": "struct Marketplace.MarketItem[]",
          "name": "",
          "type": "tuple[]"
        }
      ],
      "stateMutability": "view",
      "type": "function"
    },
    {
      "inputs": [
        {
          "internalType": "uint256",
          "name": "",
          "type": "uint256"
        }
      ],
      "name": "idToMarketItem",
      "outputs": [
        {
          "internalType": "address",
          "name": "nftAddress",
          "type": "address"
        },
        {
          "internalType": "bool",
          "name": "isERC721",
          "type": "bool"
        },
        {
          "internalType": "uint256",
          "name": "itemId",
          "type": "uint256"
        },
        {
          "internalType": "uint256",
          "name": "tokenId",
          "type": "uint256"
        },
        {
          "internalType": "address",
          "name": "seller",
          "type": "address"
        },
        {
          "internalType": "address",
          "name": "nftOwner",
          "type": "address"
        },
        {
          "internalType": "uint256",
          "name": "price",
          "type": "uint256"
        },
        {
          "internalType": "uint256",
          "name": "platformFee",
          "type": "uint256"
        },
        {
          "internalType": "uint256",
          "name": "feeAmount",
          "type": "uint256"
        },
        {
          "internalType": "uint256",
          "name": "totalPrice",
          "type": "uint256"
        },
        {
          "internalType": "bool",
          "name": "sold",
          "type": "bool"
        }
      ],
      "stateMutability": "view",
      "type": "function"
    },
    {
      "inputs": [
        {
          "internalType": "address",
          "name": "_nftContract",
          "type": "address"
        },
        {
          "internalType": "address",
          "name": "_myNftContract",
          "type": "address"
        },
        {
          "internalType": "address",
          "name": "_platformWallet",
          "type": "address"
        },
        {
          "internalType": "uint256",
          "name": "_platformFee",
          "type": "uint256"
        }
      ],
      "name": "initialize",
      "outputs": [],
      "stateMutability": "nonpayable",
      "type": "function"
    },
    {
      "inputs": [],
      "name": "myNftContract",
      "outputs": [
        {
          "internalType": "contract IERC1155",
          "name": "",
          "type": "address"
        }
      ],
      "stateMutability": "view",
      "type": "function"
    },
    {
      "inputs": [],
      "name": "nftContract",
      "outputs": [
        {
          "internalType": "contract IERC721",
          "name": "",
          "type": "address"
        }
      ],
      "stateMutability": "view",
      "type": "function"
    },
    {
      "inputs": [
        {
          "internalType": "address",
          "name": "",
          "type": "address"
        },
        {
          "internalType": "address",
          "name": "",
          "type": "address"
        },
        {
          "internalType": "uint256",
          "name": "",
          "type": "uint256"
        },
        {
          "internalType": "uint256",
          "name": "",
          "type": "uint256"
        },
        {
          "internalType": "bytes",
          "name": "",
          "type": "bytes"
        }
      ],
      "name": "onERC1155Received",
      "outputs": [
        {
          "internalType": "bytes4",
          "name": "",
          "type": "bytes4"
        }
      ],
      "stateMutability": "nonpayable",
      "type": "function"
    },
    {
      "inputs": [
        {
          "internalType": "address",
          "name": "",
          "type": "address"
        },
        {
          "internalType": "address",
          "name": "",
          "type": "address"
        },
        {
          "internalType": "uint256",
          "name": "",
          "type": "uint256"
        },
        {
          "internalType": "bytes",
          "name": "",
          "type": "bytes"
        }
      ],
      "name": "onERC721Received",
      "outputs": [
        {
          "internalType": "bytes4",
          "name": "",
          "type": "bytes4"
        }
      ],
      "stateMutability": "nonpayable",
      "type": "function"
    },
    {
      "inputs": [],
      "name": "owner",
      "outputs": [
        {
          "internalType": "address",
          "name": "",
          "type": "address"
        }
      ],
      "stateMutability": "view",
      "type": "function"
    },
    {
      "inputs": [],
      "name": "platformFee",
      "outputs": [
        {
          "internalType": "uint256",
          "name": "",
          "type": "uint256"
        }
      ],
      "stateMutability": "view",
      "type": "function"
    },
    {
      "inputs": [],
      "name": "platformWallet",
      "outputs": [
        {
          "internalType": "address payable",
          "name": "",
          "type": "address"
        }
      ],
      "stateMutability": "view",
      "type": "function"
    },
    {
      "inputs": [],
      "name": "proxiableUUID",
      "outputs": [
        {
          "internalType": "bytes32",
          "name": "",
          "type": "bytes32"
        }
      ],
      "stateMutability": "view",
      "type": "function"
    },
    {
      "inputs": [],
      "name": "renounceOwnership",
      "outputs": [],
      "stateMutability": "nonpayable",
      "type": "function"
    },
    {
      "inputs": [
        {
          "internalType": "address",
          "name": "newOwner",
          "type": "address"
        }
      ],
      "name": "transferOwnership",
      "outputs": [],
      "stateMutability": "nonpayable",
      "type": "function"
    },
    {
      "inputs": [
        {
          "internalType": "uint256",
          "name": "_itemId",
          "type": "uint256"
        },
        {
          "internalType": "uint256",
          "name": "newPrice",
          "type": "uint256"
        }
      ],
      "name": "updateListedItemPrice",
      "outputs": [],
      "stateMutability": "nonpayable",
      "type": "function"
    },
    {
      "inputs": [
        {
          "internalType": "address",
          "name": "newImplementation",
          "type": "address"
        }
      ],
      "name": "upgradeTo",
      "outputs": [],
      "stateMutability": "nonpayable",
      "type": "function"
    },
    {
      "inputs": [
        {
          "internalType": "address",
          "name": "newImplementation",
          "type": "address"
        },
        {
          "internalType": "bytes",
          "name": "data",
          "type": "bytes"
        }
      ],
      "name": "upgradeToAndCall",
      "outputs": [],
      "stateMutability": "payable",
      "type": "function"
    }
  ],
  "bytecode": "0x60a06040523073ffffffffffffffffffffffffffffffffffffffff1660809073ffffffffffffffffffffffffffffffffffffffff1660601b81525034801561004657600080fd5b5060805160601c61682e6200008260003960008181611dc401528181611e5301528181611f4d01528181611fdc01526129d8015261682e6000f3fe6080604052600436106101405760003560e01c80638da5cb5b116100b6578063d56d229d1161006f578063d56d229d14610408578063e61a70c014610433578063f064c32e1461047a578063f23a6e61146104a5578063f2fde38b146104e2578063fa2af9da1461050b57610140565b80638da5cb5b146102fa578063a1cfe2f714610325578063a6e22b0214610350578063bd68b11714610379578063c6c03af5146103b6578063cf756fdf146103df57610140565b80633659cfe6116101085780633659cfe61461022c5780634f1ef2861461025557806351ed82881461027157806352d1902d1461028d5780636d688fa9146102b8578063715018a6146102e357610140565b80630f08efe014610145578063150b7a0214610170578063202e3740146101ad57806326232a2e146101d85780632a2cfd3314610203575b600080fd5b34801561015157600080fd5b5061015a610536565b6040516101679190614fd3565b60405180910390f35b34801561017c57600080fd5b50610197600480360381019061019291906151a7565b610a0e565b6040516101a49190615265565b60405180910390f35b3480156101b957600080fd5b506101c2610a5e565b6040516101cf9190614fd3565b60405180910390f35b3480156101e457600080fd5b506101ed61104c565b6040516101fa919061528f565b60405180910390f35b34801561020f57600080fd5b5061022a600480360381019061022591906152d6565b611053565b005b34801561023857600080fd5b50610253600480360381019061024e9190615329565b611dc2565b005b61026f600480360381019061026a9190615356565b611f4b565b005b61028b600480360381019061028691906153b2565b612088565b005b34801561029957600080fd5b506102a26129d4565b6040516102af91906153f8565b60405180910390f35b3480156102c457600080fd5b506102cd612a8d565b6040516102da919061528f565b60405180910390f35b3480156102ef57600080fd5b506102f8612ad2565b005b34801561030657600080fd5b5061030f612ae6565b60405161031c9190615422565b60405180910390f35b34801561033157600080fd5b5061033a612b10565b604051610347919061549c565b60405180910390f35b34801561035c57600080fd5b50610377600480360381019061037291906153b2565b612b36565b005b34801561038557600080fd5b506103a0600480360381019061039b9190615329565b6130e1565b6040516103ad9190614fd3565b60405180910390f35b3480156103c257600080fd5b506103dd60048036038101906103d891906154b7565b6136d1565b005b3480156103eb57600080fd5b50610406600480360381019061040191906154f7565b613a3f565b005b34801561041457600080fd5b5061041d613d31565b60405161042a919061557f565b60405180910390f35b34801561043f57600080fd5b5061045a600480360381019061045591906153b2565b613d57565b6040516104719b9a999897969594939291906155a9565b60405180910390f35b34801561048657600080fd5b5061048f613e2c565b60405161049c9190614fd3565b60405180910390f35b3480156104b157600080fd5b506104cc60048036038101906104c79190615654565b614419565b6040516104d99190615265565b60405180910390f35b3480156104ee57600080fd5b5061050960048036038101906105049190615329565b61446a565b005b34801561051757600080fd5b506105206144ee565b60405161052d919061570c565b60405180910390f35b606061054c67b52c71f8f6908fc360c01b614515565b6105606728f22066f0446af360c01b614515565b6105746766bb2f0f80f059d760c01b614515565b600061058060fb614518565b905061059667290349869d9fdb6760c01b614515565b6105aa6769102ddd748d273760c01b614515565b60006105b660fc614518565b6105c060fb614518565b6105ca9190615756565b90506105e06785b05e463cad351660c01b614515565b6105f4677f4bbeaccf1aa90b60c01b614515565b600061060a67f630126265b0477960c01b614515565b61061e670ec6f4c163464e6d60c01b614515565b60008267ffffffffffffffff81111561063a5761063961507c565b5b60405190808252806020026020018201604052801561067357816020015b610660614d2d565b8152602001906001900390816106585790505b50905061068a671ec84c4b48ef8f9560c01b614515565b61069e677a48e8b1c867c7ec60c01b614515565b60005b848110156109db576106bd6771cdc58a90bd51fa60c01b614515565b6106d167fb9577bfbc2da08560c01b614515565b600073ffffffffffffffffffffffffffffffffffffffff1661010260006001846106fb919061578a565b815260200190815260200160002060040160009054906101000a900473ffffffffffffffffffffffffffffffffffffffff1673ffffffffffffffffffffffffffffffffffffffff1614156109b35761075d67cad7f15d17a2e1ad60c01b614515565b61077167dfd45328bc6d5ad960c01b614515565b6107856792790e8cffdefd9160c01b614515565b6000600182610794919061578a565b90506107aa67ad31426e5a3d255360c01b614515565b6107be67f7988da8b83b340360c01b614515565b6000610102600083815260200190815260200160002090506107ea6724e3b0bc703efff560c01b614515565b80604051806101600160405290816000820160009054906101000a900473ffffffffffffffffffffffffffffffffffffffff1673ffffffffffffffffffffffffffffffffffffffff1673ffffffffffffffffffffffffffffffffffffffff1681526020016000820160149054906101000a900460ff1615151515815260200160018201548152602001600282015481526020016003820160009054906101000a900473ffffffffffffffffffffffffffffffffffffffff1673ffffffffffffffffffffffffffffffffffffffff1673ffffffffffffffffffffffffffffffffffffffff1681526020016004820160009054906101000a900473ffffffffffffffffffffffffffffffffffffffff1673ffffffffffffffffffffffffffffffffffffffff1673ffffffffffffffffffffffffffffffffffffffff168152602001600582015481526020016006820154815260200160078201548152602001600882015481526020016009820160009054906101000a900460ff16151515158152505084868151811061097e5761097d6157e0565b5b602002602001018190525061099d67ff0751104593245f60c01b614515565b6001856109aa919061578a565b945050506109c8565b6109c7677820697d9121ebbd60c01b614515565b5b80806109d39061580f565b9150506106a1565b506109f067fcf41e11733e3b4060c01b614515565b610a0467501384f2c6e4e41060c01b614515565b8094505050505090565b6000610a24677eeb5e73cc537a4b60c01b614515565b610a3867fa19ec9342064fcb60c01b614515565b610a4c67e6e5d8c4b1afd71d60c01b614515565b63150b7a0260e01b9050949350505050565b6060610a7467e8208d689565993d60c01b614515565b610a8867fa69ed11b556e0e660c01b614515565b610a9c67099e88625355b18f60c01b614515565b6000610aa860fb614518565b9050610abe67f5e0ff9fff7e305860c01b614515565b610ad2678734bdb72bf7629860c01b614515565b6000610ae86713ee36c99ece133e60c01b614515565b610afc67564b53ccf4ed79db60c01b614515565b6000610b12670ef05de8a31dab0360c01b614515565b610b26674ae8135588f7d48860c01b614515565b60005b83811015610c3457610b456789289fe8ab5b71b160c01b614515565b610b596792045a0a6f5968db60c01b614515565b3373ffffffffffffffffffffffffffffffffffffffff166101026000600184610b82919061578a565b815260200190815260200160002060040160009054906101000a900473ffffffffffffffffffffffffffffffffffffffff1673ffffffffffffffffffffffffffffffffffffffff161415610c0c57610be46763d436da2888dac960c01b614515565b610bf867dccbcddd690c553060c01b614515565b600183610c05919061578a565b9250610c21565b610c20671237aee0f46bd4f460c01b614515565b5b8080610c2c9061580f565b915050610b29565b50610c49674f1a7ff7c64af91360c01b614515565b610c5d67c4a639ab1a7eed4760c01b614515565b60008267ffffffffffffffff811115610c7957610c7861507c565b5b604051908082528060200260200182016040528015610cb257816020015b610c9f614d2d565b815260200190600190039081610c975790505b509050610cc967e2fd3afecc32bacc60c01b614515565b610cdd67493377316f88474160c01b614515565b60005b8481101561101957610cfc67be9d87e7f56b80db60c01b614515565b610d106778a66c4f6dd4827460c01b614515565b3373ffffffffffffffffffffffffffffffffffffffff166101026000600184610d39919061578a565b815260200190815260200160002060040160009054906101000a900473ffffffffffffffffffffffffffffffffffffffff1673ffffffffffffffffffffffffffffffffffffffff161415610ff157610d9b671697e06f23ca737460c01b614515565b610daf672783e53fc70b1bf060c01b614515565b610dc367a9be01346ac6e6fb60c01b614515565b6000600182610dd2919061578a565b9050610de867911c21a4b2b8412460c01b614515565b610dfc67643d68507653d1f360c01b614515565b600061010260008381526020019081526020016000209050610e28679f86db080691337560c01b614515565b80604051806101600160405290816000820160009054906101000a900473ffffffffffffffffffffffffffffffffffffffff1673ffffffffffffffffffffffffffffffffffffffff1673ffffffffffffffffffffffffffffffffffffffff1681526020016000820160149054906101000a900460ff1615151515815260200160018201548152602001600282015481526020016003820160009054906101000a900473ffffffffffffffffffffffffffffffffffffffff1673ffffffffffffffffffffffffffffffffffffffff1673ffffffffffffffffffffffffffffffffffffffff1681526020016004820160009054906101000a900473ffffffffffffffffffffffffffffffffffffffff1673ffffffffffffffffffffffffffffffffffffffff1673ffffffffffffffffffffffffffffffffffffffff168152602001600582015481526020016006820154815260200160078201548152602001600882015481526020016009820160009054906101000a900460ff161515151581525050848681518110610fbc57610fbb6157e0565b5b6020026020010181905250610fdb676f188d3d683a137560c01b614515565b600185610fe8919061578a565b94505050611006565b611005673bb6a4a6c9ca92a360c01b614515565b5b80806110119061580f565b915050610ce0565b5061102e67adfeb689b5eb102e60c01b614515565b611042671e8c3188ec730a7c60c01b614515565b8094505050505090565b6101005481565b6110676763dd7c92fb1b50fd60c01b614515565b61106f614526565b611083672450371fa350335e60c01b614515565b61109767c6f87c9911da3dda60c01b614515565b6110ab6776ba9a443d86206e60c01b614515565b6110bf67a75110278f84392860c01b614515565b600115158115151415611756576110e067e5dba52a9f2a0ace60c01b614515565b6110f4676b897baaa4bb40e160c01b614515565b61110867fa2688f9e415a0eb60c01b614515565b61111c6793880876cbf2d56a60c01b614515565b3373ffffffffffffffffffffffffffffffffffffffff1660fd60009054906101000a900473ffffffffffffffffffffffffffffffffffffffff1673ffffffffffffffffffffffffffffffffffffffff16636352211e856040518263ffffffff1660e01b815260040161118e919061528f565b60206040518083038186803b1580156111a657600080fd5b505afa1580156111ba573d6000803e3d6000fd5b505050506040513d601f19601f820116820180604052508101906111de919061586d565b73ffffffffffffffffffffffffffffffffffffffff1614611234576040517f08c379a000000000000000000000000000000000000000000000000000000000815260040161122b9061591d565b60405180910390fd5b611248672035cd0b1f1881ca60c01b614515565b61125c67f2c2cc70bfe793ba60c01b614515565b61127067730e58bf098a6f1560c01b614515565b6112846731f0e40f6389ca2b60c01b614515565b600082116112c7576040517f08c379a00000000000000000000000000000000000000000000000000000000081526004016112be90615989565b60405180910390fd5b6112db6741b1ae82e34c108f60c01b614515565b6112ef67149484a54ca61e7e60c01b614515565b61130367f10a3c4504f5362160c01b614515565b61130d60fb614576565b6113216723fe25f4c3b8567360c01b614515565b61133567a6c44ea6350b516060c01b614515565b600061134160fb614518565b905061135767062264697db21ff860c01b614515565b61136b670153449fa89ff08960c01b614515565b6000612710610100548561137f91906159a9565b6113899190615a32565b905061139f67174d1b55c016b80b60c01b614515565b6113b367103eba8aa515023c60c01b614515565b600081856113c1919061578a565b90506113d767dde533f02e06704a60c01b614515565b60405180610160016040528060fd60009054906101000a900473ffffffffffffffffffffffffffffffffffffffff1673ffffffffffffffffffffffffffffffffffffffff1681526020016001151581526020018481526020018781526020013373ffffffffffffffffffffffffffffffffffffffff168152602001600073ffffffffffffffffffffffffffffffffffffffff16815260200186815260200161010054815260200183815260200182815260200160001515815250610102600085815260200190815260200160002060008201518160000160006101000a81548173ffffffffffffffffffffffffffffffffffffffff021916908373ffffffffffffffffffffffffffffffffffffffff16021790555060208201518160000160146101000a81548160ff021916908315150217905550604082015181600101556060820151816002015560808201518160030160006101000a81548173ffffffffffffffffffffffffffffffffffffffff021916908373ffffffffffffffffffffffffffffffffffffffff16021790555060a08201518160040160006101000a81548173ffffffffffffffffffffffffffffffffffffffff021916908373ffffffffffffffffffffffffffffffffffffffff16021790555060c0820151816005015560e08201518160060155610100820151816007015561012082015181600801556101408201518160090160006101000a81548160ff021916908315150217905550905050611610673632b897e1ed98ef60c01b614515565b61162467fb0623d8fff089a160c01b614515565b60fd60009054906101000a900473ffffffffffffffffffffffffffffffffffffffff1673ffffffffffffffffffffffffffffffffffffffff166342842e0e3330896040518463ffffffff1660e01b815260040161168393929190615a63565b600060405180830381600087803b15801561169d57600080fd5b505af11580156116b1573d6000803e3d6000fd5b505050506116c9677908b41bcf0526b360c01b614515565b6116dd67cc8f49419cb2793c60c01b614515565b85837fe712e5677502bdc7429522e7fe50fc506009998b66c378cfbff45e2ce4f3724d60fd60009054906101000a900473ffffffffffffffffffffffffffffffffffffffff1660013360008b610100548a8a600060405161174699989796959493929190615a9a565b60405180910390a3505050611db5565b61176a674a35118d474703e260c01b614515565b61177e67eff3c01ad24546a760c01b614515565b61179267e5f4a3e2c4a6486160c01b614515565b6117a6673b990abdddacf32960c01b614515565b600160fe60009054906101000a900473ffffffffffffffffffffffffffffffffffffffff1673ffffffffffffffffffffffffffffffffffffffff1662fdd58e33866040518363ffffffff1660e01b8152600401611804929190615b27565b60206040518083038186803b15801561181c57600080fd5b505afa158015611830573d6000803e3d6000fd5b505050506040513d601f19601f820116820180604052508101906118549190615b65565b14611894576040517f08c379a000000000000000000000000000000000000000000000000000000000815260040161188b90615c04565b60405180910390fd5b6118a86774a23a181407e67960c01b614515565b6118bc67aa68ca5e4ba13ec360c01b614515565b6118d0673367026f33425c4c60c01b614515565b6118e467105500f212e7145e60c01b614515565b60008211611927576040517f08c379a000000000000000000000000000000000000000000000000000000000815260040161191e90615989565b60405180910390fd5b61193b671abc2613f93ebbfc60c01b614515565b61194f67aaf6db4c73b648e660c01b614515565b61196367e982b0ffa10a141460c01b614515565b61196d60fb614576565b611981671fe646b9c7f772df60c01b614515565b611995670b70df5bd023a6eb60c01b614515565b60006119a160fb614518565b90506119b767330f901aed33d8fd60c01b614515565b6119cb67d13aa3454599d73160c01b614515565b600061271061010054856119df91906159a9565b6119e99190615a32565b90506119ff6797c9331289adc9bd60c01b614515565b611a1367a1c0e59e6bf2e15160c01b614515565b60008185611a21919061578a565b9050611a376788b2258005eac4a160c01b614515565b60405180610160016040528060fe60009054906101000a900473ffffffffffffffffffffffffffffffffffffffff1673ffffffffffffffffffffffffffffffffffffffff1681526020016000151581526020018481526020018781526020013373ffffffffffffffffffffffffffffffffffffffff168152602001600073ffffffffffffffffffffffffffffffffffffffff16815260200186815260200161010054815260200183815260200182815260200160001515815250610102600085815260200190815260200160002060008201518160000160006101000a81548173ffffffffffffffffffffffffffffffffffffffff021916908373ffffffffffffffffffffffffffffffffffffffff16021790555060208201518160000160146101000a81548160ff021916908315150217905550604082015181600101556060820151816002015560808201518160030160006101000a81548173ffffffffffffffffffffffffffffffffffffffff021916908373ffffffffffffffffffffffffffffffffffffffff16021790555060a08201518160040160006101000a81548173ffffffffffffffffffffffffffffffffffffffff021916908373ffffffffffffffffffffffffffffffffffffffff16021790555060c0820151816005015560e08201518160060155610100820151816007015561012082015181600801556101408201518160090160006101000a81548160ff021916908315150217905550905050611c7067c3149c250aeb7bc160c01b614515565b611c8467be68b4f3739bb7e660c01b614515565b60fe60009054906101000a900473ffffffffffffffffffffffffffffffffffffffff1673ffffffffffffffffffffffffffffffffffffffff1663f242432a33308960016040518563ffffffff1660e01b8152600401611ce69493929190615c96565b600060405180830381600087803b158015611d0057600080fd5b505af1158015611d14573d6000803e3d6000fd5b50505050611d2c673554c95be69111b560c01b614515565b611d40670a3f7f4783fb3db560c01b614515565b85837fe712e5677502bdc7429522e7fe50fc506009998b66c378cfbff45e2ce4f3724d60fe60009054906101000a900473ffffffffffffffffffffffffffffffffffffffff1660003360008b610100548a8a6000604051611da999989796959493929190615a9a565b60405180910390a35050505b611dbd61458c565b505050565b7f000000000000000000000000000000000000000000000000000000000000000073ffffffffffffffffffffffffffffffffffffffff163073ffffffffffffffffffffffffffffffffffffffff161415611e51576040517f08c379a0000000000000000000000000000000000000000000000000000000008152600401611e4890615d60565b60405180910390fd5b7f000000000000000000000000000000000000000000000000000000000000000073ffffffffffffffffffffffffffffffffffffffff16611e90614596565b73ffffffffffffffffffffffffffffffffffffffff1614611ee6576040517f08c379a0000000000000000000000000000000000000000000000000000000008152600401611edd90615df2565b60405180910390fd5b611eef816145ed565b611f4881600067ffffffffffffffff811115611f0e57611f0d61507c565b5b6040519080825280601f01601f191660200182016040528015611f405781602001600182028036833780820191505090505b506000614634565b50565b7f000000000000000000000000000000000000000000000000000000000000000073ffffffffffffffffffffffffffffffffffffffff163073ffffffffffffffffffffffffffffffffffffffff161415611fda576040517f08c379a0000000000000000000000000000000000000000000000000000000008152600401611fd190615d60565b60405180910390fd5b7f000000000000000000000000000000000000000000000000000000000000000073ffffffffffffffffffffffffffffffffffffffff16612019614596565b73ffffffffffffffffffffffffffffffffffffffff161461206f576040517f08c379a000000000000000000000000000000000000000000000000000000000815260040161206690615df2565b60405180910390fd5b612078826145ed565b61208482826001614634565b5050565b61209c677ae2a6e20e2db35a60c01b614515565b6120a4614526565b6120b867527c45c9ee0d50f660c01b614515565b6120cc67440c3086d761042b60c01b614515565b6120e0679145be58533dc78f60c01b614515565b6120f4676a4fe548befb898f60c01b614515565b6000610102600083815260200190815260200160002060000160149054906101000a900460ff16905061213167d28c8e2692f6772160c01b614515565b61214567183b39610d1c4f6360c01b614515565b60006101026000848152602001908152602001600020600801549050612175679850c45193a1d04460c01b614515565b6121896725d7d4ff8534782e60c01b614515565b600061010260008581526020019081526020016000206002015490506121b9671ac7e89fc332915760c01b614515565b6121cd6705f1823b497dc3fe60c01b614515565b6000610102600086815260200190815260200160002060030160009054906101000a900473ffffffffffffffffffffffffffffffffffffffff16905061221d67b24001c6b62b882260c01b614515565b61223167ef2a099048456f0060c01b614515565b600061010260008781526020019081526020016000206007015490506122616722f6cf446494c17d60c01b614515565b6122756730675d611d3b703060c01b614515565b612289671feb38cd7c02c24760c01b614515565b600073ffffffffffffffffffffffffffffffffffffffff16610102600088815260200190815260200160002060040160009054906101000a900473ffffffffffffffffffffffffffffffffffffffff1673ffffffffffffffffffffffffffffffffffffffff161461232f576040517f08c379a000000000000000000000000000000000000000000000000000000000815260040161232690615e5e565b60405180910390fd5b612343673da003c6cdb6eace60c01b614515565b612357676886921dfd9e9f7760c01b614515565b61236b67ad3d6bb2ccf3f4ae60c01b614515565b61237f674a63f4ae93f3c13960c01b614515565b3373ffffffffffffffffffffffffffffffffffffffff16610102600088815260200190815260200160002060030160009054906101000a900473ffffffffffffffffffffffffffffffffffffffff1673ffffffffffffffffffffffffffffffffffffffff161415612425576040517f08c379a000000000000000000000000000000000000000000000000000000000815260040161241c90615eca565b60405180910390fd5b612439679e1ce7ad9a155bdc60c01b614515565b61244d67a32d69a86730291a60c01b614515565b61246167e6d578efb6abad3160c01b614515565b61247567d8139391c528dbf060c01b614515565b833410156124b8576040517f08c379a00000000000000000000000000000000000000000000000000000000081526004016124af90615f36565b60405180910390fd5b6124cc678c4391b66427788660c01b614515565b6124e06746ff42a22c9096cb60c01b614515565b6124f467a817bafcb466ddd260c01b614515565b833411156125bd57612510678466c390e58f93b960c01b614515565b612524673a2171e6e5f789fa60c01b614515565b61253867c2d4e8b8992f97f560c01b614515565b600084346125469190615756565b905061255c67de079501355ed3f960c01b614515565b612570676f43986953abb83660c01b614515565b3373ffffffffffffffffffffffffffffffffffffffff166108fc829081150290604051600060405180830381858888f193505050501580156125b6573d6000803e3d6000fd5b50506125d2565b6125d1679a7564c3bf82e56c60c01b614515565b5b6125e667d58feec33c0f9d4060c01b614515565b6125fa67be79e79521a1e7a860c01b614515565b600081856126089190615756565b905061261e672f903fdb6418565460c01b614515565b61263267fdbb1e9a4e32cc1960c01b614515565b8273ffffffffffffffffffffffffffffffffffffffff166108fc829081150290604051600060405180830381858888f19350505050158015612678573d6000803e3d6000fd5b5061268d6704b9b2c4cf102a2360c01b614515565b6126a1674173eb60c3b98d3960c01b614515565b61010160009054906101000a900473ffffffffffffffffffffffffffffffffffffffff1673ffffffffffffffffffffffffffffffffffffffff166108fc839081150290604051600060405180830381858888f1935050505015801561270a573d6000803e3d6000fd5b5061271f67ad7aa46d590070d660c01b614515565b61273367d6bbf8a2c2077b6260c01b614515565b6001151586151514156128125761275467d6029f69e47029b360c01b614515565b612768673225a042216a926460c01b614515565b61277c678de8ad898fd949b660c01b614515565b60fd60009054906101000a900473ffffffffffffffffffffffffffffffffffffffff1673ffffffffffffffffffffffffffffffffffffffff166342842e0e3033876040518463ffffffff1660e01b81526004016127db93929190615a63565b600060405180830381600087803b1580156127f557600080fd5b505af1158015612809573d6000803e3d6000fd5b505050506128e3565b61282667e9e1b3516e4d582d60c01b614515565b61283a67b8898c7fde286bf260c01b614515565b61284e67745f09ff8d99e33760c01b614515565b60fe60009054906101000a900473ffffffffffffffffffffffffffffffffffffffff1673ffffffffffffffffffffffffffffffffffffffff1663f242432a30338760016040518563ffffffff1660e01b81526004016128b09493929190615c96565b600060405180830381600087803b1580156128ca57600080fd5b505af11580156128de573d6000803e3d6000fd5b505050505b6128f767a6b3527586a4ea1b60c01b614515565b33610102600089815260200190815260200160002060040160006101000a81548173ffffffffffffffffffffffffffffffffffffffff021916908373ffffffffffffffffffffffffffffffffffffffff16021790555061296167b15e5b403da4543c60c01b614515565b6001610102600089815260200190815260200160002060090160006101000a81548160ff0219169083151502179055506129a567424d584253ac084d60c01b614515565b6129b967c9f0bd3ca7594f1e60c01b614515565b6129c360fc614576565b5050505050506129d161458c565b50565b60007f000000000000000000000000000000000000000000000000000000000000000073ffffffffffffffffffffffffffffffffffffffff163073ffffffffffffffffffffffffffffffffffffffff1614612a64576040517f08c379a0000000000000000000000000000000000000000000000000000000008152600401612a5b90615fc8565b60405180910390fd5b7f360894a13ba1a3210667c828492db98dca3e2076cc3735a920a3ca505d382bbc60001b905090565b6000612aa3672589e823755068db60c01b6147b1565b612ab7673e973cb6776b15c660c01b6147b1565b612acb67d23d0ed80a7c676260c01b6147b1565b6002905090565b612ada6147b4565b612ae46000614832565b565b6000603360009054906101000a900473ffffffffffffffffffffffffffffffffffffffff16905090565b60fe60009054906101000a900473ffffffffffffffffffffffffffffffffffffffff1681565b612b4a670444f9936402314d60c01b614515565b612b52614526565b612b666784d5aa837d92187360c01b614515565b612b7a67832f9ff530d9886a60c01b614515565b612b8e6737cafb101881294f60c01b614515565b612ba26713d0b480083fc84b60c01b614515565b6000610102600083815260200190815260200160002060000160149054906101000a900460ff169050612bdf6734551b8fe6f9c34560c01b614515565b612bf3678605afedfc844ffb60c01b614515565b60006101026000848152602001908152602001600020600201549050612c23678a6735793abc083860c01b614515565b612c3767add1b158c215983060c01b614515565b612c4b67665bccfc0c70a6b760c01b614515565b3373ffffffffffffffffffffffffffffffffffffffff16610102600085815260200190815260200160002060030160009054906101000a900473ffffffffffffffffffffffffffffffffffffffff1673ffffffffffffffffffffffffffffffffffffffff1614612cf0576040517f08c379a0000000000000000000000000000000000000000000000000000000008152600401612ce79061605a565b60405180910390fd5b612d0467e720999e3351b99160c01b614515565b612d18670906e34449d281a660c01b614515565b612d2c671433f332c87634dd60c01b614515565b600115158215151415612e9757612d4d67e7ebe28e190dc79f60c01b614515565b612d6167335998dacf2509bb60c01b614515565b610102600084815260200190815260200160002060000160009054906101000a900473ffffffffffffffffffffffffffffffffffffffff1660fd60006101000a81548173ffffffffffffffffffffffffffffffffffffffff021916908373ffffffffffffffffffffffffffffffffffffffff160217905550612ded67b7e6dd7574ba1aaf60c01b614515565b612e0167b719824c4693cace60c01b614515565b60fd60009054906101000a900473ffffffffffffffffffffffffffffffffffffffff1673ffffffffffffffffffffffffffffffffffffffff166342842e0e3033846040518463ffffffff1660e01b8152600401612e6093929190615a63565b600060405180830381600087803b158015612e7a57600080fd5b505af1158015612e8e573d6000803e3d6000fd5b50505050612ff4565b612eab673b82cd83de04d11260c01b614515565b612ebf67ee2affc872cf962c60c01b614515565b610102600084815260200190815260200160002060000160009054906101000a900473ffffffffffffffffffffffffffffffffffffffff1660fe60006101000a81548173ffffffffffffffffffffffffffffffffffffffff021916908373ffffffffffffffffffffffffffffffffffffffff160217905550612f4b67ad77ef96a8df96a160c01b614515565b612f5f67307fc82ce395cc6d60c01b614515565b60fe60009054906101000a900473ffffffffffffffffffffffffffffffffffffffff1673ffffffffffffffffffffffffffffffffffffffff1663f242432a30338460016040518563ffffffff1660e01b8152600401612fc19493929190615c96565b600060405180830381600087803b158015612fdb57600080fd5b505af1158015612fef573d6000803e3d6000fd5b505050505b6130086744499b669e814f1b60c01b614515565b33610102600085815260200190815260200160002060040160006101000a81548173ffffffffffffffffffffffffffffffffffffffff021916908373ffffffffffffffffffffffffffffffffffffffff160217905550613072672f9e8c3b93cede7160c01b614515565b6001610102600085815260200190815260200160002060090160006101000a81548160ff0219169083151502179055506130b66794edb4332ae969ca60c01b614515565b6130ca679acce3352299e66460c01b614515565b6130d460fc614576565b50506130de61458c565b50565b60606130f767a52d6ec34eceabc760c01b614515565b61310b67d9327adc5128857760c01b614515565b61311f670f88db7c0dd896f160c01b614515565b600061312b60fb614518565b9050613141674fbb28c448a8808260c01b614515565b61315567ac0fe77a5bd43f5860c01b614515565b600061316b674422204cdd580e3f60c01b614515565b61317f67e342101df5dc37ae60c01b614515565b600061319567247be178dabe98b060c01b614515565b6131a96786415022becde60d60c01b614515565b60005b838110156132b7576131c867b4ecaca2b6b61f9860c01b614515565b6131dc67d4731573c10d044460c01b614515565b8573ffffffffffffffffffffffffffffffffffffffff166101026000600184613205919061578a565b815260200190815260200160002060040160009054906101000a900473ffffffffffffffffffffffffffffffffffffffff1673ffffffffffffffffffffffffffffffffffffffff16141561328f576132676725d91d72e2771b1460c01b614515565b61327b67478f9ef2b8cd635b60c01b614515565b600183613288919061578a565b92506132a4565b6132a3671b639d578c493a8f60c01b614515565b5b80806132af9061580f565b9150506131ac565b506132cc67c59194001be512d460c01b614515565b6132e06704cf8bafbe22124060c01b614515565b60008267ffffffffffffffff8111156132fc576132fb61507c565b5b60405190808252806020026020018201604052801561333557816020015b613322614d2d565b81526020019060019003908161331a5790505b50905061334c67f92014ebfa6f8e2260c01b614515565b61336067b88394931589f8c760c01b614515565b60005b8481101561369c5761337f67d203caeecbb6bb8960c01b614515565b61339367d8c346e3d8f58cda60c01b614515565b8673ffffffffffffffffffffffffffffffffffffffff1661010260006001846133bc919061578a565b815260200190815260200160002060040160009054906101000a900473ffffffffffffffffffffffffffffffffffffffff1673ffffffffffffffffffffffffffffffffffffffff1614156136745761341e677f50f3708f0cbbf460c01b614515565b6134326709315dc63d5cbbf860c01b614515565b613446673a65b9c8bbf949e160c01b614515565b6000600182613455919061578a565b905061346b676cefd49c91b8ab4960c01b614515565b61347f67beb7ea6cf818716660c01b614515565b6000610102600083815260200190815260200160002090506134ab67549bb6ef21407bb460c01b614515565b80604051806101600160405290816000820160009054906101000a900473ffffffffffffffffffffffffffffffffffffffff1673ffffffffffffffffffffffffffffffffffffffff1673ffffffffffffffffffffffffffffffffffffffff1681526020016000820160149054906101000a900460ff1615151515815260200160018201548152602001600282015481526020016003820160009054906101000a900473ffffffffffffffffffffffffffffffffffffffff1673ffffffffffffffffffffffffffffffffffffffff1673ffffffffffffffffffffffffffffffffffffffff1681526020016004820160009054906101000a900473ffffffffffffffffffffffffffffffffffffffff1673ffffffffffffffffffffffffffffffffffffffff1673ffffffffffffffffffffffffffffffffffffffff168152602001600582015481526020016006820154815260200160078201548152602001600882015481526020016009820160009054906101000a900460ff16151515158152505084868151811061363f5761363e6157e0565b5b602002602001018190525061365e673537732c1c1d898e60c01b614515565b60018561366b919061578a565b94505050613689565b6136886737dbfd0ace1f36f360c01b614515565b5b80806136949061580f565b915050613363565b506136b1674610ddbc192d9d5860c01b614515565b6136c56721c6bd44d31359e460c01b614515565b80945050505050919050565b6136e56776ed12fb93a3c09360c01b6147b1565b6136f96768e43756555f17e660c01b6147b1565b61370d67f7d41f6bec278bde60c01b6147b1565b613721675d8bd3c443d84af460c01b6147b1565b816101026000848152602001908152602001600020600101541461377a576040517f08c379a0000000000000000000000000000000000000000000000000000000008152600401613771906160c6565b60405180910390fd5b61378e67d74210ebafe60cf260c01b6147b1565b6137a2673bcba398c1bc5ebc60c01b6147b1565b6137b6674ada391b6c81244960c01b6147b1565b6137ca67e3f3625561934f3560c01b6147b1565b3373ffffffffffffffffffffffffffffffffffffffff16610102600084815260200190815260200160002060030160009054906101000a900473ffffffffffffffffffffffffffffffffffffffff1673ffffffffffffffffffffffffffffffffffffffff161461386f576040517f08c379a000000000000000000000000000000000000000000000000000000000815260040161386690616132565b60405180910390fd5b61388367e2f16af2dcffb73360c01b6147b1565b61389767de2f6dc583f6974060c01b6147b1565b6138ab6751999d5a103600f360c01b6147b1565b6138bf67e3436441f0a77e5360c01b6147b1565b600073ffffffffffffffffffffffffffffffffffffffff16610102600084815260200190815260200160002060040160009054906101000a900473ffffffffffffffffffffffffffffffffffffffff1673ffffffffffffffffffffffffffffffffffffffff1614613965576040517f08c379a000000000000000000000000000000000000000000000000000000000815260040161395c90615e5e565b60405180910390fd5b61397866ac77f61517971860c01b6147b1565b61398c6706322171216f2d7f60c01b6147b1565b6139a067fa4652dfb0b66dcd60c01b6147b1565b6139b4676e038dcb017acf6f60c01b6147b1565b600081116139f7576040517f08c379a00000000000000000000000000000000000000000000000000000000081526004016139ee90615989565b60405180910390fd5b613a0b67adae4d39867d16d260c01b6147b1565b613a1f672f7b481bcb8ada3860c01b6147b1565b806101026000848152602001908152602001600020600501819055505050565b613a5367e0beae1d059760aa60c01b614515565b60008060019054906101000a900460ff16159050808015613a845750600160008054906101000a900460ff1660ff16105b80613ab15750613a93306148f8565b158015613ab05750600160008054906101000a900460ff1660ff16145b5b613af0576040517f08c379a0000000000000000000000000000000000000000000000000000000008152600401613ae7906161c4565b60405180910390fd5b60016000806101000a81548160ff021916908360ff1602179055508015613b2d576001600060016101000a81548160ff0219169083151502179055505b613b4167795cdce26f51e44860c01b614515565b613b55674a1e60e5ee33f90e60c01b614515565b613b696732a8b7b799010c9160c01b614515565b8460fd60006101000a81548173ffffffffffffffffffffffffffffffffffffffff021916908373ffffffffffffffffffffffffffffffffffffffff160217905550613bbe67f62f2d3105a5997e60c01b614515565b8360fe60006101000a81548173ffffffffffffffffffffffffffffffffffffffff021916908373ffffffffffffffffffffffffffffffffffffffff160217905550613c1367326201a26d9f309460c01b614515565b8261010160006101000a81548173ffffffffffffffffffffffffffffffffffffffff021916908373ffffffffffffffffffffffffffffffffffffffff160217905550613c696721a1de22f941be3060c01b614515565b8161010081905550613c8567bbc141262061c42860c01b614515565b613c99678700d356bff74def60c01b614515565b613ca161491b565b613cb567c45df699790c24f960c01b614515565b613cc967511b9d106430951460c01b614515565b613cd1614974565b8015613d2a5760008060016101000a81548160ff0219169083151502179055507f7f26b83ff96e1f2b6a682f133852f6798a09c465da95921460cefb38474024986001604051613d219190616222565b60405180910390a15b5050505050565b60fd60009054906101000a900473ffffffffffffffffffffffffffffffffffffffff1681565b6101026020528060005260406000206000915090508060000160009054906101000a900473ffffffffffffffffffffffffffffffffffffffff16908060000160149054906101000a900460ff16908060010154908060020154908060030160009054906101000a900473ffffffffffffffffffffffffffffffffffffffff16908060040160009054906101000a900473ffffffffffffffffffffffffffffffffffffffff16908060050154908060060154908060070154908060080154908060090160009054906101000a900460ff1690508b565b6060613e4267117541afdc81a9c260c01b614515565b613e566731d41de16fe4978260c01b614515565b613e6a675708e9de51e4a80f60c01b614515565b6000613e7660fb614518565b9050613e8b66cfdfb4914ea53c60c01b614515565b613e9f679b8db9efafc83ed860c01b614515565b6000613eb5673d7eac907d52ccce60c01b614515565b613ec9672c59f838277c994460c01b614515565b6000613edf670cdee97efc21d8ae60c01b614515565b613ef367593d766cf016ff8960c01b614515565b60005b8381101561400157613f126749770dc24d2533f060c01b614515565b613f26679e26195e5cfb3ca760c01b614515565b3373ffffffffffffffffffffffffffffffffffffffff166101026000600184613f4f919061578a565b815260200190815260200160002060030160009054906101000a900473ffffffffffffffffffffffffffffffffffffffff1673ffffffffffffffffffffffffffffffffffffffff161415613fd957613fb167f68aedaaf8ef729760c01b614515565b613fc5679fb25a620f7d455c60c01b614515565b600183613fd2919061578a565b9250613fee565b613fed6784f6f50bdd8ed16160c01b614515565b5b8080613ff99061580f565b915050613ef6565b5061401667bd9bfd5dceba4da360c01b614515565b61402a67023cb2908b27734d60c01b614515565b60008267ffffffffffffffff8111156140465761404561507c565b5b60405190808252806020026020018201604052801561407f57816020015b61406c614d2d565b8152602001906001900390816140645790505b50905061409667065d540ea4f542f560c01b614515565b6140aa67701a1a31899676d060c01b614515565b60005b848110156143e6576140c9675db7702c37a165ea60c01b614515565b6140dd67853a8415bd4a844c60c01b614515565b3373ffffffffffffffffffffffffffffffffffffffff166101026000600184614106919061578a565b815260200190815260200160002060030160009054906101000a900473ffffffffffffffffffffffffffffffffffffffff1673ffffffffffffffffffffffffffffffffffffffff1614156143be57614168677f68c76d469cb45460c01b614515565b61417c67ab5f9c3ada94d89360c01b614515565b6141906761a46da3b625bd1c60c01b614515565b600060018261419f919061578a565b90506141b5672bb73e4e5b5d617760c01b614515565b6141c9673e79c9f4781819d560c01b614515565b6000610102600083815260200190815260200160002090506141f567fcd2183744c3d11360c01b614515565b80604051806101600160405290816000820160009054906101000a900473ffffffffffffffffffffffffffffffffffffffff1673ffffffffffffffffffffffffffffffffffffffff1673ffffffffffffffffffffffffffffffffffffffff1681526020016000820160149054906101000a900460ff1615151515815260200160018201548152602001600282015481526020016003820160009054906101000a900473ffffffffffffffffffffffffffffffffffffffff1673ffffffffffffffffffffffffffffffffffffffff1673ffffffffffffffffffffffffffffffffffffffff1681526020016004820160009054906101000a900473ffffffffffffffffffffffffffffffffffffffff1673ffffffffffffffffffffffffffffffffffffffff1673ffffffffffffffffffffffffffffffffffffffff168152602001600582015481526020016006820154815260200160078201548152602001600882015481526020016009820160009054906101000a900460ff161515151581525050848681518110614389576143886157e0565b5b60200260200101819052506143a867b3aaa2bf43fa258260c01b614515565b6001856143b5919061578a565b945050506143d3565b6143d26739efd258225d4e5560c01b614515565b5b80806143de9061580f565b9150506140ad565b506143fb679e5bb8cca868f9c060c01b614515565b61440f6713d50b6a915bb92460c01b614515565b8094505050505090565b600061442f677b7766918c6269c760c01b614515565b6144436715b9baa2d8176bd060c01b614515565b61445767bda84a8805a3885560c01b614515565b63f23a6e6160e01b905095945050505050565b6144726147b4565b600073ffffffffffffffffffffffffffffffffffffffff168173ffffffffffffffffffffffffffffffffffffffff1614156144e2576040517f08c379a00000000000000000000000000000000000000000000000000000000081526004016144d9906162af565b60405180910390fd5b6144eb81614832565b50565b61010160009054906101000a900473ffffffffffffffffffffffffffffffffffffffff1681565b50565b600081600001549050919050565b600260c954141561456c576040517f08c379a00000000000000000000000000000000000000000000000000000000081526004016145639061631b565b60405180910390fd5b600260c981905550565b6001816000016000828254019250508190555050565b600160c981905550565b60006145c47f360894a13ba1a3210667c828492db98dca3e2076cc3735a920a3ca505d382bbc60001b6149cd565b60000160009054906101000a900473ffffffffffffffffffffffffffffffffffffffff16905090565b614601673343720d4edec5e060c01b614515565b6146096147b4565b61461d67f17857485fb7bc7f60c01b614515565b61463167dcb383ce7c95352f60c01b614515565b50565b6146607f4910fdfa16fed3260ed0e7147f7cc6da11a60208b5b9406d12a635614ffd914360001b6149d7565b60000160009054906101000a900460ff16156146845761467f836149e1565b6147ac565b8273ffffffffffffffffffffffffffffffffffffffff166352d1902d6040518163ffffffff1660e01b815260040160206040518083038186803b1580156146ca57600080fd5b505afa9250505080156146fb57506040513d601f19601f820116820180604052508101906146f89190616367565b60015b61473a576040517f08c379a000000000000000000000000000000000000000000000000000000000815260040161473190616406565b60405180910390fd5b7f360894a13ba1a3210667c828492db98dca3e2076cc3735a920a3ca505d382bbc60001b811461479f576040517f08c379a000000000000000000000000000000000000000000000000000000000815260040161479690616498565b60405180910390fd5b506147ab838383614a9a565b5b505050565b50565b6147bc614ac6565b73ffffffffffffffffffffffffffffffffffffffff166147da612ae6565b73ffffffffffffffffffffffffffffffffffffffff1614614830576040517f08c379a000000000000000000000000000000000000000000000000000000000815260040161482790616504565b60405180910390fd5b565b6000603360009054906101000a900473ffffffffffffffffffffffffffffffffffffffff16905081603360006101000a81548173ffffffffffffffffffffffffffffffffffffffff021916908373ffffffffffffffffffffffffffffffffffffffff1602179055508173ffffffffffffffffffffffffffffffffffffffff168173ffffffffffffffffffffffffffffffffffffffff167f8be0079c531659141344cd1fd0a4f28419497f9722a3daafe3b4186f6b6457e060405160405180910390a35050565b6000808273ffffffffffffffffffffffffffffffffffffffff163b119050919050565b600060019054906101000a900460ff1661496a576040517f08c379a000000000000000000000000000000000000000000000000000000000815260040161496190616596565b60405180910390fd5b614972614ace565b565b600060019054906101000a900460ff166149c3576040517f08c379a00000000000000000000000000000000000000000000000000000000081526004016149ba90616596565b60405180910390fd5b6149cb614b2f565b565b6000819050919050565b6000819050919050565b6149ea816148f8565b614a29576040517f08c379a0000000000000000000000000000000000000000000000000000000008152600401614a2090616628565b60405180910390fd5b80614a567f360894a13ba1a3210667c828492db98dca3e2076cc3735a920a3ca505d382bbc60001b6149cd565b60000160006101000a81548173ffffffffffffffffffffffffffffffffffffffff021916908373ffffffffffffffffffffffffffffffffffffffff16021790555050565b614aa383614b88565b600082511180614ab05750805b15614ac157614abf8383614bd7565b505b505050565b600033905090565b600060019054906101000a900460ff16614b1d576040517f08c379a0000000000000000000000000000000000000000000000000000000008152600401614b1490616596565b60405180910390fd5b614b2d614b28614ac6565b614832565b565b600060019054906101000a900460ff16614b7e576040517f08c379a0000000000000000000000000000000000000000000000000000000008152600401614b7590616596565b60405180910390fd5b600160c981905550565b614b91816149e1565b8073ffffffffffffffffffffffffffffffffffffffff167fbc7cd75a20ee27fd9adebab32041f755214dbc6bffa90cc0225b39da2e5c2d3b60405160405180910390a250565b6060614be2836148f8565b614c21576040517f08c379a0000000000000000000000000000000000000000000000000000000008152600401614c18906166ba565b60405180910390fd5b6000808473ffffffffffffffffffffffffffffffffffffffff1684604051614c499190616754565b600060405180830381855af49150503d8060008114614c84576040519150601f19603f3d011682016040523d82523d6000602084013e614c89565b606091505b5091509150614cb182826040518060600160405280602781526020016167d260279139614cbb565b9250505092915050565b60608315614ccb57829050614cd6565b614cd58383614cdd565b5b9392505050565b600082511115614cf05781518083602001fd5b806040517f08c379a0000000000000000000000000000000000000000000000000000000008152600401614d2491906167af565b60405180910390fd5b604051806101600160405280600073ffffffffffffffffffffffffffffffffffffffff1681526020016000151581526020016000815260200160008152602001600073ffffffffffffffffffffffffffffffffffffffff168152602001600073ffffffffffffffffffffffffffffffffffffffff168152602001600081526020016000815260200160008152602001600081526020016000151581525090565b600081519050919050565b600082825260208201905092915050565b6000819050602082019050919050565b600073ffffffffffffffffffffffffffffffffffffffff82169050919050565b6000614e2482614df9565b9050919050565b614e3481614e19565b82525050565b60008115159050919050565b614e4f81614e3a565b82525050565b6000819050919050565b614e6881614e55565b82525050565b61016082016000820151614e856000850182614e2b565b506020820151614e986020850182614e46565b506040820151614eab6040850182614e5f565b506060820151614ebe6060850182614e5f565b506080820151614ed16080850182614e2b565b5060a0820151614ee460a0850182614e2b565b5060c0820151614ef760c0850182614e5f565b5060e0820151614f0a60e0850182614e5f565b50610100820151614f1f610100850182614e5f565b50610120820151614f34610120850182614e5f565b50610140820151614f49610140850182614e46565b50505050565b6000614f5b8383614e6e565b6101608301905092915050565b6000602082019050919050565b6000614f8082614dcd565b614f8a8185614dd8565b9350614f9583614de9565b8060005b83811015614fc6578151614fad8882614f4f565b9750614fb883614f68565b925050600181019050614f99565b5085935050505092915050565b60006020820190508181036000830152614fed8184614f75565b905092915050565b6000604051905090565b600080fd5b600080fd5b61501281614e19565b811461501d57600080fd5b50565b60008135905061502f81615009565b92915050565b61503e81614e55565b811461504957600080fd5b50565b60008135905061505b81615035565b92915050565b600080fd5b600080fd5b6000601f19601f8301169050919050565b7f4e487b7100000000000000000000000000000000000000000000000000000000600052604160045260246000fd5b6150b48261506b565b810181811067ffffffffffffffff821117156150d3576150d261507c565b5b80604052505050565b60006150e6614ff5565b90506150f282826150ab565b919050565b600067ffffffffffffffff8211156151125761511161507c565b5b61511b8261506b565b9050602081019050919050565b82818337600083830152505050565b600061514a615145846150f7565b6150dc565b90508281526020810184848401111561516657615165615066565b5b615171848285615128565b509392505050565b600082601f83011261518e5761518d615061565b5b813561519e848260208601615137565b91505092915050565b600080600080608085870312156151c1576151c0614fff565b5b60006151cf87828801615020565b94505060206151e087828801615020565b93505060406151f18782880161504c565b925050606085013567ffffffffffffffff81111561521257615211615004565b5b61521e87828801615179565b91505092959194509250565b60007fffffffff0000000000000000000000000000000000000000000000000000000082169050919050565b61525f8161522a565b82525050565b600060208201905061527a6000830184615256565b92915050565b61528981614e55565b82525050565b60006020820190506152a46000830184615280565b92915050565b6152b381614e3a565b81146152be57600080fd5b50565b6000813590506152d0816152aa565b92915050565b6000806000606084860312156152ef576152ee614fff565b5b60006152fd8682870161504c565b935050602061530e8682870161504c565b925050604061531f868287016152c1565b9150509250925092565b60006020828403121561533f5761533e614fff565b5b600061534d84828501615020565b91505092915050565b6000806040838503121561536d5761536c614fff565b5b600061537b85828601615020565b925050602083013567ffffffffffffffff81111561539c5761539b615004565b5b6153a885828601615179565b9150509250929050565b6000602082840312156153c8576153c7614fff565b5b60006153d68482850161504c565b91505092915050565b6000819050919050565b6153f2816153df565b82525050565b600060208201905061540d60008301846153e9565b92915050565b61541c81614e19565b82525050565b60006020820190506154376000830184615413565b92915050565b6000819050919050565b600061546261545d61545884614df9565b61543d565b614df9565b9050919050565b600061547482615447565b9050919050565b600061548682615469565b9050919050565b6154968161547b565b82525050565b60006020820190506154b1600083018461548d565b92915050565b600080604083850312156154ce576154cd614fff565b5b60006154dc8582860161504c565b92505060206154ed8582860161504c565b9150509250929050565b6000806000806080858703121561551157615510614fff565b5b600061551f87828801615020565b945050602061553087828801615020565b935050604061554187828801615020565b92505060606155528782880161504c565b91505092959194509250565b600061556982615469565b9050919050565b6155798161555e565b82525050565b60006020820190506155946000830184615570565b92915050565b6155a381614e3a565b82525050565b6000610160820190506155bf600083018e615413565b6155cc602083018d61559a565b6155d9604083018c615280565b6155e6606083018b615280565b6155f3608083018a615413565b61560060a0830189615413565b61560d60c0830188615280565b61561a60e0830187615280565b615628610100830186615280565b615636610120830185615280565b61564461014083018461559a565b9c9b505050505050505050505050565b600080600080600060a086880312156156705761566f614fff565b5b600061567e88828901615020565b955050602061568f88828901615020565b94505060406156a08882890161504c565b93505060606156b18882890161504c565b925050608086013567ffffffffffffffff8111156156d2576156d1615004565b5b6156de88828901615179565b9150509295509295909350565b60006156f682614df9565b9050919050565b615706816156eb565b82525050565b600060208201905061572160008301846156fd565b92915050565b7f4e487b7100000000000000000000000000000000000000000000000000000000600052601160045260246000fd5b600061576182614e55565b915061576c83614e55565b92508282101561577f5761577e615727565b5b828203905092915050565b600061579582614e55565b91506157a083614e55565b9250827fffffffffffffffffffffffffffffffffffffffffffffffffffffffffffffffff038211156157d5576157d4615727565b5b828201905092915050565b7f4e487b7100000000000000000000000000000000000000000000000000000000600052603260045260246000fd5b600061581a82614e55565b91507fffffffffffffffffffffffffffffffffffffffffffffffffffffffffffffffff82141561584d5761584c615727565b5b600182019050919050565b60008151905061586781615009565b92915050565b60006020828403121561588357615882614fff565b5b600061589184828501615858565b91505092915050565b600082825260208201905092915050565b7f596f75206d757374206f776e207468652045524337323120746f6b656e20746f60008201527f206c697374206865726500000000000000000000000000000000000000000000602082015250565b6000615907602a8361589a565b9150615912826158ab565b604082019050919050565b60006020820190508181036000830152615936816158fa565b9050919050565b7f5072696365206d7573742062652067726561746572207468616e203000000000600082015250565b6000615973601c8361589a565b915061597e8261593d565b602082019050919050565b600060208201905081810360008301526159a281615966565b9050919050565b60006159b482614e55565b91506159bf83614e55565b9250817fffffffffffffffffffffffffffffffffffffffffffffffffffffffffffffffff04831182151516156159f8576159f7615727565b5b828202905092915050565b7f4e487b7100000000000000000000000000000000000000000000000000000000600052601260045260246000fd5b6000615a3d82614e55565b9150615a4883614e55565b925082615a5857615a57615a03565b5b828204905092915050565b6000606082019050615a786000830186615413565b615a856020830185615413565b615a926040830184615280565b949350505050565b600061012082019050615ab0600083018c615413565b615abd602083018b61559a565b615aca604083018a615413565b615ad76060830189615413565b615ae46080830188615280565b615af160a0830187615280565b615afe60c0830186615280565b615b0b60e0830185615280565b615b1961010083018461559a565b9a9950505050505050505050565b6000604082019050615b3c6000830185615413565b615b496020830184615280565b9392505050565b600081519050615b5f81615035565b92915050565b600060208284031215615b7b57615b7a614fff565b5b6000615b8984828501615b50565b91505092915050565b7f596f75206d757374206f776e20746865204552433131353520746f6b656e207460008201527f6f206c6973742068657265000000000000000000000000000000000000000000602082015250565b6000615bee602b8361589a565b9150615bf982615b92565b604082019050919050565b60006020820190508181036000830152615c1d81615be1565b9050919050565b6000819050919050565b6000615c49615c44615c3f84615c24565b61543d565b614e55565b9050919050565b615c5981615c2e565b82525050565b600082825260208201905092915050565b50565b6000615c80600083615c5f565b9150615c8b82615c70565b600082019050919050565b600060a082019050615cab6000830187615413565b615cb86020830186615413565b615cc56040830185615280565b615cd26060830184615c50565b8181036080830152615ce381615c73565b905095945050505050565b7f46756e6374696f6e206d7573742062652063616c6c6564207468726f7567682060008201527f64656c656761746563616c6c0000000000000000000000000000000000000000602082015250565b6000615d4a602c8361589a565b9150615d5582615cee565b604082019050919050565b60006020820190508181036000830152615d7981615d3d565b9050919050565b7f46756e6374696f6e206d7573742062652063616c6c6564207468726f7567682060008201527f6163746976652070726f78790000000000000000000000000000000000000000602082015250565b6000615ddc602c8361589a565b9150615de782615d80565b604082019050919050565b60006020820190508181036000830152615e0b81615dcf565b9050919050565b7f4974656d20697320616c726561647920736f6c64000000000000000000000000600082015250565b6000615e4860148361589a565b9150615e5382615e12565b602082019050919050565b60006020820190508181036000830152615e7781615e3b565b9050919050565b7f43616e6e6f742062757920796f7572206f776e206974656d0000000000000000600082015250565b6000615eb460188361589a565b9150615ebf82615e7e565b602082019050919050565b60006020820190508181036000830152615ee381615ea7565b9050919050565b7f45746865722042616c616e6365206973206c6f77000000000000000000000000600082015250565b6000615f2060148361589a565b9150615f2b82615eea565b602082019050919050565b60006020820190508181036000830152615f4f81615f13565b9050919050565b7f555550535570677261646561626c653a206d757374206e6f742062652063616c60008201527f6c6564207468726f7567682064656c656761746563616c6c0000000000000000602082015250565b6000615fb260388361589a565b9150615fbd82615f56565b604082019050919050565b60006020820190508181036000830152615fe181615fa5565b9050919050565b7f43616c6c6572206e6f7420616e206f776e6572206f6620746865206d61726b6560008201527f74206974656d0000000000000000000000000000000000000000000000000000602082015250565b600061604460268361589a565b915061604f82615fe8565b604082019050919050565b6000602082019050818103600083015261607381616037565b9050919050565b7f496e76616c6964206974656d4964000000000000000000000000000000000000600082015250565b60006160b0600e8361589a565b91506160bb8261607a565b602082019050919050565b600060208201905081810360008301526160df816160a3565b9050919050565b7f43616c6c6572206e6f7420612073656c6c6572206f6620746865206974656d00600082015250565b600061611c601f8361589a565b9150616127826160e6565b602082019050919050565b6000602082019050818103600083015261614b8161610f565b9050919050565b7f496e697469616c697a61626c653a20636f6e747261637420697320616c72656160008201527f647920696e697469616c697a6564000000000000000000000000000000000000602082015250565b60006161ae602e8361589a565b91506161b982616152565b604082019050919050565b600060208201905081810360008301526161dd816161a1565b9050919050565b600060ff82169050919050565b600061620c61620761620284615c24565b61543d565b6161e4565b9050919050565b61621c816161f1565b82525050565b60006020820190506162376000830184616213565b92915050565b7f4f776e61626c653a206e6577206f776e657220697320746865207a65726f206160008201527f6464726573730000000000000000000000000000000000000000000000000000602082015250565b600061629960268361589a565b91506162a48261623d565b604082019050919050565b600060208201905081810360008301526162c88161628c565b9050919050565b7f5265656e7472616e637947756172643a207265656e7472616e742063616c6c00600082015250565b6000616305601f8361589a565b9150616310826162cf565b602082019050919050565b60006020820190508181036000830152616334816162f8565b9050919050565b616344816153df565b811461634f57600080fd5b50565b6000815190506163618161633b565b92915050565b60006020828403121561637d5761637c614fff565b5b600061638b84828501616352565b91505092915050565b7f45524331393637557067726164653a206e657720696d706c656d656e7461746960008201527f6f6e206973206e6f742055555053000000000000000000000000000000000000602082015250565b60006163f0602e8361589a565b91506163fb82616394565b604082019050919050565b6000602082019050818103600083015261641f816163e3565b9050919050565b7f45524331393637557067726164653a20756e737570706f727465642070726f7860008201527f6961626c65555549440000000000000000000000000000000000000000000000602082015250565b600061648260298361589a565b915061648d82616426565b604082019050919050565b600060208201905081810360008301526164b181616475565b9050919050565b7f4f776e61626c653a2063616c6c6572206973206e6f7420746865206f776e6572600082015250565b60006164ee60208361589a565b91506164f9826164b8565b602082019050919050565b6000602082019050818103600083015261651d816164e1565b9050919050565b7f496e697469616c697a61626c653a20636f6e7472616374206973206e6f74206960008201527f6e697469616c697a696e67000000000000000000000000000000000000000000602082015250565b6000616580602b8361589a565b915061658b82616524565b604082019050919050565b600060208201905081810360008301526165af81616573565b9050919050565b7f455243313936373a206e657720696d706c656d656e746174696f6e206973206e60008201527f6f74206120636f6e747261637400000000000000000000000000000000000000602082015250565b6000616612602d8361589a565b915061661d826165b6565b604082019050919050565b6000602082019050818103600083015261664181616605565b9050919050565b7f416464726573733a2064656c65676174652063616c6c20746f206e6f6e2d636f60008201527f6e74726163740000000000000000000000000000000000000000000000000000602082015250565b60006166a460268361589a565b91506166af82616648565b604082019050919050565b600060208201905081810360008301526166d381616697565b9050919050565b600081519050919050565b600081905092915050565b60005b8381101561670e5780820151818401526020810190506166f3565b8381111561671d576000848401525b50505050565b600061672e826166da565b61673881856166e5565b93506167488185602086016166f0565b80840191505092915050565b60006167608284616723565b915081905092915050565b600081519050919050565b60006167818261676b565b61678b818561589a565b935061679b8185602086016166f0565b6167a48161506b565b840191505092915050565b600060208201905081810360008301526167c98184616776565b90509291505056fe416464726573733a206c6f772d6c6576656c2064656c65676174652063616c6c206661696c6564a264697066735822122055cfb7ca2c3b05cbbb028085d094b042a2988e6752527de67b51369e2942902464736f6c63430008080033",
  "linkReferences": {},
  "deployedLinkReferences": {}
}