{
  "_format": "hh-sol-artifact-1",
  "contractName": "MarketplaceV2",
  "sourceName": "contracts/NFTMarketplaceV2.sol",
  "abi": [
    {
      "anonymous": false,
      "inputs": [
        {
          "indexed": false,
          "internalType": "address",
          "name": "previousAdmin",
          "type": "address"
        },
        {
          "indexed": false,
          "internalType": "address",
          "name": "newAdmin",
          "type": "address"
        }
      ],
      "name": "AdminChanged",
      "type": "event"
    },
    {
      "anonymous": false,
      "inputs": [
        {
          "indexed": true,
          "internalType": "address",
          "name": "beacon",
          "type": "address"
        }
      ],
      "name": "BeaconUpgraded",
      "type": "event"
    },
    {
      "anonymous": false,
      "inputs": [
        {
          "indexed": false,
          "internalType": "uint8",
          "name": "version",
          "type": "uint8"
        }
      ],
      "name": "Initialized",
      "type": "event"
    },
    {
      "anonymous": false,
      "inputs": [
        {
          "indexed": false,
          "internalType": "address",
          "name": "nftAddress",
          "type": "address"
        },
        {
          "indexed": false,
          "internalType": "bool",
          "name": "isERC721",
          "type": "bool"
        },
        {
          "indexed": true,
          "internalType": "uint256",
          "name": "itemId",
          "type": "uint256"
        },
        {
          "indexed": true,
          "internalType": "uint256",
          "name": "tokenId",
          "type": "uint256"
        },
        {
          "indexed": false,
          "internalType": "address",
          "name": "seller",
          "type": "address"
        },
        {
          "indexed": false,
          "internalType": "address",
          "name": "nftOwner",
          "type": "address"
        },
        {
          "indexed": false,
          "internalType": "uint256",
          "name": "price",
          "type": "uint256"
        },
        {
          "indexed": false,
          "internalType": "uint256",
          "name": "platformFee",
          "type": "uint256"
        },
        {
          "indexed": false,
          "internalType": "uint256",
          "name": "feeAmount",
          "type": "uint256"
        },
        {
          "indexed": false,
          "internalType": "uint256",
          "name": "totalPrice",
          "type": "uint256"
        },
        {
          "indexed": false,
          "internalType": "bool",
          "name": "sold",
          "type": "bool"
        }
      ],
      "name": "MarketItemCreated",
      "type": "event"
    },
    {
      "anonymous": false,
      "inputs": [
        {
          "indexed": true,
          "internalType": "address",
          "name": "previousOwner",
          "type": "address"
        },
        {
          "indexed": true,
          "internalType": "address",
          "name": "newOwner",
          "type": "address"
        }
      ],
      "name": "OwnershipTransferred",
      "type": "event"
    },
    {
      "anonymous": false,
      "inputs": [
        {
          "indexed": true,
          "internalType": "address",
          "name": "implementation",
          "type": "address"
        }
      ],
      "name": "Upgraded",
      "type": "event"
    },
    {
      "inputs": [
        {
          "internalType": "uint256",
          "name": "itemId",
          "type": "uint256"
        }
      ],
      "name": "buyNFT",
      "outputs": [],
      "stateMutability": "payable",
      "type": "function"
    },
    {
      "inputs": [
        {
          "internalType": "uint256",
          "name": "itemId",
          "type": "uint256"
        }
      ],
      "name": "cancelMarketItem",
      "outputs": [],
      "stateMutability": "nonpayable",
      "type": "function"
    },
    {
      "inputs": [
        {
          "internalType": "uint256",
          "name": "tokenId",
          "type": "uint256"
        },
        {
          "internalType": "uint256",
          "name": "priceInWei",
          "type": "uint256"
        },
        {
          "internalType": "bool",
          "name": "isErc721",
          "type": "bool"
        }
      ],
      "name": "createMarketItem",
      "outputs": [],
      "stateMutability": "nonpayable",
      "type": "function"
    },
    {
      "inputs": [],
      "name": "fetchItemsCreated",
      "outputs": [
        {
          "components": [
            {
              "internalType": "address",
              "name": "nftAddress",
              "type": "address"
            },
            {
              "internalType": "bool",
              "name": "isERC721",
              "type": "bool"
            },
            {
              "internalType": "uint256",
              "name": "itemId",
              "type": "uint256"
            },
            {
              "internalType": "uint256",
              "name": "tokenId",
              "type": "uint256"
            },
            {
              "internalType": "address",
              "name": "seller",
              "type": "address"
            },
            {
              "internalType": "address",
              "name": "nftOwner",
              "type": "address"
            },
            {
              "internalType": "uint256",
              "name": "price",
              "type": "uint256"
            },
            {
              "internalType": "uint256",
              "name": "platformFee",
              "type": "uint256"
            },
            {
              "internalType": "uint256",
              "name": "feeAmount",
              "type": "uint256"
            },
            {
              "internalType": "uint256",
              "name": "totalPrice",
              "type": "uint256"
            },
            {
              "internalType": "bool",
              "name": "sold",
              "type": "bool"
            }
          ],
          "internalType": "struct Marketplace.MarketItem[]",
          "name": "",
          "type": "tuple[]"
        }
      ],
      "stateMutability": "view",
      "type": "function"
    },
    {
      "inputs": [],
      "name": "fetchMarketItems",
      "outputs": [
        {
          "components": [
            {
              "internalType": "address",
              "name": "nftAddress",
              "type": "address"
            },
            {
              "internalType": "bool",
              "name": "isERC721",
              "type": "bool"
            },
            {
              "internalType": "uint256",
              "name": "itemId",
              "type": "uint256"
            },
            {
              "internalType": "uint256",
              "name": "tokenId",
              "type": "uint256"
            },
            {
              "internalType": "address",
              "name": "seller",
              "type": "address"
            },
            {
              "internalType": "address",
              "name": "nftOwner",
              "type": "address"
            },
            {
              "internalType": "uint256",
              "name": "price",
              "type": "uint256"
            },
            {
              "internalType": "uint256",
              "name": "platformFee",
              "type": "uint256"
            },
            {
              "internalType": "uint256",
              "name": "feeAmount",
              "type": "uint256"
            },
            {
              "internalType": "uint256",
              "name": "totalPrice",
              "type": "uint256"
            },
            {
              "internalType": "bool",
              "name": "sold",
              "type": "bool"
            }
          ],
          "internalType": "struct Marketplace.MarketItem[]",
          "name": "",
          "type": "tuple[]"
        }
      ],
      "stateMutability": "view",
      "type": "function"
    },
    {
      "inputs": [],
      "name": "fetchMyNFTs",
      "outputs": [
        {
          "components": [
            {
              "internalType": "address",
              "name": "nftAddress",
              "type": "address"
            },
            {
              "internalType": "bool",
              "name": "isERC721",
              "type": "bool"
            },
            {
              "internalType": "uint256",
              "name": "itemId",
              "type": "uint256"
            },
            {
              "internalType": "uint256",
              "name": "tokenId",
              "type": "uint256"
            },
            {
              "internalType": "address",
              "name": "seller",
              "type": "address"
            },
            {
              "internalType": "address",
              "name": "nftOwner",
              "type": "address"
            },
            {
              "internalType": "uint256",
              "name": "price",
              "type": "uint256"
            },
            {
              "internalType": "uint256",
              "name": "platformFee",
              "type": "uint256"
            },
            {
              "internalType": "uint256",
              "name": "feeAmount",
              "type": "uint256"
            },
            {
              "internalType": "uint256",
              "name": "totalPrice",
              "type": "uint256"
            },
            {
              "internalType": "bool",
              "name": "sold",
              "type": "bool"
            }
          ],
          "internalType": "struct Marketplace.MarketItem[]",
          "name": "",
          "type": "tuple[]"
        }
      ],
      "stateMutability": "view",
      "type": "function"
    },
    {
      "inputs": [
        {
          "internalType": "address",
          "name": "userAddress",
          "type": "address"
        }
      ],
      "name": "fetchUserNFTs",
      "outputs": [
        {
          "components": [
            {
              "internalType": "address",
              "name": "nftAddress",
              "type": "address"
            },
            {
              "internalType": "bool",
              "name": "isERC721",
              "type": "bool"
            },
            {
              "internalType": "uint256",
              "name": "itemId",
              "type": "uint256"
            },
            {
              "internalType": "uint256",
              "name": "tokenId",
              "type": "uint256"
            },
            {
              "internalType": "address",
              "name": "seller",
              "type": "address"
            },
            {
              "internalType": "address",
              "name": "nftOwner",
              "type": "address"
            },
            {
              "internalType": "uint256",
              "name": "price",
              "type": "uint256"
            },
            {
              "internalType": "uint256",
              "name": "platformFee",
              "type": "uint256"
            },
            {
              "internalType": "uint256",
              "name": "feeAmount",
              "type": "uint256"
            },
            {
              "internalType": "uint256",
              "name": "totalPrice",
              "type": "uint256"
            },
            {
              "internalType": "bool",
              "name": "sold",
              "type": "bool"
            }
          ],
          "internalType": "struct Marketplace.MarketItem[]",
          "name": "",
          "type": "tuple[]"
        }
      ],
      "stateMutability": "view",
      "type": "function"
    },
    {
      "inputs": [
        {
          "internalType": "uint256",
          "name": "",
          "type": "uint256"
        }
      ],
      "name": "idToMarketItem",
      "outputs": [
        {
          "internalType": "address",
          "name": "nftAddress",
          "type": "address"
        },
        {
          "internalType": "bool",
          "name": "isERC721",
          "type": "bool"
        },
        {
          "internalType": "uint256",
          "name": "itemId",
          "type": "uint256"
        },
        {
          "internalType": "uint256",
          "name": "tokenId",
          "type": "uint256"
        },
        {
          "internalType": "address",
          "name": "seller",
          "type": "address"
        },
        {
          "internalType": "address",
          "name": "nftOwner",
          "type": "address"
        },
        {
          "internalType": "uint256",
          "name": "price",
          "type": "uint256"
        },
        {
          "internalType": "uint256",
          "name": "platformFee",
          "type": "uint256"
        },
        {
          "internalType": "uint256",
          "name": "feeAmount",
          "type": "uint256"
        },
        {
          "internalType": "uint256",
          "name": "totalPrice",
          "type": "uint256"
        },
        {
          "internalType": "bool",
          "name": "sold",
          "type": "bool"
        }
      ],
      "stateMutability": "view",
      "type": "function"
    },
    {
      "inputs": [
        {
          "internalType": "address",
          "name": "nftContractAddress",
          "type": "address"
        },
        {
          "internalType": "address",
          "name": "myNftContractAddress",
          "type": "address"
        },
        {
          "internalType": "address",
          "name": "platformWalletAddress",
          "type": "address"
        },
        {
          "internalType": "uint256",
          "name": "platformFees",
          "type": "uint256"
        }
      ],
      "name": "initialize",
      "outputs": [],
      "stateMutability": "nonpayable",
      "type": "function"
    },
    {
      "inputs": [],
      "name": "myNftContract",
      "outputs": [
        {
          "internalType": "contract IERC1155",
          "name": "",
          "type": "address"
        }
      ],
      "stateMutability": "view",
      "type": "function"
    },
    {
      "inputs": [],
      "name": "nftContract",
      "outputs": [
        {
          "internalType": "contract IERC721",
          "name": "",
          "type": "address"
        }
      ],
      "stateMutability": "view",
      "type": "function"
    },
    {
      "inputs": [],
      "name": "nftMarketplaceVersion",
      "outputs": [
        {
          "internalType": "uint256",
          "name": "",
          "type": "uint256"
        }
      ],
      "stateMutability": "pure",
      "type": "function"
    },
    {
      "inputs": [
        {
          "internalType": "address",
          "name": "",
          "type": "address"
        },
        {
          "internalType": "address",
          "name": "",
          "type": "address"
        },
        {
          "internalType": "uint256",
          "name": "",
          "type": "uint256"
        },
        {
          "internalType": "uint256",
          "name": "",
          "type": "uint256"
        },
        {
          "internalType": "bytes",
          "name": "",
          "type": "bytes"
        }
      ],
      "name": "onERC1155Received",
      "outputs": [
        {
          "internalType": "bytes4",
          "name": "",
          "type": "bytes4"
        }
      ],
      "stateMutability": "nonpayable",
      "type": "function"
    },
    {
      "inputs": [
        {
          "internalType": "address",
          "name": "",
          "type": "address"
        },
        {
          "internalType": "address",
          "name": "",
          "type": "address"
        },
        {
          "internalType": "uint256",
          "name": "",
          "type": "uint256"
        },
        {
          "internalType": "bytes",
          "name": "",
          "type": "bytes"
        }
      ],
      "name": "onERC721Received",
      "outputs": [
        {
          "internalType": "bytes4",
          "name": "",
          "type": "bytes4"
        }
      ],
      "stateMutability": "nonpayable",
      "type": "function"
    },
    {
      "inputs": [],
      "name": "owner",
      "outputs": [
        {
          "internalType": "address",
          "name": "",
          "type": "address"
        }
      ],
      "stateMutability": "view",
      "type": "function"
    },
    {
      "inputs": [],
      "name": "platformFee",
      "outputs": [
        {
          "internalType": "uint256",
          "name": "",
          "type": "uint256"
        }
      ],
      "stateMutability": "view",
      "type": "function"
    },
    {
      "inputs": [],
      "name": "platformWallet",
      "outputs": [
        {
          "internalType": "address payable",
          "name": "",
          "type": "address"
        }
      ],
      "stateMutability": "view",
      "type": "function"
    },
    {
      "inputs": [],
      "name": "proxiableUUID",
      "outputs": [
        {
          "internalType": "bytes32",
          "name": "",
          "type": "bytes32"
        }
      ],
      "stateMutability": "view",
      "type": "function"
    },
    {
      "inputs": [],
      "name": "renounceOwnership",
      "outputs": [],
      "stateMutability": "nonpayable",
      "type": "function"
    },
    {
      "inputs": [
        {
          "internalType": "address",
          "name": "newOwner",
          "type": "address"
        }
      ],
      "name": "transferOwnership",
      "outputs": [],
      "stateMutability": "nonpayable",
      "type": "function"
    },
    {
      "inputs": [
        {
          "internalType": "uint256",
          "name": "itemId",
          "type": "uint256"
        },
        {
          "internalType": "uint256",
          "name": "newPrice",
          "type": "uint256"
        }
      ],
      "name": "updateListedItemPrice",
      "outputs": [],
      "stateMutability": "nonpayable",
      "type": "function"
    },
    {
      "inputs": [
        {
          "internalType": "address",
          "name": "newImplementation",
          "type": "address"
        }
      ],
      "name": "upgradeTo",
      "outputs": [],
      "stateMutability": "nonpayable",
      "type": "function"
    },
    {
      "inputs": [
        {
          "internalType": "address",
          "name": "newImplementation",
          "type": "address"
        },
        {
          "internalType": "bytes",
          "name": "data",
          "type": "bytes"
        }
      ],
      "name": "upgradeToAndCall",
      "outputs": [],
      "stateMutability": "payable",
      "type": "function"
    }
  ],
  "bytecode": "0x60a06040523060601b6080523480156200001857600080fd5b50600054610100900460ff16158080156200003a5750600054600160ff909116105b806200006a575062000057306200014460201b62001fde1760201c565b1580156200006a575060005460ff166001145b620000d25760405162461bcd60e51b815260206004820152602e60248201527f496e697469616c697a61626c653a20636f6e747261637420697320616c72656160448201526d191e481a5b9a5d1a585b1a5e995960921b606482015260840160405180910390fd5b6000805460ff191660011790558015620000f6576000805461ff0019166101001790555b80156200013d576000805461ff0019169055604051600181527f7f26b83ff96e1f2b6a682f133852f6798a09c465da95921460cefb38474024989060200160405180910390a15b5062000153565b6001600160a01b03163b151590565b60805160601c612d0c6200018e60003960008181611097015281816110d701528181611177015281816111b7015261158d0152612d0c6000f3fe6080604052600436106101405760003560e01c80638da5cb5b116100b6578063d56d229d1161006f578063d56d229d14610365578063e61a70c014610385578063f064c32e14610470578063f23a6e6114610485578063f2fde38b146104b1578063fa2af9da146104d157600080fd5b80638da5cb5b14610293578063a1cfe2f7146102c5578063a6e22b02146102e5578063bd68b11714610305578063c6c03af514610325578063cf756fdf1461034557600080fd5b80633659cfe6116101085780633659cfe61461020f5780634f1ef2861461022f57806351ed82881461024257806352d1902d14610255578063715018a61461026a5780638637590a1461027f57600080fd5b80630f08efe014610145578063150b7a0214610170578063202e3740146101b457806326232a2e146101c95780632a2cfd33146101ed575b600080fd5b34801561015157600080fd5b5061015a6104f2565b60405161016791906125ef565b60405180910390f35b34801561017c57600080fd5b5061019b61018b366004612769565b630a85bd0160e11b949350505050565b6040516001600160e01b03199091168152602001610167565b3480156101c057600080fd5b5061015a6106b7565b3480156101d557600080fd5b506101df60ff5481565b604051908152602001610167565b3480156101f957600080fd5b5061020d6102083660046127d5565b6108bb565b005b34801561021b57600080fd5b5061020d61022a366004612813565b61108c565b61020d61023d366004612830565b61116c565b61020d610250366004612880565b61123d565b34801561026157600080fd5b506101df611580565b34801561027657600080fd5b5061020d611633565b34801561028b57600080fd5b5060026101df565b34801561029f57600080fd5b506033546001600160a01b03165b6040516001600160a01b039091168152602001610167565b3480156102d157600080fd5b5060fe546102ad906001600160a01b031681565b3480156102f157600080fd5b5061020d610300366004612880565b611647565b34801561031157600080fd5b5061015a610320366004612813565b61184a565b34801561033157600080fd5b5061020d610340366004612899565b611a6a565b34801561035157600080fd5b5061020d6103603660046128bb565b611bbc565b34801561037157600080fd5b5060fd546102ad906001600160a01b031681565b34801561039157600080fd5b506104076103a0366004612880565b6101016020526000908152604090208054600182015460028301546003840154600485015460058601546006870154600788015460088901546009909901546001600160a01b03808a169a60ff600160a01b909b048b169a9782169796909116959091168b565b604080516001600160a01b039c8d1681529a151560208c01528a0198909852606089019690965293881660808801529690911660a086015260c085015260e084019490945261010083019390935261012082019290925290151561014082015261016001610167565b34801561047c57600080fd5b5061015a611d64565b34801561049157600080fd5b5061019b6104a036600461290c565b63f23a6e6160e01b95945050505050565b3480156104bd57600080fd5b5061020d6104cc366004612813565b611f68565b3480156104dd57600080fd5b50610100546102ad906001600160a01b031681565b606060006104ff60fb5490565b9050600061050c60fc5490565b60fb546105199190612998565b90506000808267ffffffffffffffff811115610537576105376126c6565b60405190808252806020026020018201604052801561057057816020015b61055d612576565b8152602001906001900390816105555790505b50905060005b848110156106ae5760006101018161058f8460016129af565b81526020810191909152604001600020600401546001600160a01b0316141561069c5760006105bf8260016129af565b6000818152610101602090815260409182902082516101608101845281546001600160a01b03808216835260ff600160a01b909204821615159483019490945260018301549482019490945260028201546060820152600382015483166080820152600482015490921660a0830152600581015460c0830152600681015460e0830152600781015461010083015260088101546101208301526009810154909216151561014082015285519293509091859087908110610681576106816129c7565b60209081029190910101526106976001866129af565b945050505b806106a6816129dd565b915050610576565b50949350505050565b606060006106c460fb5490565b905060008060005b83811015610728573361010160006106e58460016129af565b81526020810191909152604001600020600401546001600160a01b03161415610716576107136001846129af565b92505b80610720816129dd565b9150506106cc565b5060008267ffffffffffffffff811115610744576107446126c6565b60405190808252806020026020018201604052801561077d57816020015b61076a612576565b8152602001906001900390816107625790505b50905060005b848110156106ae5733610101600061079c8460016129af565b81526020810191909152604001600020600401546001600160a01b031614156108a95760006107cc8260016129af565b6000818152610101602090815260409182902082516101608101845281546001600160a01b03808216835260ff600160a01b909204821615159483019490945260018301549482019490945260028201546060820152600382015483166080820152600482015490921660a0830152600581015460c0830152600681015460e083015260078101546101008301526008810154610120830152600981015490921615156101408201528551929350909185908790811061088e5761088e6129c7565b60209081029190910101526108a46001866129af565b945050505b806108b3816129dd565b915050610783565b6108c3611fed565b8015610cb75760fd546040516331a9108f60e11b81526004810185905233916001600160a01b031690636352211e9060240160206040518083038186803b15801561090d57600080fd5b505afa158015610921573d6000803e3d6000fd5b505050506040513d601f19601f8201168201806040525081019061094591906129f8565b6001600160a01b0316146109b35760405162461bcd60e51b815260206004820152602a60248201527f596f75206d757374206f776e207468652045524337323120746f6b656e20746f604482015269206c697374206865726560b01b60648201526084015b60405180910390fd5b600082116109d35760405162461bcd60e51b81526004016109aa90612a15565b6109e160fb80546001019055565b60006109ec60fb5490565b9050600061271060ff5485610a019190612a4c565b610a0b9190612a6b565b90506000610a1982866129af565b905060405180610160016040528060fd60009054906101000a90046001600160a01b03166001600160a01b03168152602001600115158152602001848152602001878152602001336001600160a01b0316815260200160006001600160a01b0316815260200186815260200160ff54815260200183815260200182815260200160001515815250610101600085815260200190815260200160002060008201518160000160006101000a8154816001600160a01b0302191690836001600160a01b0316021790555060208201518160000160146101000a81548160ff021916908315150217905550604082015181600101556060820151816002015560808201518160030160006101000a8154816001600160a01b0302191690836001600160a01b0316021790555060a08201518160040160006101000a8154816001600160a01b0302191690836001600160a01b0316021790555060c0820151816005015560e08201518160060155610100820151816007015561012082015181600801556101408201518160090160006101000a81548160ff02191690831515021790555090505060fd60009054906101000a90046001600160a01b03166001600160a01b03166342842e0e3330896040518463ffffffff1660e01b8152600401610c21939291906001600160a01b039384168152919092166020820152604081019190915260600190565b600060405180830381600087803b158015610c3b57600080fd5b505af1158015610c4f573d6000803e3d6000fd5b505060fd5460ff546040518a94508793507fe712e5677502bdc7429522e7fe50fc506009998b66c378cfbff45e2ce4f3724d92610ca7926001600160a01b039091169160019133916000918e918c908c908590612a8d565b60405180910390a350505061107d565b60fe54604051627eeac760e11b8152336004820152602481018590526001600160a01b039091169062fdd58e9060440160206040518083038186803b158015610cff57600080fd5b505afa158015610d13573d6000803e3d6000fd5b505050506040513d601f19601f82011682018060405250810190610d379190612ae0565b600114610d9a5760405162461bcd60e51b815260206004820152602b60248201527f596f75206d757374206f776e20746865204552433131353520746f6b656e207460448201526a6f206c697374206865726560a81b60648201526084016109aa565b60008211610dba5760405162461bcd60e51b81526004016109aa90612a15565b610dc860fb80546001019055565b6000610dd360fb5490565b9050600061271060ff5485610de89190612a4c565b610df29190612a6b565b90506000610e0082866129af565b905060405180610160016040528060fe60009054906101000a90046001600160a01b03166001600160a01b03168152602001600015158152602001848152602001878152602001336001600160a01b0316815260200160006001600160a01b0316815260200186815260200160ff54815260200183815260200182815260200160001515815250610101600085815260200190815260200160002060008201518160000160006101000a8154816001600160a01b0302191690836001600160a01b0316021790555060208201518160000160146101000a81548160ff021916908315150217905550604082015181600101556060820151816002015560808201518160030160006101000a8154816001600160a01b0302191690836001600160a01b0316021790555060a08201518160040160006101000a8154816001600160a01b0302191690836001600160a01b0316021790555060c0820151816005015560e08201518160060155610100820151816007015561012082015181600801556101408201518160090160006101000a81548160ff02191690831515021790555090505060fe60009054906101000a90046001600160a01b03166001600160a01b031663f242432a33308960016040518563ffffffff1660e01b8152600401610fec9493929190612af9565b600060405180830381600087803b15801561100657600080fd5b505af115801561101a573d6000803e3d6000fd5b505060fe5460ff546040518a94508793507fe712e5677502bdc7429522e7fe50fc506009998b66c378cfbff45e2ce4f3724d92611071926001600160a01b0390911691600091339183918e918c908c908590612a8d565b60405180910390a35050505b611087600160c955565b505050565b306001600160a01b037f00000000000000000000000000000000000000000000000000000000000000001614156110d55760405162461bcd60e51b81526004016109aa90612b31565b7f00000000000000000000000000000000000000000000000000000000000000006001600160a01b031661111e600080516020612c90833981519152546001600160a01b031690565b6001600160a01b0316146111445760405162461bcd60e51b81526004016109aa90612b7d565b61114d8161204e565b6040805160008082526020820190925261116991839190612056565b50565b306001600160a01b037f00000000000000000000000000000000000000000000000000000000000000001614156111b55760405162461bcd60e51b81526004016109aa90612b31565b7f00000000000000000000000000000000000000000000000000000000000000006001600160a01b03166111fe600080516020612c90833981519152546001600160a01b031690565b6001600160a01b0316146112245760405162461bcd60e51b81526004016109aa90612b7d565b61122d8261204e565b61123982826001612056565b5050565b611245611fed565b60008181526101016020526040902080546008820154600283015460038401546007850154600490950154600160a01b90940460ff1694929391926001600160a01b0391821692909116156112d35760405162461bcd60e51b8152602060048201526014602482015273125d195b481a5cc8185b1c9958591e481cdbdb1960621b60448201526064016109aa565b600086815261010160205260409020600301546001600160a01b031633141561133e5760405162461bcd60e51b815260206004820152601860248201527f43616e6e6f742062757920796f7572206f776e206974656d000000000000000060448201526064016109aa565b6000868152610101602052604090206004810180546001600160a01b03191633179055600901805460ff19166001179055348411156113b65760405162461bcd60e51b815260206004820152601460248201527345746865722042616c616e6365206973206c6f7760601b60448201526064016109aa565b833411156113fe5760006113ca8534612998565b60405160009250339082156108fc0290839085818181858888f193505050501580156113fa573d6000803e3d6000fd5b5050505b600061140a8286612998565b604051600092506001600160a01b0385169082156108fc0290839085818181858888f19350505050158015611443573d6000803e3d6000fd5b5061010054604051600094916001600160a01b03169082156108fc0290839087818181858888f19350505050158015611480573d6000803e3d6000fd5b5087156114f65760fd54604051632142170760e11b8152306004820152336024820152604481018890526001600160a01b03909116906342842e0e90606401600060405180830381600087803b1580156114d957600080fd5b505af11580156114ed573d6000803e3d6000fd5b50505050611560565b60fe54604051637921219560e11b81526001600160a01b039091169063f242432a9061152d90309033908b90600190600401612af9565b600060405180830381600087803b15801561154757600080fd5b505af115801561155b573d6000803e3d6000fd5b505050505b61156e60fc80546001019055565b5050505050505050611169600160c955565b6000306001600160a01b037f000000000000000000000000000000000000000000000000000000000000000016146116205760405162461bcd60e51b815260206004820152603860248201527f555550535570677261646561626c653a206d757374206e6f742062652063616c60448201527f6c6564207468726f7567682064656c656761746563616c6c000000000000000060648201526084016109aa565b50600080516020612c9083398151915290565b61163b6121d0565b611645600061222a565b565b61164f611fed565b60008181526101016020526040902080546002820154600390920154600160a01b90910460ff169190336001600160a01b03909116146116e05760405162461bcd60e51b815260206004820152602660248201527f43616c6c6572206e6f7420616e206f776e6572206f6620746865206d61726b6560448201526574206974656d60d01b60648201526084016109aa565b6000838152610101602052604090206004810180546001600160a01b03191633179055600901805460ff1916600117905581156117a65760008381526101016020526040908190205460fd80546001600160a01b0319166001600160a01b0390921691821790559051632142170760e11b8152306004820152336024820152604481018390526342842e0e90606401600060405180830381600087803b15801561178957600080fd5b505af115801561179d573d6000803e3d6000fd5b50505050611830565b60008381526101016020526040908190205460fe80546001600160a01b0319166001600160a01b0390921691821790559051637921219560e11b815263f242432a906117fd90309033908690600190600401612af9565b600060405180830381600087803b15801561181757600080fd5b505af115801561182b573d6000803e3d6000fd5b505050505b61183e60fc80546001019055565b5050611169600160c955565b6060600061185760fb5490565b905060008060005b838110156118c4576001600160a01b03861661010160006118818460016129af565b81526020810191909152604001600020600401546001600160a01b031614156118b2576118af6001846129af565b92505b806118bc816129dd565b91505061185f565b5060008267ffffffffffffffff8111156118e0576118e06126c6565b60405190808252806020026020018201604052801561191957816020015b611906612576565b8152602001906001900390816118fe5790505b50905060005b84811015611a60576001600160a01b03871661010160006119418460016129af565b81526020810191909152604001600020600401546001600160a01b03161415611a4e5760006119718260016129af565b6000818152610101602090815260409182902082516101608101845281546001600160a01b03808216835260ff600160a01b909204821615159483019490945260018301549482019490945260028201546060820152600382015483166080820152600482015490921660a0830152600581015460c0830152600681015460e0830152600781015461010083015260088101546101208301526009810154909216151561014082015285519293509091859087908110611a3357611a336129c7565b6020908102919091010152611a496001866129af565b945050505b80611a58816129dd565b91505061191f565b5095945050505050565b600082815261010160205260409020600101548214611abc5760405162461bcd60e51b815260206004820152600e60248201526d125b9d985b1a59081a5d195b525960921b60448201526064016109aa565b600082815261010160205260409020600301546001600160a01b03163314611b265760405162461bcd60e51b815260206004820152601f60248201527f43616c6c6572206e6f7420612073656c6c6572206f6620746865206974656d0060448201526064016109aa565b600082815261010160205260409020600401546001600160a01b031615611b865760405162461bcd60e51b8152602060048201526014602482015273125d195b481a5cc8185b1c9958591e481cdbdb1960621b60448201526064016109aa565b60008111611ba65760405162461bcd60e51b81526004016109aa90612a15565b6000918252610101602052604090912060050155565b600054610100900460ff1615808015611bdc5750600054600160ff909116105b80611bf65750303b158015611bf6575060005460ff166001145b611c595760405162461bcd60e51b815260206004820152602e60248201527f496e697469616c697a61626c653a20636f6e747261637420697320616c72656160448201526d191e481a5b9a5d1a585b1a5e995960921b60648201526084016109aa565b6000805460ff191660011790558015611c7c576000805461ff0019166101001790555b6001600160a01b038316611cc45760405162461bcd60e51b815260206004820152600f60248201526e496e76616c6964206164647265737360881b60448201526064016109aa565b60fd80546001600160a01b038088166001600160a01b03199283161790925560fe805487841690831617905561010080549286169290911691909117905560ff829055611d0f61227c565b611d176122ab565b8015611d5d576000805461ff0019169055604051600181527f7f26b83ff96e1f2b6a682f133852f6798a09c465da95921460cefb38474024989060200160405180910390a15b5050505050565b60606000611d7160fb5490565b905060008060005b83811015611dd557336101016000611d928460016129af565b81526020810191909152604001600020600301546001600160a01b03161415611dc357611dc06001846129af565b92505b80611dcd816129dd565b915050611d79565b5060008267ffffffffffffffff811115611df157611df16126c6565b604051908082528060200260200182016040528015611e2a57816020015b611e17612576565b815260200190600190039081611e0f5790505b50905060005b848110156106ae57336101016000611e498460016129af565b81526020810191909152604001600020600301546001600160a01b03161415611f56576000611e798260016129af565b6000818152610101602090815260409182902082516101608101845281546001600160a01b03808216835260ff600160a01b909204821615159483019490945260018301549482019490945260028201546060820152600382015483166080820152600482015490921660a0830152600581015460c0830152600681015460e0830152600781015461010083015260088101546101208301526009810154909216151561014082015285519293509091859087908110611f3b57611f3b6129c7565b6020908102919091010152611f516001866129af565b945050505b80611f60816129dd565b915050611e30565b611f706121d0565b6001600160a01b038116611fd55760405162461bcd60e51b815260206004820152602660248201527f4f776e61626c653a206e6577206f776e657220697320746865207a65726f206160448201526564647265737360d01b60648201526084016109aa565b6111698161222a565b6001600160a01b03163b151590565b600260c95414156120405760405162461bcd60e51b815260206004820152601f60248201527f5265656e7472616e637947756172643a207265656e7472616e742063616c6c0060448201526064016109aa565b600260c955565b600160c955565b6111696121d0565b7f4910fdfa16fed3260ed0e7147f7cc6da11a60208b5b9406d12a635614ffd91435460ff161561208957611087836122da565b826001600160a01b03166352d1902d6040518163ffffffff1660e01b815260040160206040518083038186803b1580156120c257600080fd5b505afa9250505080156120f2575060408051601f3d908101601f191682019092526120ef91810190612ae0565b60015b6121555760405162461bcd60e51b815260206004820152602e60248201527f45524331393637557067726164653a206e657720696d706c656d656e7461746960448201526d6f6e206973206e6f74205555505360901b60648201526084016109aa565b600080516020612c9083398151915281146121c45760405162461bcd60e51b815260206004820152602960248201527f45524331393637557067726164653a20756e737570706f727465642070726f786044820152681a58589b195555525160ba1b60648201526084016109aa565b50611087838383612376565b6033546001600160a01b031633146116455760405162461bcd60e51b815260206004820181905260248201527f4f776e61626c653a2063616c6c6572206973206e6f7420746865206f776e657260448201526064016109aa565b603380546001600160a01b038381166001600160a01b0319831681179093556040519116919082907f8be0079c531659141344cd1fd0a4f28419497f9722a3daafe3b4186f6b6457e090600090a35050565b600054610100900460ff166122a35760405162461bcd60e51b81526004016109aa90612bc9565b6116456123a1565b600054610100900460ff166122d25760405162461bcd60e51b81526004016109aa90612bc9565b6116456123d1565b6001600160a01b0381163b6123475760405162461bcd60e51b815260206004820152602d60248201527f455243313936373a206e657720696d706c656d656e746174696f6e206973206e60448201526c1bdd08184818dbdb9d1c9858dd609a1b60648201526084016109aa565b600080516020612c9083398151915280546001600160a01b0319166001600160a01b0392909216919091179055565b61237f836123f8565b60008251118061238c5750805b156110875761239b8383612438565b50505050565b600054610100900460ff166123c85760405162461bcd60e51b81526004016109aa90612bc9565b6116453361222a565b600054610100900460ff166120475760405162461bcd60e51b81526004016109aa90612bc9565b612401816122da565b6040516001600160a01b038216907fbc7cd75a20ee27fd9adebab32041f755214dbc6bffa90cc0225b39da2e5c2d3b90600090a250565b60606001600160a01b0383163b6124a05760405162461bcd60e51b815260206004820152602660248201527f416464726573733a2064656c65676174652063616c6c20746f206e6f6e2d636f6044820152651b9d1c9858dd60d21b60648201526084016109aa565b600080846001600160a01b0316846040516124bb9190612c40565b600060405180830381855af49150503d80600081146124f6576040519150601f19603f3d011682016040523d82523d6000602084013e6124fb565b606091505b50915091506125238282604051806060016040528060278152602001612cb06027913961252c565b95945050505050565b6060831561253b575081612545565b612545838361254c565b9392505050565b81511561255c5781518083602001fd5b8060405162461bcd60e51b81526004016109aa9190612c5c565b60405180610160016040528060006001600160a01b03168152602001600015158152602001600081526020016000815260200160006001600160a01b0316815260200160006001600160a01b03168152602001600081526020016000815260200160008152602001600081526020016000151581525090565b602080825282518282018190526000919060409081850190868401855b828110156126a457815180516001600160a01b0390811686528782015115158887015286820151878701526060808301519087015260808083015182169087015260a0808301519091169086015260c0808201519086015260e080820151908601526101008082015190860152610120808201519086015261014090810151151590850152610160909301929085019060010161260c565b5091979650505050505050565b6001600160a01b038116811461116957600080fd5b634e487b7160e01b600052604160045260246000fd5b600082601f8301126126ed57600080fd5b813567ffffffffffffffff80821115612708576127086126c6565b604051601f8301601f19908116603f01168101908282118183101715612730576127306126c6565b8160405283815286602085880101111561274957600080fd5b836020870160208301376000602085830101528094505050505092915050565b6000806000806080858703121561277f57600080fd5b843561278a816126b1565b9350602085013561279a816126b1565b925060408501359150606085013567ffffffffffffffff8111156127bd57600080fd5b6127c9878288016126dc565b91505092959194509250565b6000806000606084860312156127ea57600080fd5b83359250602084013591506040840135801515811461280857600080fd5b809150509250925092565b60006020828403121561282557600080fd5b8135612545816126b1565b6000806040838503121561284357600080fd5b823561284e816126b1565b9150602083013567ffffffffffffffff81111561286a57600080fd5b612876858286016126dc565b9150509250929050565b60006020828403121561289257600080fd5b5035919050565b600080604083850312156128ac57600080fd5b50508035926020909101359150565b600080600080608085870312156128d157600080fd5b84356128dc816126b1565b935060208501356128ec816126b1565b925060408501356128fc816126b1565b9396929550929360600135925050565b600080600080600060a0868803121561292457600080fd5b853561292f816126b1565b9450602086013561293f816126b1565b93506040860135925060608601359150608086013567ffffffffffffffff81111561296957600080fd5b612975888289016126dc565b9150509295509295909350565b634e487b7160e01b600052601160045260246000fd5b6000828210156129aa576129aa612982565b500390565b600082198211156129c2576129c2612982565b500190565b634e487b7160e01b600052603260045260246000fd5b60006000198214156129f1576129f1612982565b5060010190565b600060208284031215612a0a57600080fd5b8151612545816126b1565b6020808252601c908201527f5072696365206d7573742062652067726561746572207468616e203000000000604082015260600190565b6000816000190483118215151615612a6657612a66612982565b500290565b600082612a8857634e487b7160e01b600052601260045260246000fd5b500490565b6001600160a01b03998a16815297151560208901529588166040880152939096166060860152608085019190915260a084015260c083019390935260e08201929092529015156101008201526101200190565b600060208284031215612af257600080fd5b5051919050565b6001600160a01b0394851681529290931660208301526040820152606081019190915260a06080820181905260009082015260c00190565b6020808252602c908201527f46756e6374696f6e206d7573742062652063616c6c6564207468726f7567682060408201526b19195b1959d85d1958d85b1b60a21b606082015260800190565b6020808252602c908201527f46756e6374696f6e206d7573742062652063616c6c6564207468726f7567682060408201526b6163746976652070726f787960a01b606082015260800190565b6020808252602b908201527f496e697469616c697a61626c653a20636f6e7472616374206973206e6f74206960408201526a6e697469616c697a696e6760a81b606082015260800190565b60005b83811015612c2f578181015183820152602001612c17565b8381111561239b5750506000910152565b60008251612c52818460208701612c14565b9190910192915050565b6020815260008251806020840152612c7b816040850160208701612c14565b601f01601f1916919091016040019291505056fe360894a13ba1a3210667c828492db98dca3e2076cc3735a920a3ca505d382bbc416464726573733a206c6f772d6c6576656c2064656c65676174652063616c6c206661696c6564a2646970667358221220d82097a5c80b67fcef2842e5080be1c44686964a5020cf4b42e2efff03688dda64736f6c63430008080033",
  "linkReferences": {},
  "deployedLinkReferences": {}
}