{
  "_format": "hh-sol-artifact-1",
  "contractName": "Marketplace",
  "sourceName": "contracts/NFTMarketplace.sol",
  "abi": [
    {
      "anonymous": false,
      "inputs": [
        {
          "indexed": false,
          "internalType": "address",
          "name": "previousAdmin",
          "type": "address"
        },
        {
          "indexed": false,
          "internalType": "address",
          "name": "newAdmin",
          "type": "address"
        }
      ],
      "name": "AdminChanged",
      "type": "event"
    },
    {
      "anonymous": false,
      "inputs": [
        {
          "indexed": true,
          "internalType": "address",
          "name": "beacon",
          "type": "address"
        }
      ],
      "name": "BeaconUpgraded",
      "type": "event"
    },
    {
      "anonymous": false,
      "inputs": [
        {
          "indexed": false,
          "internalType": "uint8",
          "name": "version",
          "type": "uint8"
        }
      ],
      "name": "Initialized",
      "type": "event"
    },
    {
      "anonymous": false,
      "inputs": [
        {
          "indexed": false,
          "internalType": "address",
          "name": "nftAddress",
          "type": "address"
        },
        {
          "indexed": false,
          "internalType": "bool",
          "name": "isERC721",
          "type": "bool"
        },
        {
          "indexed": true,
          "internalType": "uint256",
          "name": "itemId",
          "type": "uint256"
        },
        {
          "indexed": true,
          "internalType": "uint256",
          "name": "tokenId",
          "type": "uint256"
        },
        {
          "indexed": false,
          "internalType": "address",
          "name": "seller",
          "type": "address"
        },
        {
          "indexed": false,
          "internalType": "address",
          "name": "nftOwner",
          "type": "address"
        },
        {
          "indexed": false,
          "internalType": "uint256",
          "name": "price",
          "type": "uint256"
        },
        {
          "indexed": false,
          "internalType": "uint256",
          "name": "platformFee",
          "type": "uint256"
        },
        {
          "indexed": false,
          "internalType": "uint256",
          "name": "feeAmount",
          "type": "uint256"
        },
        {
          "indexed": false,
          "internalType": "uint256",
          "name": "totalPrice",
          "type": "uint256"
        },
        {
          "indexed": false,
          "internalType": "bool",
          "name": "sold",
          "type": "bool"
        }
      ],
      "name": "MarketItemCreated",
      "type": "event"
    },
    {
      "anonymous": false,
      "inputs": [
        {
          "indexed": true,
          "internalType": "address",
          "name": "previousOwner",
          "type": "address"
        },
        {
          "indexed": true,
          "internalType": "address",
          "name": "newOwner",
          "type": "address"
        }
      ],
      "name": "OwnershipTransferred",
      "type": "event"
    },
    {
      "anonymous": false,
      "inputs": [
        {
          "indexed": true,
          "internalType": "address",
          "name": "implementation",
          "type": "address"
        }
      ],
      "name": "Upgraded",
      "type": "event"
    },
    {
      "inputs": [
        {
          "internalType": "uint256",
          "name": "itemId",
          "type": "uint256"
        }
      ],
      "name": "buyNFT",
      "outputs": [],
      "stateMutability": "payable",
      "type": "function"
    },
    {
      "inputs": [
        {
          "internalType": "uint256",
          "name": "itemId",
          "type": "uint256"
        }
      ],
      "name": "cancelMarketItem",
      "outputs": [],
      "stateMutability": "nonpayable",
      "type": "function"
    },
    {
      "inputs": [
        {
          "internalType": "uint256",
          "name": "tokenId",
          "type": "uint256"
        },
        {
          "internalType": "uint256",
          "name": "priceInWei",
          "type": "uint256"
        },
        {
          "internalType": "bool",
          "name": "isErc721",
          "type": "bool"
        }
      ],
      "name": "createMarketItem",
      "outputs": [],
      "stateMutability": "nonpayable",
      "type": "function"
    },
    {
      "inputs": [],
      "name": "currentItemId",
      "outputs": [
        {
          "internalType": "uint256",
          "name": "",
          "type": "uint256"
        }
      ],
      "stateMutability": "view",
      "type": "function"
    },
    {
      "inputs": [],
      "name": "currentItemOwner",
      "outputs": [
        {
          "internalType": "address",
          "name": "",
          "type": "address"
        }
      ],
      "stateMutability": "view",
      "type": "function"
    },
    {
      "inputs": [],
      "name": "fetchItemsCreated",
      "outputs": [
        {
          "components": [
            {
              "internalType": "address",
              "name": "nftAddress",
              "type": "address"
            },
            {
              "internalType": "bool",
              "name": "isERC721",
              "type": "bool"
            },
            {
              "internalType": "uint256",
              "name": "itemId",
              "type": "uint256"
            },
            {
              "internalType": "uint256",
              "name": "tokenId",
              "type": "uint256"
            },
            {
              "internalType": "address",
              "name": "seller",
              "type": "address"
            },
            {
              "internalType": "address",
              "name": "nftOwner",
              "type": "address"
            },
            {
              "internalType": "uint256",
              "name": "price",
              "type": "uint256"
            },
            {
              "internalType": "uint256",
              "name": "platformFee",
              "type": "uint256"
            },
            {
              "internalType": "uint256",
              "name": "feeAmount",
              "type": "uint256"
            },
            {
              "internalType": "uint256",
              "name": "totalPrice",
              "type": "uint256"
            },
            {
              "internalType": "bool",
              "name": "sold",
              "type": "bool"
            }
          ],
          "internalType": "struct Marketplace.MarketItem[]",
          "name": "",
          "type": "tuple[]"
        }
      ],
      "stateMutability": "view",
      "type": "function"
    },
    {
      "inputs": [],
      "name": "fetchMarketItems",
      "outputs": [
        {
          "components": [
            {
              "internalType": "address",
              "name": "nftAddress",
              "type": "address"
            },
            {
              "internalType": "bool",
              "name": "isERC721",
              "type": "bool"
            },
            {
              "internalType": "uint256",
              "name": "itemId",
              "type": "uint256"
            },
            {
              "internalType": "uint256",
              "name": "tokenId",
              "type": "uint256"
            },
            {
              "internalType": "address",
              "name": "seller",
              "type": "address"
            },
            {
              "internalType": "address",
              "name": "nftOwner",
              "type": "address"
            },
            {
              "internalType": "uint256",
              "name": "price",
              "type": "uint256"
            },
            {
              "internalType": "uint256",
              "name": "platformFee",
              "type": "uint256"
            },
            {
              "internalType": "uint256",
              "name": "feeAmount",
              "type": "uint256"
            },
            {
              "internalType": "uint256",
              "name": "totalPrice",
              "type": "uint256"
            },
            {
              "internalType": "bool",
              "name": "sold",
              "type": "bool"
            }
          ],
          "internalType": "struct Marketplace.MarketItem[]",
          "name": "",
          "type": "tuple[]"
        }
      ],
      "stateMutability": "view",
      "type": "function"
    },
    {
      "inputs": [],
      "name": "fetchMyNFTs",
      "outputs": [
        {
          "components": [
            {
              "internalType": "address",
              "name": "nftAddress",
              "type": "address"
            },
            {
              "internalType": "bool",
              "name": "isERC721",
              "type": "bool"
            },
            {
              "internalType": "uint256",
              "name": "itemId",
              "type": "uint256"
            },
            {
              "internalType": "uint256",
              "name": "tokenId",
              "type": "uint256"
            },
            {
              "internalType": "address",
              "name": "seller",
              "type": "address"
            },
            {
              "internalType": "address",
              "name": "nftOwner",
              "type": "address"
            },
            {
              "internalType": "uint256",
              "name": "price",
              "type": "uint256"
            },
            {
              "internalType": "uint256",
              "name": "platformFee",
              "type": "uint256"
            },
            {
              "internalType": "uint256",
              "name": "feeAmount",
              "type": "uint256"
            },
            {
              "internalType": "uint256",
              "name": "totalPrice",
              "type": "uint256"
            },
            {
              "internalType": "bool",
              "name": "sold",
              "type": "bool"
            }
          ],
          "internalType": "struct Marketplace.MarketItem[]",
          "name": "",
          "type": "tuple[]"
        }
      ],
      "stateMutability": "view",
      "type": "function"
    },
    {
      "inputs": [
        {
          "internalType": "address",
          "name": "userAddress",
          "type": "address"
        }
      ],
      "name": "fetchUserNFTs",
      "outputs": [
        {
          "components": [
            {
              "internalType": "address",
              "name": "nftAddress",
              "type": "address"
            },
            {
              "internalType": "bool",
              "name": "isERC721",
              "type": "bool"
            },
            {
              "internalType": "uint256",
              "name": "itemId",
              "type": "uint256"
            },
            {
              "internalType": "uint256",
              "name": "tokenId",
              "type": "uint256"
            },
            {
              "internalType": "address",
              "name": "seller",
              "type": "address"
            },
            {
              "internalType": "address",
              "name": "nftOwner",
              "type": "address"
            },
            {
              "internalType": "uint256",
              "name": "price",
              "type": "uint256"
            },
            {
              "internalType": "uint256",
              "name": "platformFee",
              "type": "uint256"
            },
            {
              "internalType": "uint256",
              "name": "feeAmount",
              "type": "uint256"
            },
            {
              "internalType": "uint256",
              "name": "totalPrice",
              "type": "uint256"
            },
            {
              "internalType": "bool",
              "name": "sold",
              "type": "bool"
            }
          ],
          "internalType": "struct Marketplace.MarketItem[]",
          "name": "",
          "type": "tuple[]"
        }
      ],
      "stateMutability": "view",
      "type": "function"
    },
    {
      "inputs": [
        {
          "internalType": "address",
          "name": "_nftContract",
          "type": "address"
        },
        {
          "internalType": "address",
          "name": "_myNftContract",
          "type": "address"
        },
        {
          "internalType": "address",
          "name": "_platformWallet",
          "type": "address"
        },
        {
          "internalType": "uint256",
          "name": "_platformFee",
          "type": "uint256"
        }
      ],
      "name": "initialize",
      "outputs": [],
      "stateMutability": "nonpayable",
      "type": "function"
    },
    {
      "inputs": [],
      "name": "myNftContract",
      "outputs": [
        {
          "internalType": "contract IERC1155",
          "name": "",
          "type": "address"
        }
      ],
      "stateMutability": "view",
      "type": "function"
    },
    {
      "inputs": [],
      "name": "nftContract",
      "outputs": [
        {
          "internalType": "contract IERC721",
          "name": "",
          "type": "address"
        }
      ],
      "stateMutability": "view",
      "type": "function"
    },
    {
      "inputs": [
        {
          "internalType": "address",
          "name": "",
          "type": "address"
        },
        {
          "internalType": "address",
          "name": "",
          "type": "address"
        },
        {
          "internalType": "uint256",
          "name": "",
          "type": "uint256"
        },
        {
          "internalType": "uint256",
          "name": "",
          "type": "uint256"
        },
        {
          "internalType": "bytes",
          "name": "",
          "type": "bytes"
        }
      ],
      "name": "onERC1155Received",
      "outputs": [
        {
          "internalType": "bytes4",
          "name": "",
          "type": "bytes4"
        }
      ],
      "stateMutability": "nonpayable",
      "type": "function"
    },
    {
      "inputs": [
        {
          "internalType": "address",
          "name": "",
          "type": "address"
        },
        {
          "internalType": "address",
          "name": "",
          "type": "address"
        },
        {
          "internalType": "uint256",
          "name": "",
          "type": "uint256"
        },
        {
          "internalType": "bytes",
          "name": "",
          "type": "bytes"
        }
      ],
      "name": "onERC721Received",
      "outputs": [
        {
          "internalType": "bytes4",
          "name": "",
          "type": "bytes4"
        }
      ],
      "stateMutability": "nonpayable",
      "type": "function"
    },
    {
      "inputs": [],
      "name": "owner",
      "outputs": [
        {
          "internalType": "address",
          "name": "",
          "type": "address"
        }
      ],
      "stateMutability": "view",
      "type": "function"
    },
    {
      "inputs": [],
      "name": "platformFee",
      "outputs": [
        {
          "internalType": "uint256",
          "name": "",
          "type": "uint256"
        }
      ],
      "stateMutability": "view",
      "type": "function"
    },
    {
      "inputs": [],
      "name": "platformWallet",
      "outputs": [
        {
          "internalType": "address payable",
          "name": "",
          "type": "address"
        }
      ],
      "stateMutability": "view",
      "type": "function"
    },
    {
      "inputs": [],
      "name": "proxiableUUID",
      "outputs": [
        {
          "internalType": "bytes32",
          "name": "",
          "type": "bytes32"
        }
      ],
      "stateMutability": "view",
      "type": "function"
    },
    {
      "inputs": [],
      "name": "renounceOwnership",
      "outputs": [],
      "stateMutability": "nonpayable",
      "type": "function"
    },
    {
      "inputs": [
        {
          "internalType": "address",
          "name": "newOwner",
          "type": "address"
        }
      ],
      "name": "transferOwnership",
      "outputs": [],
      "stateMutability": "nonpayable",
      "type": "function"
    },
    {
      "inputs": [
        {
          "internalType": "address",
          "name": "newImplementation",
          "type": "address"
        }
      ],
      "name": "upgradeTo",
      "outputs": [],
      "stateMutability": "nonpayable",
      "type": "function"
    },
    {
      "inputs": [
        {
          "internalType": "address",
          "name": "newImplementation",
          "type": "address"
        },
        {
          "internalType": "bytes",
          "name": "data",
          "type": "bytes"
        }
      ],
      "name": "upgradeToAndCall",
      "outputs": [],
      "stateMutability": "payable",
      "type": "function"
    }
  ],
  "bytecode": "0x60a06040523060601b60805234801561001757600080fd5b5060805160601c612a2f6100526000396000818161100301528181611043015281816110e301528181611123015261146c0152612a2f6000f3fe6080604052600436106101355760003560e01c8063a1cfe2f7116100ab578063d56d229d1161006f578063d56d229d1461033c578063dfe0a9b11461035c578063f064c32e14610371578063f23a6e6114610386578063f2fde38b146103b2578063fa2af9da146103d257600080fd5b8063a1cfe2f7146102a7578063a6e22b02146102c7578063ba8b6b1a146102e7578063bd68b117146102fc578063cf756fdf1461031c57600080fd5b80633659cfe6116100fd5780633659cfe6146102055780634f1ef2861461022557806351ed82881461023857806352d1902d1461024b578063715018a6146102605780638da5cb5b1461027557600080fd5b80630f08efe01461013a578063150b7a0214610165578063202e3740146101a957806326232a2e146101be5780632a2cfd33146101e3575b600080fd5b34801561014657600080fd5b5061014f6103f3565b60405161015c919061236b565b60405180910390f35b34801561017157600080fd5b506101906101803660046124e5565b630a85bd0160e11b949350505050565b6040516001600160e01b0319909116815260200161015c565b3480156101b557600080fd5b5061014f6105b8565b3480156101ca57600080fd5b506101d56101005481565b60405190815260200161015c565b3480156101ef57600080fd5b506102036101fe366004612551565b6107bc565b005b34801561021157600080fd5b5061020361022036600461258f565b610ff8565b6102036102333660046125ac565b6110d8565b6102036102463660046125fc565b6111a9565b34801561025757600080fd5b506101d561145f565b34801561026c57600080fd5b50610203611512565b34801561028157600080fd5b506033546001600160a01b03165b6040516001600160a01b03909116815260200161015c565b3480156102b357600080fd5b5060fe5461028f906001600160a01b031681565b3480156102d357600080fd5b506102036102e23660046125fc565b611526565b3480156102f357600080fd5b5061028f61172e565b34801561030857600080fd5b5061014f61031736600461258f565b61175c565b34801561032857600080fd5b50610203610337366004612615565b61197c565b34801561034857600080fd5b5060fd5461028f906001600160a01b031681565b34801561036857600080fd5b506101d5611add565b34801561037d57600080fd5b5061014f611aef565b34801561039257600080fd5b506101906103a1366004612666565b63f23a6e6160e01b95945050505050565b3480156103be57600080fd5b506102036103cd36600461258f565b611cf3565b3480156103de57600080fd5b506101015461028f906001600160a01b031681565b6060600061040060fb5490565b9050600061040d60fc5490565b60fb5461041a91906126f2565b90506000808267ffffffffffffffff81111561043857610438612442565b60405190808252806020026020018201604052801561047157816020015b61045e6122f2565b8152602001906001900390816104565790505b50905060005b848110156105af57600061010281610490846001612709565b81526020810191909152604001600020600401546001600160a01b0316141561059d5760006104c0826001612709565b6000818152610102602090815260409182902082516101608101845281546001600160a01b03808216835260ff600160a01b909204821615159483019490945260018301549482019490945260028201546060820152600382015483166080820152600482015490921660a0830152600581015460c0830152600681015460e083015260078101546101008301526008810154610120830152600981015490921615156101408201528551929350909185908790811061058257610582612721565b6020908102919091010152610598600186612709565b945050505b806105a781612737565b915050610477565b50949350505050565b606060006105c560fb5490565b905060008060005b83811015610629573361010260006105e6846001612709565b81526020810191909152604001600020600401546001600160a01b0316141561061757610614600184612709565b92505b8061062181612737565b9150506105cd565b5060008267ffffffffffffffff81111561064557610645612442565b60405190808252806020026020018201604052801561067e57816020015b61066b6122f2565b8152602001906001900390816106635790505b50905060005b848110156105af5733610102600061069d846001612709565b81526020810191909152604001600020600401546001600160a01b031614156107aa5760006106cd826001612709565b6000818152610102602090815260409182902082516101608101845281546001600160a01b03808216835260ff600160a01b909204821615159483019490945260018301549482019490945260028201546060820152600382015483166080820152600482015490921660a0830152600581015460c0830152600681015460e083015260078101546101008301526008810154610120830152600981015490921615156101408201528551929350909185908790811061078f5761078f612721565b60209081029190910101526107a5600186612709565b945050505b806107b481612737565b915050610684565b6107c4611d69565b60018115151415610bf05760fd546040516331a9108f60e11b81526004810185905233916001600160a01b031690636352211e9060240160206040518083038186803b15801561081357600080fd5b505afa158015610827573d6000803e3d6000fd5b505050506040513d601f19601f8201168201806040525081019061084b9190612752565b6001600160a01b0316146108b95760405162461bcd60e51b815260206004820152602a60248201527f596f75206d757374206f776e207468652045524337323120746f6b656e20746f604482015269206c697374206865726560b01b60648201526084015b60405180910390fd5b600082116109095760405162461bcd60e51b815260206004820152601c60248201527f5072696365206d7573742062652067726561746572207468616e20300000000060448201526064016108b0565b61091760fb80546001019055565b600061092260fb5490565b905060006127106101005485610938919061276f565b610942919061278e565b905060006109508286612709565b905060405180610160016040528060fd60009054906101000a90046001600160a01b03166001600160a01b03168152602001600115158152602001848152602001878152602001336001600160a01b0316815260200160006001600160a01b0316815260200186815260200161010054815260200183815260200182815260200160001515815250610102600085815260200190815260200160002060008201518160000160006101000a8154816001600160a01b0302191690836001600160a01b0316021790555060208201518160000160146101000a81548160ff021916908315150217905550604082015181600101556060820151816002015560808201518160030160006101000a8154816001600160a01b0302191690836001600160a01b0316021790555060a08201518160040160006101000a8154816001600160a01b0302191690836001600160a01b0316021790555060c0820151816005015560e08201518160060155610100820151816007015561012082015181600801556101408201518160090160006101000a81548160ff02191690831515021790555090505060fd60009054906101000a90046001600160a01b03166001600160a01b03166342842e0e3330896040518463ffffffff1660e01b8152600401610b59939291906001600160a01b039384168152919092166020820152604081019190915260600190565b600060405180830381600087803b158015610b7357600080fd5b505af1158015610b87573d6000803e3d6000fd5b505060fd54610100546040518a94508793507fe712e5677502bdc7429522e7fe50fc506009998b66c378cfbff45e2ce4f3724d92610be0926001600160a01b039091169160019133916000918e918c908c9085906127b0565b60405180910390a3505050610fe9565b60fe54604051627eeac760e11b8152336004820152602481018590526001600160a01b039091169062fdd58e9060440160206040518083038186803b158015610c3857600080fd5b505afa158015610c4c573d6000803e3d6000fd5b505050506040513d601f19601f82011682018060405250810190610c709190612803565b600114610cd35760405162461bcd60e51b815260206004820152602b60248201527f596f75206d757374206f776e20746865204552433131353520746f6b656e207460448201526a6f206c697374206865726560a81b60648201526084016108b0565b60008211610d235760405162461bcd60e51b815260206004820152601c60248201527f5072696365206d7573742062652067726561746572207468616e20300000000060448201526064016108b0565b610d3160fb80546001019055565b6000610d3c60fb5490565b905060006127106101005485610d52919061276f565b610d5c919061278e565b90506000610d6a8286612709565b905060405180610160016040528060fe60009054906101000a90046001600160a01b03166001600160a01b03168152602001600015158152602001848152602001878152602001336001600160a01b0316815260200160006001600160a01b0316815260200186815260200161010054815260200183815260200182815260200160001515815250610102600085815260200190815260200160002060008201518160000160006101000a8154816001600160a01b0302191690836001600160a01b0316021790555060208201518160000160146101000a81548160ff021916908315150217905550604082015181600101556060820151816002015560808201518160030160006101000a8154816001600160a01b0302191690836001600160a01b0316021790555060a08201518160040160006101000a8154816001600160a01b0302191690836001600160a01b0316021790555060c0820151816005015560e08201518160060155610100820151816007015561012082015181600801556101408201518160090160006101000a81548160ff02191690831515021790555090505060fe60009054906101000a90046001600160a01b03166001600160a01b031663f242432a33308960016040518563ffffffff1660e01b8152600401610f57949392919061281c565b600060405180830381600087803b158015610f7157600080fd5b505af1158015610f85573d6000803e3d6000fd5b505060fe54610100546040518a94508793507fe712e5677502bdc7429522e7fe50fc506009998b66c378cfbff45e2ce4f3724d92610fdd926001600160a01b0390911691600091339183918e918c908c9085906127b0565b60405180910390a35050505b610ff3600160c955565b505050565b306001600160a01b037f00000000000000000000000000000000000000000000000000000000000000001614156110415760405162461bcd60e51b81526004016108b090612854565b7f00000000000000000000000000000000000000000000000000000000000000006001600160a01b031661108a6000805160206129b3833981519152546001600160a01b031690565b6001600160a01b0316146110b05760405162461bcd60e51b81526004016108b0906128a0565b6110b981611dca565b604080516000808252602082019092526110d591839190611dd2565b50565b306001600160a01b037f00000000000000000000000000000000000000000000000000000000000000001614156111215760405162461bcd60e51b81526004016108b090612854565b7f00000000000000000000000000000000000000000000000000000000000000006001600160a01b031661116a6000805160206129b3833981519152546001600160a01b031690565b6001600160a01b0316146111905760405162461bcd60e51b81526004016108b0906128a0565b61119982611dca565b6111a582826001611dd2565b5050565b6111b1611d69565b60008181526101026020526040902080546008820154600283015460038401546007850154600490950154600160a01b90940460ff1694929391926001600160a01b03918216929091161561123f5760405162461bcd60e51b8152602060048201526014602482015273125d195b481a5cc8185b1c9958591e481cdbdb1960621b60448201526064016108b0565b600086815261010260205260409020600301546001600160a01b03163314156112aa5760405162461bcd60e51b815260206004820152601860248201527f43616e6e6f742062757920796f7572206f776e206974656d000000000000000060448201526064016108b0565b60006112b682866126f2565b6040519091506001600160a01b0384169082156108fc029083906000818181858888f193505050501580156112ef573d6000803e3d6000fd5b50610101546040516001600160a01b039091169083156108fc029084906000818181858888f1935050505015801561132b573d6000803e3d6000fd5b50600186151514156113a65760fd54604051632142170760e11b8152306004820152336024820152604481018690526001600160a01b03909116906342842e0e90606401600060405180830381600087803b15801561138957600080fd5b505af115801561139d573d6000803e3d6000fd5b50505050611410565b60fe54604051637921219560e11b81526001600160a01b039091169063f242432a906113dd9030903390899060019060040161281c565b600060405180830381600087803b1580156113f757600080fd5b505af115801561140b573d6000803e3d6000fd5b505050505b6000878152610102602052604090206004810180546001600160a01b03191633179055600901805460ff1916600117905561144f60fc80546001019055565b5050505050506110d5600160c955565b6000306001600160a01b037f000000000000000000000000000000000000000000000000000000000000000016146114ff5760405162461bcd60e51b815260206004820152603860248201527f555550535570677261646561626c653a206d757374206e6f742062652063616c60448201527f6c6564207468726f7567682064656c656761746563616c6c000000000000000060648201526084016108b0565b506000805160206129b383398151915290565b61151a611f4c565b6115246000611fa6565b565b61152e611d69565b60008181526101026020526040902080546002820154600390920154600160a01b90910460ff169190336001600160a01b03909116146115bf5760405162461bcd60e51b815260206004820152602660248201527f43616c6c6572206e6f7420616e206f776e6572206f6620746865206d61726b6560448201526574206974656d60d01b60648201526084016108b0565b600182151514156116595760008381526101026020526040908190205460fd80546001600160a01b0319166001600160a01b0390921691821790559051632142170760e11b8152306004820152336024820152604481018390526342842e0e90606401600060405180830381600087803b15801561163c57600080fd5b505af1158015611650573d6000803e3d6000fd5b505050506116e3565b60008381526101026020526040908190205460fe80546001600160a01b0319166001600160a01b0390921691821790559051637921219560e11b815263f242432a906116b09030903390869060019060040161281c565b600060405180830381600087803b1580156116ca57600080fd5b505af11580156116de573d6000803e3d6000fd5b505050505b6000838152610102602052604090206004810180546001600160a01b03191633179055600901805460ff1916600117905561172260fc80546001019055565b50506110d5600160c955565b60008061173a60fb5490565b600090815261010260205260409020600401546001600160a01b031692915050565b6060600061176960fb5490565b905060008060005b838110156117d6576001600160a01b0386166101026000611793846001612709565b81526020810191909152604001600020600401546001600160a01b031614156117c4576117c1600184612709565b92505b806117ce81612737565b915050611771565b5060008267ffffffffffffffff8111156117f2576117f2612442565b60405190808252806020026020018201604052801561182b57816020015b6118186122f2565b8152602001906001900390816118105790505b50905060005b84811015611972576001600160a01b0387166101026000611853846001612709565b81526020810191909152604001600020600401546001600160a01b03161415611960576000611883826001612709565b6000818152610102602090815260409182902082516101608101845281546001600160a01b03808216835260ff600160a01b909204821615159483019490945260018301549482019490945260028201546060820152600382015483166080820152600482015490921660a0830152600581015460c0830152600681015460e083015260078101546101008301526008810154610120830152600981015490921615156101408201528551929350909185908790811061194557611945612721565b602090810291909101015261195b600186612709565b945050505b8061196a81612737565b915050611831565b5095945050505050565b600054610100900460ff161580801561199c5750600054600160ff909116105b806119b65750303b1580156119b6575060005460ff166001145b611a195760405162461bcd60e51b815260206004820152602e60248201527f496e697469616c697a61626c653a20636f6e747261637420697320616c72656160448201526d191e481a5b9a5d1a585b1a5e995960921b60648201526084016108b0565b6000805460ff191660011790558015611a3c576000805461ff0019166101001790555b60fd80546001600160a01b038088166001600160a01b03199283161790925560fe8054878416908316179055610101805492861692909116919091179055610100829055611a88611ff8565b611a90612027565b8015611ad6576000805461ff0019169055604051600181527f7f26b83ff96e1f2b6a682f133852f6798a09c465da95921460cefb38474024989060200160405180910390a15b5050505050565b600080611ae960fb5490565b92915050565b60606000611afc60fb5490565b905060008060005b83811015611b6057336101026000611b1d846001612709565b81526020810191909152604001600020600301546001600160a01b03161415611b4e57611b4b600184612709565b92505b80611b5881612737565b915050611b04565b5060008267ffffffffffffffff811115611b7c57611b7c612442565b604051908082528060200260200182016040528015611bb557816020015b611ba26122f2565b815260200190600190039081611b9a5790505b50905060005b848110156105af57336101026000611bd4846001612709565b81526020810191909152604001600020600301546001600160a01b03161415611ce1576000611c04826001612709565b6000818152610102602090815260409182902082516101608101845281546001600160a01b03808216835260ff600160a01b909204821615159483019490945260018301549482019490945260028201546060820152600382015483166080820152600482015490921660a0830152600581015460c0830152600681015460e0830152600781015461010083015260088101546101208301526009810154909216151561014082015285519293509091859087908110611cc657611cc6612721565b6020908102919091010152611cdc600186612709565b945050505b80611ceb81612737565b915050611bbb565b611cfb611f4c565b6001600160a01b038116611d605760405162461bcd60e51b815260206004820152602660248201527f4f776e61626c653a206e6577206f776e657220697320746865207a65726f206160448201526564647265737360d01b60648201526084016108b0565b6110d581611fa6565b600260c9541415611dbc5760405162461bcd60e51b815260206004820152601f60248201527f5265656e7472616e637947756172643a207265656e7472616e742063616c6c0060448201526064016108b0565b600260c955565b600160c955565b6110d5611f4c565b7f4910fdfa16fed3260ed0e7147f7cc6da11a60208b5b9406d12a635614ffd91435460ff1615611e0557610ff383612056565b826001600160a01b03166352d1902d6040518163ffffffff1660e01b815260040160206040518083038186803b158015611e3e57600080fd5b505afa925050508015611e6e575060408051601f3d908101601f19168201909252611e6b91810190612803565b60015b611ed15760405162461bcd60e51b815260206004820152602e60248201527f45524331393637557067726164653a206e657720696d706c656d656e7461746960448201526d6f6e206973206e6f74205555505360901b60648201526084016108b0565b6000805160206129b38339815191528114611f405760405162461bcd60e51b815260206004820152602960248201527f45524331393637557067726164653a20756e737570706f727465642070726f786044820152681a58589b195555525160ba1b60648201526084016108b0565b50610ff38383836120f2565b6033546001600160a01b031633146115245760405162461bcd60e51b815260206004820181905260248201527f4f776e61626c653a2063616c6c6572206973206e6f7420746865206f776e657260448201526064016108b0565b603380546001600160a01b038381166001600160a01b0319831681179093556040519116919082907f8be0079c531659141344cd1fd0a4f28419497f9722a3daafe3b4186f6b6457e090600090a35050565b600054610100900460ff1661201f5760405162461bcd60e51b81526004016108b0906128ec565b61152461211d565b600054610100900460ff1661204e5760405162461bcd60e51b81526004016108b0906128ec565b61152461214d565b6001600160a01b0381163b6120c35760405162461bcd60e51b815260206004820152602d60248201527f455243313936373a206e657720696d706c656d656e746174696f6e206973206e60448201526c1bdd08184818dbdb9d1c9858dd609a1b60648201526084016108b0565b6000805160206129b383398151915280546001600160a01b0319166001600160a01b0392909216919091179055565b6120fb83612174565b6000825111806121085750805b15610ff35761211783836121b4565b50505050565b600054610100900460ff166121445760405162461bcd60e51b81526004016108b0906128ec565b61152433611fa6565b600054610100900460ff16611dc35760405162461bcd60e51b81526004016108b0906128ec565b61217d81612056565b6040516001600160a01b038216907fbc7cd75a20ee27fd9adebab32041f755214dbc6bffa90cc0225b39da2e5c2d3b90600090a250565b60606001600160a01b0383163b61221c5760405162461bcd60e51b815260206004820152602660248201527f416464726573733a2064656c65676174652063616c6c20746f206e6f6e2d636f6044820152651b9d1c9858dd60d21b60648201526084016108b0565b600080846001600160a01b0316846040516122379190612963565b600060405180830381855af49150503d8060008114612272576040519150601f19603f3d011682016040523d82523d6000602084013e612277565b606091505b509150915061229f82826040518060600160405280602781526020016129d3602791396122a8565b95945050505050565b606083156122b75750816122c1565b6122c183836122c8565b9392505050565b8151156122d85781518083602001fd5b8060405162461bcd60e51b81526004016108b0919061297f565b60405180610160016040528060006001600160a01b03168152602001600015158152602001600081526020016000815260200160006001600160a01b0316815260200160006001600160a01b03168152602001600081526020016000815260200160008152602001600081526020016000151581525090565b602080825282518282018190526000919060409081850190868401855b8281101561242057815180516001600160a01b0390811686528782015115158887015286820151878701526060808301519087015260808083015182169087015260a0808301519091169086015260c0808201519086015260e0808201519086015261010080820151908601526101208082015190860152610140908101511515908501526101609093019290850190600101612388565b5091979650505050505050565b6001600160a01b03811681146110d557600080fd5b634e487b7160e01b600052604160045260246000fd5b600082601f83011261246957600080fd5b813567ffffffffffffffff8082111561248457612484612442565b604051601f8301601f19908116603f011681019082821181831017156124ac576124ac612442565b816040528381528660208588010111156124c557600080fd5b836020870160208301376000602085830101528094505050505092915050565b600080600080608085870312156124fb57600080fd5b84356125068161242d565b935060208501356125168161242d565b925060408501359150606085013567ffffffffffffffff81111561253957600080fd5b61254587828801612458565b91505092959194509250565b60008060006060848603121561256657600080fd5b83359250602084013591506040840135801515811461258457600080fd5b809150509250925092565b6000602082840312156125a157600080fd5b81356122c18161242d565b600080604083850312156125bf57600080fd5b82356125ca8161242d565b9150602083013567ffffffffffffffff8111156125e657600080fd5b6125f285828601612458565b9150509250929050565b60006020828403121561260e57600080fd5b5035919050565b6000806000806080858703121561262b57600080fd5b84356126368161242d565b935060208501356126468161242d565b925060408501356126568161242d565b9396929550929360600135925050565b600080600080600060a0868803121561267e57600080fd5b85356126898161242d565b945060208601356126998161242d565b93506040860135925060608601359150608086013567ffffffffffffffff8111156126c357600080fd5b6126cf88828901612458565b9150509295509295909350565b634e487b7160e01b600052601160045260246000fd5b600082821015612704576127046126dc565b500390565b6000821982111561271c5761271c6126dc565b500190565b634e487b7160e01b600052603260045260246000fd5b600060001982141561274b5761274b6126dc565b5060010190565b60006020828403121561276457600080fd5b81516122c18161242d565b6000816000190483118215151615612789576127896126dc565b500290565b6000826127ab57634e487b7160e01b600052601260045260246000fd5b500490565b6001600160a01b03998a16815297151560208901529588166040880152939096166060860152608085019190915260a084015260c083019390935260e08201929092529015156101008201526101200190565b60006020828403121561281557600080fd5b5051919050565b6001600160a01b0394851681529290931660208301526040820152606081019190915260a06080820181905260009082015260c00190565b6020808252602c908201527f46756e6374696f6e206d7573742062652063616c6c6564207468726f7567682060408201526b19195b1959d85d1958d85b1b60a21b606082015260800190565b6020808252602c908201527f46756e6374696f6e206d7573742062652063616c6c6564207468726f7567682060408201526b6163746976652070726f787960a01b606082015260800190565b6020808252602b908201527f496e697469616c697a61626c653a20636f6e7472616374206973206e6f74206960408201526a6e697469616c697a696e6760a81b606082015260800190565b60005b8381101561295257818101518382015260200161293a565b838111156121175750506000910152565b60008251612975818460208701612937565b9190910192915050565b602081526000825180602084015261299e816040850160208701612937565b601f01601f1916919091016040019291505056fe360894a13ba1a3210667c828492db98dca3e2076cc3735a920a3ca505d382bbc416464726573733a206c6f772d6c6576656c2064656c65676174652063616c6c206661696c6564a26469706673582212207b858ca20226778897b6340eaf767901bf7f00b054ee967777942bd60b51f85e64736f6c63430008080033",
  "linkReferences": {},
  "deployedLinkReferences": {}
}