{
  "_format": "hh-sol-artifact-1",
  "contractName": "Marketplace",
  "sourceName": "contracts/NFTMarketplace.sol",
  "abi": [
    {
      "anonymous": false,
      "inputs": [
        {
          "indexed": false,
          "internalType": "address",
          "name": "previousAdmin",
          "type": "address"
        },
        {
          "indexed": false,
          "internalType": "address",
          "name": "newAdmin",
          "type": "address"
        }
      ],
      "name": "AdminChanged",
      "type": "event"
    },
    {
      "anonymous": false,
      "inputs": [
        {
          "indexed": true,
          "internalType": "address",
          "name": "beacon",
          "type": "address"
        }
      ],
      "name": "BeaconUpgraded",
      "type": "event"
    },
    {
      "anonymous": false,
      "inputs": [
        {
          "indexed": false,
          "internalType": "uint8",
          "name": "version",
          "type": "uint8"
        }
      ],
      "name": "Initialized",
      "type": "event"
    },
    {
      "anonymous": false,
      "inputs": [
        {
          "indexed": false,
          "internalType": "address",
          "name": "nftAddress",
          "type": "address"
        },
        {
          "indexed": false,
          "internalType": "bool",
          "name": "isERC721",
          "type": "bool"
        },
        {
          "indexed": true,
          "internalType": "uint256",
          "name": "itemId",
          "type": "uint256"
        },
        {
          "indexed": true,
          "internalType": "uint256",
          "name": "tokenId",
          "type": "uint256"
        },
        {
          "indexed": false,
          "internalType": "address",
          "name": "seller",
          "type": "address"
        },
        {
          "indexed": false,
          "internalType": "address",
          "name": "nftOwner",
          "type": "address"
        },
        {
          "indexed": false,
          "internalType": "uint256",
          "name": "price",
          "type": "uint256"
        },
        {
          "indexed": false,
          "internalType": "uint256",
          "name": "platformFee",
          "type": "uint256"
        },
        {
          "indexed": false,
          "internalType": "uint256",
          "name": "feeAmount",
          "type": "uint256"
        },
        {
          "indexed": false,
          "internalType": "uint256",
          "name": "totalPrice",
          "type": "uint256"
        },
        {
          "indexed": false,
          "internalType": "bool",
          "name": "sold",
          "type": "bool"
        }
      ],
      "name": "MarketItemCreated",
      "type": "event"
    },
    {
      "anonymous": false,
      "inputs": [
        {
          "indexed": true,
          "internalType": "address",
          "name": "previousOwner",
          "type": "address"
        },
        {
          "indexed": true,
          "internalType": "address",
          "name": "newOwner",
          "type": "address"
        }
      ],
      "name": "OwnershipTransferred",
      "type": "event"
    },
    {
      "anonymous": false,
      "inputs": [
        {
          "indexed": true,
          "internalType": "address",
          "name": "implementation",
          "type": "address"
        }
      ],
      "name": "Upgraded",
      "type": "event"
    },
    {
      "inputs": [
        {
          "internalType": "uint256",
          "name": "itemId",
          "type": "uint256"
        }
      ],
      "name": "buyNFT",
      "outputs": [],
      "stateMutability": "payable",
      "type": "function"
    },
    {
      "inputs": [
        {
          "internalType": "uint256",
          "name": "itemId",
          "type": "uint256"
        }
      ],
      "name": "cancelMarketItem",
      "outputs": [],
      "stateMutability": "nonpayable",
      "type": "function"
    },
    {
      "inputs": [
        {
          "internalType": "uint256",
          "name": "tokenId",
          "type": "uint256"
        },
        {
          "internalType": "uint256",
          "name": "priceInWei",
          "type": "uint256"
        },
        {
          "internalType": "bool",
          "name": "isErc721",
          "type": "bool"
        }
      ],
      "name": "createMarketItem",
      "outputs": [],
      "stateMutability": "nonpayable",
      "type": "function"
    },
    {
      "inputs": [],
      "name": "fetchItemsCreated",
      "outputs": [
        {
          "components": [
            {
              "internalType": "address",
              "name": "nftAddress",
              "type": "address"
            },
            {
              "internalType": "bool",
              "name": "isERC721",
              "type": "bool"
            },
            {
              "internalType": "uint256",
              "name": "itemId",
              "type": "uint256"
            },
            {
              "internalType": "uint256",
              "name": "tokenId",
              "type": "uint256"
            },
            {
              "internalType": "address",
              "name": "seller",
              "type": "address"
            },
            {
              "internalType": "address",
              "name": "nftOwner",
              "type": "address"
            },
            {
              "internalType": "uint256",
              "name": "price",
              "type": "uint256"
            },
            {
              "internalType": "uint256",
              "name": "platformFee",
              "type": "uint256"
            },
            {
              "internalType": "uint256",
              "name": "feeAmount",
              "type": "uint256"
            },
            {
              "internalType": "uint256",
              "name": "totalPrice",
              "type": "uint256"
            },
            {
              "internalType": "bool",
              "name": "sold",
              "type": "bool"
            }
          ],
          "internalType": "struct Marketplace.MarketItem[]",
          "name": "",
          "type": "tuple[]"
        }
      ],
      "stateMutability": "view",
      "type": "function"
    },
    {
      "inputs": [],
      "name": "fetchMarketItems",
      "outputs": [
        {
          "components": [
            {
              "internalType": "address",
              "name": "nftAddress",
              "type": "address"
            },
            {
              "internalType": "bool",
              "name": "isERC721",
              "type": "bool"
            },
            {
              "internalType": "uint256",
              "name": "itemId",
              "type": "uint256"
            },
            {
              "internalType": "uint256",
              "name": "tokenId",
              "type": "uint256"
            },
            {
              "internalType": "address",
              "name": "seller",
              "type": "address"
            },
            {
              "internalType": "address",
              "name": "nftOwner",
              "type": "address"
            },
            {
              "internalType": "uint256",
              "name": "price",
              "type": "uint256"
            },
            {
              "internalType": "uint256",
              "name": "platformFee",
              "type": "uint256"
            },
            {
              "internalType": "uint256",
              "name": "feeAmount",
              "type": "uint256"
            },
            {
              "internalType": "uint256",
              "name": "totalPrice",
              "type": "uint256"
            },
            {
              "internalType": "bool",
              "name": "sold",
              "type": "bool"
            }
          ],
          "internalType": "struct Marketplace.MarketItem[]",
          "name": "",
          "type": "tuple[]"
        }
      ],
      "stateMutability": "view",
      "type": "function"
    },
    {
      "inputs": [],
      "name": "fetchMyNFTs",
      "outputs": [
        {
          "components": [
            {
              "internalType": "address",
              "name": "nftAddress",
              "type": "address"
            },
            {
              "internalType": "bool",
              "name": "isERC721",
              "type": "bool"
            },
            {
              "internalType": "uint256",
              "name": "itemId",
              "type": "uint256"
            },
            {
              "internalType": "uint256",
              "name": "tokenId",
              "type": "uint256"
            },
            {
              "internalType": "address",
              "name": "seller",
              "type": "address"
            },
            {
              "internalType": "address",
              "name": "nftOwner",
              "type": "address"
            },
            {
              "internalType": "uint256",
              "name": "price",
              "type": "uint256"
            },
            {
              "internalType": "uint256",
              "name": "platformFee",
              "type": "uint256"
            },
            {
              "internalType": "uint256",
              "name": "feeAmount",
              "type": "uint256"
            },
            {
              "internalType": "uint256",
              "name": "totalPrice",
              "type": "uint256"
            },
            {
              "internalType": "bool",
              "name": "sold",
              "type": "bool"
            }
          ],
          "internalType": "struct Marketplace.MarketItem[]",
          "name": "",
          "type": "tuple[]"
        }
      ],
      "stateMutability": "view",
      "type": "function"
    },
    {
      "inputs": [
        {
          "internalType": "address",
          "name": "userAddress",
          "type": "address"
        }
      ],
      "name": "fetchUserNFTs",
      "outputs": [
        {
          "components": [
            {
              "internalType": "address",
              "name": "nftAddress",
              "type": "address"
            },
            {
              "internalType": "bool",
              "name": "isERC721",
              "type": "bool"
            },
            {
              "internalType": "uint256",
              "name": "itemId",
              "type": "uint256"
            },
            {
              "internalType": "uint256",
              "name": "tokenId",
              "type": "uint256"
            },
            {
              "internalType": "address",
              "name": "seller",
              "type": "address"
            },
            {
              "internalType": "address",
              "name": "nftOwner",
              "type": "address"
            },
            {
              "internalType": "uint256",
              "name": "price",
              "type": "uint256"
            },
            {
              "internalType": "uint256",
              "name": "platformFee",
              "type": "uint256"
            },
            {
              "internalType": "uint256",
              "name": "feeAmount",
              "type": "uint256"
            },
            {
              "internalType": "uint256",
              "name": "totalPrice",
              "type": "uint256"
            },
            {
              "internalType": "bool",
              "name": "sold",
              "type": "bool"
            }
          ],
          "internalType": "struct Marketplace.MarketItem[]",
          "name": "",
          "type": "tuple[]"
        }
      ],
      "stateMutability": "view",
      "type": "function"
    },
    {
      "inputs": [
        {
          "internalType": "uint256",
          "name": "",
          "type": "uint256"
        }
      ],
      "name": "idToMarketItem",
      "outputs": [
        {
          "internalType": "address",
          "name": "nftAddress",
          "type": "address"
        },
        {
          "internalType": "bool",
          "name": "isERC721",
          "type": "bool"
        },
        {
          "internalType": "uint256",
          "name": "itemId",
          "type": "uint256"
        },
        {
          "internalType": "uint256",
          "name": "tokenId",
          "type": "uint256"
        },
        {
          "internalType": "address",
          "name": "seller",
          "type": "address"
        },
        {
          "internalType": "address",
          "name": "nftOwner",
          "type": "address"
        },
        {
          "internalType": "uint256",
          "name": "price",
          "type": "uint256"
        },
        {
          "internalType": "uint256",
          "name": "platformFee",
          "type": "uint256"
        },
        {
          "internalType": "uint256",
          "name": "feeAmount",
          "type": "uint256"
        },
        {
          "internalType": "uint256",
          "name": "totalPrice",
          "type": "uint256"
        },
        {
          "internalType": "bool",
          "name": "sold",
          "type": "bool"
        }
      ],
      "stateMutability": "view",
      "type": "function"
    },
    {
      "inputs": [
        {
          "internalType": "address",
          "name": "nftContractAddress",
          "type": "address"
        },
        {
          "internalType": "address",
          "name": "myNftContractAddress",
          "type": "address"
        },
        {
          "internalType": "address",
          "name": "platformWalletAddress",
          "type": "address"
        },
        {
          "internalType": "uint256",
          "name": "platformFees",
          "type": "uint256"
        }
      ],
      "name": "initialize",
      "outputs": [],
      "stateMutability": "nonpayable",
      "type": "function"
    },
    {
      "inputs": [],
      "name": "myNftContract",
      "outputs": [
        {
          "internalType": "contract IERC1155",
          "name": "",
          "type": "address"
        }
      ],
      "stateMutability": "view",
      "type": "function"
    },
    {
      "inputs": [],
      "name": "nftContract",
      "outputs": [
        {
          "internalType": "contract IERC721",
          "name": "",
          "type": "address"
        }
      ],
      "stateMutability": "view",
      "type": "function"
    },
    {
      "inputs": [
        {
          "internalType": "address",
          "name": "",
          "type": "address"
        },
        {
          "internalType": "address",
          "name": "",
          "type": "address"
        },
        {
          "internalType": "uint256",
          "name": "",
          "type": "uint256"
        },
        {
          "internalType": "uint256",
          "name": "",
          "type": "uint256"
        },
        {
          "internalType": "bytes",
          "name": "",
          "type": "bytes"
        }
      ],
      "name": "onERC1155Received",
      "outputs": [
        {
          "internalType": "bytes4",
          "name": "",
          "type": "bytes4"
        }
      ],
      "stateMutability": "nonpayable",
      "type": "function"
    },
    {
      "inputs": [
        {
          "internalType": "address",
          "name": "",
          "type": "address"
        },
        {
          "internalType": "address",
          "name": "",
          "type": "address"
        },
        {
          "internalType": "uint256",
          "name": "",
          "type": "uint256"
        },
        {
          "internalType": "bytes",
          "name": "",
          "type": "bytes"
        }
      ],
      "name": "onERC721Received",
      "outputs": [
        {
          "internalType": "bytes4",
          "name": "",
          "type": "bytes4"
        }
      ],
      "stateMutability": "nonpayable",
      "type": "function"
    },
    {
      "inputs": [],
      "name": "owner",
      "outputs": [
        {
          "internalType": "address",
          "name": "",
          "type": "address"
        }
      ],
      "stateMutability": "view",
      "type": "function"
    },
    {
      "inputs": [],
      "name": "platformFee",
      "outputs": [
        {
          "internalType": "uint256",
          "name": "",
          "type": "uint256"
        }
      ],
      "stateMutability": "view",
      "type": "function"
    },
    {
      "inputs": [],
      "name": "platformWallet",
      "outputs": [
        {
          "internalType": "address payable",
          "name": "",
          "type": "address"
        }
      ],
      "stateMutability": "view",
      "type": "function"
    },
    {
      "inputs": [],
      "name": "proxiableUUID",
      "outputs": [
        {
          "internalType": "bytes32",
          "name": "",
          "type": "bytes32"
        }
      ],
      "stateMutability": "view",
      "type": "function"
    },
    {
      "inputs": [],
      "name": "renounceOwnership",
      "outputs": [],
      "stateMutability": "nonpayable",
      "type": "function"
    },
    {
      "inputs": [
        {
          "internalType": "address",
          "name": "newOwner",
          "type": "address"
        }
      ],
      "name": "transferOwnership",
      "outputs": [],
      "stateMutability": "nonpayable",
      "type": "function"
    },
    {
      "inputs": [
        {
          "internalType": "address",
          "name": "newImplementation",
          "type": "address"
        }
      ],
      "name": "upgradeTo",
      "outputs": [],
      "stateMutability": "nonpayable",
      "type": "function"
    },
    {
      "inputs": [
        {
          "internalType": "address",
          "name": "newImplementation",
          "type": "address"
        },
        {
          "internalType": "bytes",
          "name": "data",
          "type": "bytes"
        }
      ],
      "name": "upgradeToAndCall",
      "outputs": [],
      "stateMutability": "payable",
      "type": "function"
    }
  ],
  "bytecode": "0x60a06040523060601b60805234801561001757600080fd5b5060805160601c612b68610052600039600081816110ad015281816110ed0152818161118d015281816111cd01526115a30152612b686000f3fe60806040526004361061012a5760003560e01c80638da5cb5b116100ab578063d56d229d1161006f578063d56d229d1461031b578063e61a70c01461033b578063f064c32e14610426578063f23a6e611461043b578063f2fde38b14610467578063fa2af9da1461048757600080fd5b80638da5cb5b14610269578063a1cfe2f71461029b578063a6e22b02146102bb578063bd68b117146102db578063cf756fdf146102fb57600080fd5b80633659cfe6116100f25780633659cfe6146101f95780634f1ef2861461021957806351ed82881461022c57806352d1902d1461023f578063715018a61461025457600080fd5b80630f08efe01461012f578063150b7a021461015a578063202e37401461019e57806326232a2e146101b35780632a2cfd33146101d7575b600080fd5b34801561013b57600080fd5b506101446104a8565b60405161015191906124a4565b60405180910390f35b34801561016657600080fd5b5061018561017536600461261e565b630a85bd0160e11b949350505050565b6040516001600160e01b03199091168152602001610151565b3480156101aa57600080fd5b5061014461066d565b3480156101bf57600080fd5b506101c960ff5481565b604051908152602001610151565b3480156101e357600080fd5b506101f76101f236600461268a565b610871565b005b34801561020557600080fd5b506101f76102143660046126c8565b6110a2565b6101f76102273660046126e5565b611182565b6101f761023a366004612735565b611253565b34801561024b57600080fd5b506101c9611596565b34801561026057600080fd5b506101f7611649565b34801561027557600080fd5b506033546001600160a01b03165b6040516001600160a01b039091168152602001610151565b3480156102a757600080fd5b5060fe54610283906001600160a01b031681565b3480156102c757600080fd5b506101f76102d6366004612735565b61165d565b3480156102e757600080fd5b506101446102f63660046126c8565b611860565b34801561030757600080fd5b506101f761031636600461274e565b611a80565b34801561032757600080fd5b5060fd54610283906001600160a01b031681565b34801561034757600080fd5b506103bd610356366004612735565b6101016020526000908152604090208054600182015460028301546003840154600485015460058601546006870154600788015460088901546009909901546001600160a01b03808a169a60ff600160a01b909b048b169a9782169796909116959091168b565b604080516001600160a01b039c8d1681529a151560208c01528a0198909852606089019690965293881660808801529690911660a086015260c085015260e084019490945261010083019390935261012082019290925290151561014082015261016001610151565b34801561043257600080fd5b50610144611c28565b34801561044757600080fd5b5061018561045636600461279f565b63f23a6e6160e01b95945050505050565b34801561047357600080fd5b506101f76104823660046126c8565b611e2c565b34801561049357600080fd5b5061010054610283906001600160a01b031681565b606060006104b560fb5490565b905060006104c260fc5490565b60fb546104cf919061282b565b90506000808267ffffffffffffffff8111156104ed576104ed61257b565b60405190808252806020026020018201604052801561052657816020015b61051361242b565b81526020019060019003908161050b5790505b50905060005b8481101561066457600061010181610545846001612842565b81526020810191909152604001600020600401546001600160a01b03161415610652576000610575826001612842565b6000818152610101602090815260409182902082516101608101845281546001600160a01b03808216835260ff600160a01b909204821615159483019490945260018301549482019490945260028201546060820152600382015483166080820152600482015490921660a0830152600581015460c0830152600681015460e08301526007810154610100830152600881015461012083015260098101549092161515610140820152855192935090918590879081106106375761063761285a565b602090810291909101015261064d600186612842565b945050505b8061065c81612870565b91505061052c565b50949350505050565b6060600061067a60fb5490565b905060008060005b838110156106de5733610101600061069b846001612842565b81526020810191909152604001600020600401546001600160a01b031614156106cc576106c9600184612842565b92505b806106d681612870565b915050610682565b5060008267ffffffffffffffff8111156106fa576106fa61257b565b60405190808252806020026020018201604052801561073357816020015b61072061242b565b8152602001906001900390816107185790505b50905060005b8481101561066457336101016000610752846001612842565b81526020810191909152604001600020600401546001600160a01b0316141561085f576000610782826001612842565b6000818152610101602090815260409182902082516101608101845281546001600160a01b03808216835260ff600160a01b909204821615159483019490945260018301549482019490945260028201546060820152600382015483166080820152600482015490921660a0830152600581015460c0830152600681015460e08301526007810154610100830152600881015461012083015260098101549092161515610140820152855192935090918590879081106108445761084461285a565b602090810291909101015261085a600186612842565b945050505b8061086981612870565b915050610739565b610879611ea2565b8015610c9d5760fd546040516331a9108f60e11b81526004810185905233916001600160a01b031690636352211e9060240160206040518083038186803b1580156108c357600080fd5b505afa1580156108d7573d6000803e3d6000fd5b505050506040513d601f19601f820116820180604052508101906108fb919061288b565b6001600160a01b0316146109695760405162461bcd60e51b815260206004820152602a60248201527f596f75206d757374206f776e207468652045524337323120746f6b656e20746f604482015269206c697374206865726560b01b60648201526084015b60405180910390fd5b600082116109b95760405162461bcd60e51b815260206004820152601c60248201527f5072696365206d7573742062652067726561746572207468616e2030000000006044820152606401610960565b6109c760fb80546001019055565b60006109d260fb5490565b9050600061271060ff54856109e791906128a8565b6109f191906128c7565b905060006109ff8286612842565b905060405180610160016040528060fd60009054906101000a90046001600160a01b03166001600160a01b03168152602001600115158152602001848152602001878152602001336001600160a01b0316815260200160006001600160a01b0316815260200186815260200160ff54815260200183815260200182815260200160001515815250610101600085815260200190815260200160002060008201518160000160006101000a8154816001600160a01b0302191690836001600160a01b0316021790555060208201518160000160146101000a81548160ff021916908315150217905550604082015181600101556060820151816002015560808201518160030160006101000a8154816001600160a01b0302191690836001600160a01b0316021790555060a08201518160040160006101000a8154816001600160a01b0302191690836001600160a01b0316021790555060c0820151816005015560e08201518160060155610100820151816007015561012082015181600801556101408201518160090160006101000a81548160ff02191690831515021790555090505060fd60009054906101000a90046001600160a01b03166001600160a01b03166342842e0e3330896040518463ffffffff1660e01b8152600401610c07939291906001600160a01b039384168152919092166020820152604081019190915260600190565b600060405180830381600087803b158015610c2157600080fd5b505af1158015610c35573d6000803e3d6000fd5b505060fd5460ff546040518a94508793507fe712e5677502bdc7429522e7fe50fc506009998b66c378cfbff45e2ce4f3724d92610c8d926001600160a01b039091169160019133916000918e918c908c9085906128e9565b60405180910390a3505050611093565b60fe54604051627eeac760e11b8152336004820152602481018590526001600160a01b039091169062fdd58e9060440160206040518083038186803b158015610ce557600080fd5b505afa158015610cf9573d6000803e3d6000fd5b505050506040513d601f19601f82011682018060405250810190610d1d919061293c565b600114610d805760405162461bcd60e51b815260206004820152602b60248201527f596f75206d757374206f776e20746865204552433131353520746f6b656e207460448201526a6f206c697374206865726560a81b6064820152608401610960565b60008211610dd05760405162461bcd60e51b815260206004820152601c60248201527f5072696365206d7573742062652067726561746572207468616e2030000000006044820152606401610960565b610dde60fb80546001019055565b6000610de960fb5490565b9050600061271060ff5485610dfe91906128a8565b610e0891906128c7565b90506000610e168286612842565b905060405180610160016040528060fe60009054906101000a90046001600160a01b03166001600160a01b03168152602001600015158152602001848152602001878152602001336001600160a01b0316815260200160006001600160a01b0316815260200186815260200160ff54815260200183815260200182815260200160001515815250610101600085815260200190815260200160002060008201518160000160006101000a8154816001600160a01b0302191690836001600160a01b0316021790555060208201518160000160146101000a81548160ff021916908315150217905550604082015181600101556060820151816002015560808201518160030160006101000a8154816001600160a01b0302191690836001600160a01b0316021790555060a08201518160040160006101000a8154816001600160a01b0302191690836001600160a01b0316021790555060c0820151816005015560e08201518160060155610100820151816007015561012082015181600801556101408201518160090160006101000a81548160ff02191690831515021790555090505060fe60009054906101000a90046001600160a01b03166001600160a01b031663f242432a33308960016040518563ffffffff1660e01b81526004016110029493929190612955565b600060405180830381600087803b15801561101c57600080fd5b505af1158015611030573d6000803e3d6000fd5b505060fe5460ff546040518a94508793507fe712e5677502bdc7429522e7fe50fc506009998b66c378cfbff45e2ce4f3724d92611087926001600160a01b0390911691600091339183918e918c908c9085906128e9565b60405180910390a35050505b61109d600160c955565b505050565b306001600160a01b037f00000000000000000000000000000000000000000000000000000000000000001614156110eb5760405162461bcd60e51b81526004016109609061298d565b7f00000000000000000000000000000000000000000000000000000000000000006001600160a01b0316611134600080516020612aec833981519152546001600160a01b031690565b6001600160a01b03161461115a5760405162461bcd60e51b8152600401610960906129d9565b61116381611f03565b6040805160008082526020820190925261117f91839190611f0b565b50565b306001600160a01b037f00000000000000000000000000000000000000000000000000000000000000001614156111cb5760405162461bcd60e51b81526004016109609061298d565b7f00000000000000000000000000000000000000000000000000000000000000006001600160a01b0316611214600080516020612aec833981519152546001600160a01b031690565b6001600160a01b03161461123a5760405162461bcd60e51b8152600401610960906129d9565b61124382611f03565b61124f82826001611f0b565b5050565b61125b611ea2565b60008181526101016020526040902080546008820154600283015460038401546007850154600490950154600160a01b90940460ff1694929391926001600160a01b0391821692909116156112e95760405162461bcd60e51b8152602060048201526014602482015273125d195b481a5cc8185b1c9958591e481cdbdb1960621b6044820152606401610960565b600086815261010160205260409020600301546001600160a01b03163314156113545760405162461bcd60e51b815260206004820152601860248201527f43616e6e6f742062757920796f7572206f776e206974656d00000000000000006044820152606401610960565b6000868152610101602052604090206004810180546001600160a01b03191633179055600901805460ff19166001179055348411156113cc5760405162461bcd60e51b815260206004820152601460248201527345746865722042616c616e6365206973206c6f7760601b6044820152606401610960565b833411156114145760006113e0853461282b565b60405160009250339082156108fc0290839085818181858888f19350505050158015611410573d6000803e3d6000fd5b5050505b6000611420828661282b565b604051600092506001600160a01b0385169082156108fc0290839085818181858888f19350505050158015611459573d6000803e3d6000fd5b5061010054604051600094916001600160a01b03169082156108fc0290839087818181858888f19350505050158015611496573d6000803e3d6000fd5b50871561150c5760fd54604051632142170760e11b8152306004820152336024820152604481018890526001600160a01b03909116906342842e0e90606401600060405180830381600087803b1580156114ef57600080fd5b505af1158015611503573d6000803e3d6000fd5b50505050611576565b60fe54604051637921219560e11b81526001600160a01b039091169063f242432a9061154390309033908b90600190600401612955565b600060405180830381600087803b15801561155d57600080fd5b505af1158015611571573d6000803e3d6000fd5b505050505b61158460fc80546001019055565b505050505050505061117f600160c955565b6000306001600160a01b037f000000000000000000000000000000000000000000000000000000000000000016146116365760405162461bcd60e51b815260206004820152603860248201527f555550535570677261646561626c653a206d757374206e6f742062652063616c60448201527f6c6564207468726f7567682064656c656761746563616c6c00000000000000006064820152608401610960565b50600080516020612aec83398151915290565b611651612085565b61165b60006120df565b565b611665611ea2565b60008181526101016020526040902080546002820154600390920154600160a01b90910460ff169190336001600160a01b03909116146116f65760405162461bcd60e51b815260206004820152602660248201527f43616c6c6572206e6f7420616e206f776e6572206f6620746865206d61726b6560448201526574206974656d60d01b6064820152608401610960565b6000838152610101602052604090206004810180546001600160a01b03191633179055600901805460ff1916600117905581156117bc5760008381526101016020526040908190205460fd80546001600160a01b0319166001600160a01b0390921691821790559051632142170760e11b8152306004820152336024820152604481018390526342842e0e90606401600060405180830381600087803b15801561179f57600080fd5b505af11580156117b3573d6000803e3d6000fd5b50505050611846565b60008381526101016020526040908190205460fe80546001600160a01b0319166001600160a01b0390921691821790559051637921219560e11b815263f242432a9061181390309033908690600190600401612955565b600060405180830381600087803b15801561182d57600080fd5b505af1158015611841573d6000803e3d6000fd5b505050505b61185460fc80546001019055565b505061117f600160c955565b6060600061186d60fb5490565b905060008060005b838110156118da576001600160a01b0386166101016000611897846001612842565b81526020810191909152604001600020600401546001600160a01b031614156118c8576118c5600184612842565b92505b806118d281612870565b915050611875565b5060008267ffffffffffffffff8111156118f6576118f661257b565b60405190808252806020026020018201604052801561192f57816020015b61191c61242b565b8152602001906001900390816119145790505b50905060005b84811015611a76576001600160a01b0387166101016000611957846001612842565b81526020810191909152604001600020600401546001600160a01b03161415611a64576000611987826001612842565b6000818152610101602090815260409182902082516101608101845281546001600160a01b03808216835260ff600160a01b909204821615159483019490945260018301549482019490945260028201546060820152600382015483166080820152600482015490921660a0830152600581015460c0830152600681015460e0830152600781015461010083015260088101546101208301526009810154909216151561014082015285519293509091859087908110611a4957611a4961285a565b6020908102919091010152611a5f600186612842565b945050505b80611a6e81612870565b915050611935565b5095945050505050565b600054610100900460ff1615808015611aa05750600054600160ff909116105b80611aba5750303b158015611aba575060005460ff166001145b611b1d5760405162461bcd60e51b815260206004820152602e60248201527f496e697469616c697a61626c653a20636f6e747261637420697320616c72656160448201526d191e481a5b9a5d1a585b1a5e995960921b6064820152608401610960565b6000805460ff191660011790558015611b40576000805461ff0019166101001790555b6001600160a01b038316611b885760405162461bcd60e51b815260206004820152600f60248201526e496e76616c6964206164647265737360881b6044820152606401610960565b60fd80546001600160a01b038088166001600160a01b03199283161790925560fe805487841690831617905561010080549286169290911691909117905560ff829055611bd3612131565b611bdb612160565b8015611c21576000805461ff0019169055604051600181527f7f26b83ff96e1f2b6a682f133852f6798a09c465da95921460cefb38474024989060200160405180910390a15b5050505050565b60606000611c3560fb5490565b905060008060005b83811015611c9957336101016000611c56846001612842565b81526020810191909152604001600020600301546001600160a01b03161415611c8757611c84600184612842565b92505b80611c9181612870565b915050611c3d565b5060008267ffffffffffffffff811115611cb557611cb561257b565b604051908082528060200260200182016040528015611cee57816020015b611cdb61242b565b815260200190600190039081611cd35790505b50905060005b8481101561066457336101016000611d0d846001612842565b81526020810191909152604001600020600301546001600160a01b03161415611e1a576000611d3d826001612842565b6000818152610101602090815260409182902082516101608101845281546001600160a01b03808216835260ff600160a01b909204821615159483019490945260018301549482019490945260028201546060820152600382015483166080820152600482015490921660a0830152600581015460c0830152600681015460e0830152600781015461010083015260088101546101208301526009810154909216151561014082015285519293509091859087908110611dff57611dff61285a565b6020908102919091010152611e15600186612842565b945050505b80611e2481612870565b915050611cf4565b611e34612085565b6001600160a01b038116611e995760405162461bcd60e51b815260206004820152602660248201527f4f776e61626c653a206e6577206f776e657220697320746865207a65726f206160448201526564647265737360d01b6064820152608401610960565b61117f816120df565b600260c9541415611ef55760405162461bcd60e51b815260206004820152601f60248201527f5265656e7472616e637947756172643a207265656e7472616e742063616c6c006044820152606401610960565b600260c955565b600160c955565b61117f612085565b7f4910fdfa16fed3260ed0e7147f7cc6da11a60208b5b9406d12a635614ffd91435460ff1615611f3e5761109d8361218f565b826001600160a01b03166352d1902d6040518163ffffffff1660e01b815260040160206040518083038186803b158015611f7757600080fd5b505afa925050508015611fa7575060408051601f3d908101601f19168201909252611fa49181019061293c565b60015b61200a5760405162461bcd60e51b815260206004820152602e60248201527f45524331393637557067726164653a206e657720696d706c656d656e7461746960448201526d6f6e206973206e6f74205555505360901b6064820152608401610960565b600080516020612aec83398151915281146120795760405162461bcd60e51b815260206004820152602960248201527f45524331393637557067726164653a20756e737570706f727465642070726f786044820152681a58589b195555525160ba1b6064820152608401610960565b5061109d83838361222b565b6033546001600160a01b0316331461165b5760405162461bcd60e51b815260206004820181905260248201527f4f776e61626c653a2063616c6c6572206973206e6f7420746865206f776e65726044820152606401610960565b603380546001600160a01b038381166001600160a01b0319831681179093556040519116919082907f8be0079c531659141344cd1fd0a4f28419497f9722a3daafe3b4186f6b6457e090600090a35050565b600054610100900460ff166121585760405162461bcd60e51b815260040161096090612a25565b61165b612256565b600054610100900460ff166121875760405162461bcd60e51b815260040161096090612a25565b61165b612286565b6001600160a01b0381163b6121fc5760405162461bcd60e51b815260206004820152602d60248201527f455243313936373a206e657720696d706c656d656e746174696f6e206973206e60448201526c1bdd08184818dbdb9d1c9858dd609a1b6064820152608401610960565b600080516020612aec83398151915280546001600160a01b0319166001600160a01b0392909216919091179055565b612234836122ad565b6000825111806122415750805b1561109d5761225083836122ed565b50505050565b600054610100900460ff1661227d5760405162461bcd60e51b815260040161096090612a25565b61165b336120df565b600054610100900460ff16611efc5760405162461bcd60e51b815260040161096090612a25565b6122b68161218f565b6040516001600160a01b038216907fbc7cd75a20ee27fd9adebab32041f755214dbc6bffa90cc0225b39da2e5c2d3b90600090a250565b60606001600160a01b0383163b6123555760405162461bcd60e51b815260206004820152602660248201527f416464726573733a2064656c65676174652063616c6c20746f206e6f6e2d636f6044820152651b9d1c9858dd60d21b6064820152608401610960565b600080846001600160a01b0316846040516123709190612a9c565b600060405180830381855af49150503d80600081146123ab576040519150601f19603f3d011682016040523d82523d6000602084013e6123b0565b606091505b50915091506123d88282604051806060016040528060278152602001612b0c602791396123e1565b95945050505050565b606083156123f05750816123fa565b6123fa8383612401565b9392505050565b8151156124115781518083602001fd5b8060405162461bcd60e51b81526004016109609190612ab8565b60405180610160016040528060006001600160a01b03168152602001600015158152602001600081526020016000815260200160006001600160a01b0316815260200160006001600160a01b03168152602001600081526020016000815260200160008152602001600081526020016000151581525090565b602080825282518282018190526000919060409081850190868401855b8281101561255957815180516001600160a01b0390811686528782015115158887015286820151878701526060808301519087015260808083015182169087015260a0808301519091169086015260c0808201519086015260e08082015190860152610100808201519086015261012080820151908601526101409081015115159085015261016090930192908501906001016124c1565b5091979650505050505050565b6001600160a01b038116811461117f57600080fd5b634e487b7160e01b600052604160045260246000fd5b600082601f8301126125a257600080fd5b813567ffffffffffffffff808211156125bd576125bd61257b565b604051601f8301601f19908116603f011681019082821181831017156125e5576125e561257b565b816040528381528660208588010111156125fe57600080fd5b836020870160208301376000602085830101528094505050505092915050565b6000806000806080858703121561263457600080fd5b843561263f81612566565b9350602085013561264f81612566565b925060408501359150606085013567ffffffffffffffff81111561267257600080fd5b61267e87828801612591565b91505092959194509250565b60008060006060848603121561269f57600080fd5b8335925060208401359150604084013580151581146126bd57600080fd5b809150509250925092565b6000602082840312156126da57600080fd5b81356123fa81612566565b600080604083850312156126f857600080fd5b823561270381612566565b9150602083013567ffffffffffffffff81111561271f57600080fd5b61272b85828601612591565b9150509250929050565b60006020828403121561274757600080fd5b5035919050565b6000806000806080858703121561276457600080fd5b843561276f81612566565b9350602085013561277f81612566565b9250604085013561278f81612566565b9396929550929360600135925050565b600080600080600060a086880312156127b757600080fd5b85356127c281612566565b945060208601356127d281612566565b93506040860135925060608601359150608086013567ffffffffffffffff8111156127fc57600080fd5b61280888828901612591565b9150509295509295909350565b634e487b7160e01b600052601160045260246000fd5b60008282101561283d5761283d612815565b500390565b6000821982111561285557612855612815565b500190565b634e487b7160e01b600052603260045260246000fd5b600060001982141561288457612884612815565b5060010190565b60006020828403121561289d57600080fd5b81516123fa81612566565b60008160001904831182151516156128c2576128c2612815565b500290565b6000826128e457634e487b7160e01b600052601260045260246000fd5b500490565b6001600160a01b03998a16815297151560208901529588166040880152939096166060860152608085019190915260a084015260c083019390935260e08201929092529015156101008201526101200190565b60006020828403121561294e57600080fd5b5051919050565b6001600160a01b0394851681529290931660208301526040820152606081019190915260a06080820181905260009082015260c00190565b6020808252602c908201527f46756e6374696f6e206d7573742062652063616c6c6564207468726f7567682060408201526b19195b1959d85d1958d85b1b60a21b606082015260800190565b6020808252602c908201527f46756e6374696f6e206d7573742062652063616c6c6564207468726f7567682060408201526b6163746976652070726f787960a01b606082015260800190565b6020808252602b908201527f496e697469616c697a61626c653a20636f6e7472616374206973206e6f74206960408201526a6e697469616c697a696e6760a81b606082015260800190565b60005b83811015612a8b578181015183820152602001612a73565b838111156122505750506000910152565b60008251612aae818460208701612a70565b9190910192915050565b6020815260008251806020840152612ad7816040850160208701612a70565b601f01601f1916919091016040019291505056fe360894a13ba1a3210667c828492db98dca3e2076cc3735a920a3ca505d382bbc416464726573733a206c6f772d6c6576656c2064656c65676174652063616c6c206661696c6564a2646970667358221220eb766991686d051ff36f972e71f4b598366e4ed1b30ce6acc43e958ac87bb95664736f6c63430008080033",
  "linkReferences": {},
  "deployedLinkReferences": {}
}